{
  "transactions": [
    {
      "hash": "0x9302e089476c292a5e81b3bf42118245c8062d37070e5eb1aff58ba61f722702",
      "transactionType": "CALL",
      "contractName": null,
      "contractAddress": "0x2ee8e8d7c113bb7c180f4755f06ed50be53bede5",
      "function": "setLockProxyData(address,address)",
      "arguments": [
        "0xb5D4f343412dC8efb6ff599d790074D0f1e8D430",
        "0xD819257C964A78A493DF93D5643E9490b54C5af2"
      ],
      "transaction": {
        "from": "0xd89421cd5dd6d6269fbb9307535c386afe11a23e",
        "to": "0x2ee8e8d7c113bb7c180f4755f06ed50be53bede5",
        "gas": "0x1af73",
        "value": "0x0",
        "input": "0x766a1b7b000000000000000000000000b5d4f343412dc8efb6ff599d790074d0f1e8d430000000000000000000000000d819257c964a78a493df93d5643e9490b54c5af2",
        "nonce": "0xc",
        "chainId": "0x38"
      },
      "additionalContracts": [],
      "isFixedGasLimit": false
    }
  ],
  "receipts": [
    {
      "status": "0x1",
      "cumulativeGasUsed": "0xb3d5cf",
      "logs": [
        {
          "address": "0x2ee8e8d7c113bb7c180f4755f06ed50be53bede5",
          "topics": [
            "0x90ca77ab15009de2392c35890c8e7fb753565ab9e96a342289aa32fcf433f35a"
          ],
          "data": "0x0000000000000000000000000000000000000000000000000000000000000000000000000000000000000000b5d4f343412dc8efb6ff599d790074d0f1e8d4300000000000000000000000000000000000000000000000000000000000000000000000000000000000000000d819257c964a78a493df93d5643e9490b54c5af2",
          "blockHash": "0xbf8af19912f44f8644970e479f4c342a701d256aff2153e849d014215fe7f6f1",
          "blockNumber": "0x2af534b",
          "transactionHash": "0x9302e089476c292a5e81b3bf42118245c8062d37070e5eb1aff58ba61f722702",
          "transactionIndex": "0x5c",
          "logIndex": "0xdc",
          "removed": false
        }
      ],
      "logsBloom": "0x00000000000000000000000000000000000000000000000000000000000000000000000000000000000000000000000000000000000000000000000000000008000000000000000000000000000001000000000000000000000000002000000000000000000000000000000000000000000000000000000000000000000000000000000000000000000000000000000000000000008000000000000000000000000000000000000000000000080000000000000000000000000000000000000000000000000000000000000000000000000000000000000000000000000000000000000000000000000040000000000000000000000000000000000000000000",
      "type": "0x0",
      "transactionHash": "0x9302e089476c292a5e81b3bf42118245c8062d37070e5eb1aff58ba61f722702",
      "transactionIndex": "0x5c",
      "blockHash": "0xbf8af19912f44f8644970e479f4c342a701d256aff2153e849d014215fe7f6f1",
      "blockNumber": "0x2af534b",
      "gasUsed": "0x12703",
      "effectiveGasPrice": "0x3b9aca00",
      "from": "0xd89421cd5dd6d6269fbb9307535c386afe11a23e",
      "to": "0x2ee8e8d7c113bb7c180f4755f06ed50be53bede5",
      "contractAddress": null
    }
  ],
  "libraries": [],
  "pending": [],
  "returns": {},
  "timestamp": 1734714698,
  "chain": 56,
  "commit": "95368e7"
}