{
  "transactions": [
    {
      "hash": null,
      "transactionType": "CALL",
      "contractName": null,
      "contractAddress": "0x7738267553f87b68ae9fecbfbe3293a187f18110",
      "function": "addValidator(address)",
      "arguments": [
        "0x250572Ed005BaD64Ff24FbDc0d41875dAF58944f"
      ],
      "transaction": {
        "from": "0xd89421cd5dd6d6269fbb9307535c386afe11a23e",
        "to": "0x7738267553f87b68ae9fecbfbe3293a187f18110",
        "gas": "0x1a832",
        "value": "0x0",
        "input": "0x4d238c8e000000000000000000000000250572ed005bad64ff24fbdc0d41875daf58944f",
        "nonce": "0x1a",
        "chainId": "0x89"
      },
      "additionalContracts": [],
      "isFixedGasLimit": false
    },
    {
      "hash": null,
      "transactionType": "CALL",
      "contractName": null,
      "contractAddress": "0x7738267553f87b68ae9fecbfbe3293a187f18110",
      "function": "removeValidator(address)",
      "arguments": [
        "0xD89421Cd5dD6d6269FbB9307535c386AFe11a23E"
      ],
      "transaction": {
        "from": "0xd89421cd5dd6d6269fbb9307535c386afe11a23e",
        "to": "0x7738267553f87b68ae9fecbfbe3293a187f18110",
        "gas": "0x1043e",
        "value": "0x0",
        "input": "0x40a141ff000000000000000000000000d89421cd5dd6d6269fbb9307535c386afe11a23e",
        "nonce": "0x1b",
        "chainId": "0x89"
      },
      "additionalContracts": [],
      "isFixedGasLimit": false
    }
  ],
  "receipts": [],
  "libraries": [],
  "pending": [],
  "returns": {},
  "timestamp": 1735320406,
  "chain": 137,
  "commit": "80c8cc8"
}