{
  "transactions": [
    {
      "hash": "0x19c897d7dd0149b402fca377c18860b60d66c6ce0b2b6231e17f21f4378a1b6d",
      "transactionType": "CALL",
      "contractName": null,
      "contractAddress": "0x7738267553f87b68ae9fecbfbe3293a187f18110",
      "function": "addValidator(address)",
      "arguments": [
        "0x250572Ed005BaD64Ff24FbDc0d41875dAF58944f"
      ],
      "transaction": {
        "from": "0xd89421cd5dd6d6269fbb9307535c386afe11a23e",
        "to": "0x7738267553f87b68ae9fecbfbe3293a187f18110",
        "gas": "0x1a832",
        "value": "0x0",
        "input": "0x4d238c8e000000000000000000000000250572ed005bad64ff24fbdc0d41875daf58944f",
        "nonce": "0x1a",
        "chainId": "0x89"
      },
      "additionalContracts": [],
      "isFixedGasLimit": false
    },
    {
      "hash": "0x1d417973c12ae13eae154a78106b4a3a014fb6799098cf6ab39e710013ae4677",
      "transactionType": "CALL",
      "contractName": null,
      "contractAddress": "0x7738267553f87b68ae9fecbfbe3293a187f18110",
      "function": "removeValidator(address)",
      "arguments": [
        "0xD89421Cd5dD6d6269FbB9307535c386AFe11a23E"
      ],
      "transaction": {
        "from": "0xd89421cd5dd6d6269fbb9307535c386afe11a23e",
        "to": "0x7738267553f87b68ae9fecbfbe3293a187f18110",
        "gas": "0x1043e",
        "value": "0x0",
        "input": "0x40a141ff000000000000000000000000d89421cd5dd6d6269fbb9307535c386afe11a23e",
        "nonce": "0x1b",
        "chainId": "0x89"
      },
      "additionalContracts": [],
      "isFixedGasLimit": false
    }
  ],
  "receipts": [
    {
      "status": "0x1",
      "cumulativeGasUsed": "0x13f4c59",
      "logs": [
        {
          "address": "0x0000000000000000000000000000000000001010",
          "topics": [
            "0x4dfe1bbbcf077ddc3e01291eea2d5c70c2b422b415d95645b9adcfd678cb1d63",
            "0x0000000000000000000000000000000000000000000000000000000000001010",
            "0x000000000000000000000000d89421cd5dd6d6269fbb9307535c386afe11a23e",
            "0x000000000000000000000000a8b52f02108aa5f4b675bdcc973760022d7c6020"
          ],
          "data": "0x0000000000000000000000000000000000000000000000000007ac40bc0fa180000000000000000000000000000000000000000000000003aad1489e5f057f1f0000000000000000000000000000000000000000000000626fdcbe84463e7b5f000000000000000000000000000000000000000000000003aac99c5da2f5dd9f0000000000000000000000000000000000000000000000626fe46ac5024e1cdf",
          "blockHash": "0x2927cfad03abc864ea7998496c54a44ee3b56294bc10b26dc95722eb36c259b3",
          "blockNumber": "0x3eefa28",
          "transactionHash": "0x19c897d7dd0149b402fca377c18860b60d66c6ce0b2b6231e17f21f4378a1b6d",
          "transactionIndex": "0x66",
          "logIndex": "0x2e0",
          "removed": false
        }
      ],
      "logsBloom": "0x00000000000000000000000000000000000000000000000000000000000000000000000000000000000000080002000000008000000000000000000000000000000000000100000000000000000000800000000000000000000100000000000000000000000000000000000000000000000000000000000080000000000000000000000000000000000000000000000000000000000000040000000000000000200000000000004000000000000000000000000000000000000000000000004000000000000000000001000000000000000000000000000000100000000000000000000000000000000000000000000000000000000000800000000000100000",
      "type": "0x2",
      "transactionHash": "0x19c897d7dd0149b402fca377c18860b60d66c6ce0b2b6231e17f21f4378a1b6d",
      "transactionIndex": "0x66",
      "blockHash": "0x2927cfad03abc864ea7998496c54a44ee3b56294bc10b26dc95722eb36c259b3",
      "blockNumber": "0x3eefa28",
      "gasUsed": "0x1331d",
      "effectiveGasPrice": "0x465be59e96",
      "from": "0xd89421cd5dd6d6269fbb9307535c386afe11a23e",
      "to": "0x7738267553f87b68ae9fecbfbe3293a187f18110",
      "contractAddress": null
    },
    {
      "status": "0x1",
      "cumulativeGasUsed": "0x13ffe4b",
      "logs": [
        {
          "address": "0x0000000000000000000000000000000000001010",
          "topics": [
            "0x4dfe1bbbcf077ddc3e01291eea2d5c70c2b422b415d95645b9adcfd678cb1d63",
            "0x0000000000000000000000000000000000000000000000000000000000001010",
            "0x000000000000000000000000d89421cd5dd6d6269fbb9307535c386afe11a23e",
            "0x000000000000000000000000a8b52f02108aa5f4b675bdcc973760022d7c6020"
          ],
          "data": "0x0000000000000000000000000000000000000000000000000004721ce7c5e700000000000000000000000000000000000000000000000003aa7ce07198d4a6210000000000000000000000000000000000000000000000626fe46ac5024e1cdf000000000000000000000000000000000000000000000003aa786e54b10ebf210000000000000000000000000000000000000000000000626fe8dce1ea1403df",
          "blockHash": "0x2927cfad03abc864ea7998496c54a44ee3b56294bc10b26dc95722eb36c259b3",
          "blockNumber": "0x3eefa28",
          "transactionHash": "0x1d417973c12ae13eae154a78106b4a3a014fb6799098cf6ab39e710013ae4677",
          "transactionIndex": "0x67",
          "logIndex": "0x2e1",
          "removed": false
        }
      ],
      "logsBloom": "0x00000000000000000000000000000000000000000000000000000000000000000000000000000000000000080002000000008000000000000000000000000000000000000100000000000000000000800000000000000000000100000000000000000000000000000000000000000000000000000000000080000000000000000000000000000000000000000000000000000000000000040000000000000000200000000000004000000000000000000000000000000000000000000000004000000000000000000001000000000000000000000000000000100000000000000000000000000000000000000000000000000000000000800000000000100000",
      "type": "0x2",
      "transactionHash": "0x1d417973c12ae13eae154a78106b4a3a014fb6799098cf6ab39e710013ae4677",
      "transactionIndex": "0x67",
      "blockHash": "0x2927cfad03abc864ea7998496c54a44ee3b56294bc10b26dc95722eb36c259b3",
      "blockNumber": "0x3eefa28",
      "gasUsed": "0xb1f2",
      "effectiveGasPrice": "0x465be59e96",
      "from": "0xd89421cd5dd6d6269fbb9307535c386afe11a23e",
      "to": "0x7738267553f87b68ae9fecbfbe3293a187f18110",
      "contractAddress": null
    }
  ],
  "libraries": [],
  "pending": [],
  "returns": {},
  "timestamp": 1735320430,
  "chain": 137,
  "commit": "80c8cc8"
}