{
  "transactions": [
    {
      "hash": "0xcd261391729e5580dec2c64617e48651455a50c3d7253a64e2f183aa047c3a2a",
      "transactionType": "CALL",
      "contractName": null,
      "contractAddress": "0x3fac7cb5b45a3b59d76b6926bc704cf3cc522437",
      "function": "registerToken(address,(address,address,uint256))",
      "arguments": [
        "0xCc88D28f7d4B0D5AFACCC77F6102d88EE630fA17",
        "(0x0000000000000000000000000000000000000000, 0x4fa6148C9DAbC7A737422fb1b3AB9088c878d26C, 32769)"
      ],
      "transaction": {
        "from": "0xd89421cd5dd6d6269fbb9307535c386afe11a23e",
        "to": "0x3fac7cb5b45a3b59d76b6926bc704cf3cc522437",
        "gas": "0xd169",
        "value": "0x0",
        "input": "0x8bc76f74000000000000000000000000cc88d28f7d4b0d5afaccc77f6102d88ee630fa1700000000000000000000000000000000000000000000000000000000000000000000000000000000000000004fa6148c9dabc7a737422fb1b3ab9088c878d26c0000000000000000000000000000000000000000000000000000000000008001",
        "nonce": "0x1d",
        "chainId": "0x89"
      },
      "additionalContracts": [],
      "isFixedGasLimit": false
    },
    {
      "hash": "0x78ed11190f5ab2fc6220eeb613612d41b5be4ec2778591c44649c2eb9520358c",
      "transactionType": "CALL",
      "contractName": null,
      "contractAddress": "0x7519550ae8b6f9d32e9c1a939fb5c186f660be5b",
      "function": "registerToken(address,(address,address,uint256))",
      "arguments": [
        "0x0000000000000000000000000000000000000000",
        "(0x4345472A0c6164F35808CDb7e7eCCd3d326CC50b, 0x4fa6148C9DAbC7A737422fb1b3AB9088c878d26C, 32769)"
      ],
      "transaction": {
        "from": "0xd89421cd5dd6d6269fbb9307535c386afe11a23e",
        "to": "0x7519550ae8b6f9d32e9c1a939fb5c186f660be5b",
        "gas": "0xed9d",
        "value": "0x0",
        "input": "0x8bc76f7400000000000000000000000000000000000000000000000000000000000000000000000000000000000000004345472a0c6164f35808cdb7e7eccd3d326cc50b0000000000000000000000004fa6148c9dabc7a737422fb1b3ab9088c878d26c0000000000000000000000000000000000000000000000000000000000008001",
        "nonce": "0x1e",
        "chainId": "0x89"
      },
      "additionalContracts": [],
      "isFixedGasLimit": false
    }
  ],
  "receipts": [
    {
      "status": "0x1",
      "cumulativeGasUsed": "0x937fc7",
      "logs": [
        {
          "address": "0x3fac7cb5b45a3b59d76b6926bc704cf3cc522437",
          "topics": [
            "0xacee94c8a79111860852775471f35a102ad3dc32ff2716802bd1000ceb51f5a8",
            "0x000000000000000000000000cc88d28f7d4b0d5afaccc77f6102d88ee630fa17"
          ],
          "data": "0x00000000000000000000000000000000000000000000000000000000000000000000000000000000000000004fa6148c9dabc7a737422fb1b3ab9088c878d26c0000000000000000000000000000000000000000000000000000000000008001",
          "blockHash": "0xa5d388b07e616502837b4cb22924c4d1949a69beb24c1703a71d4e61558264c7",
          "blockNumber": "0x3ef0040",
          "transactionHash": "0xcd261391729e5580dec2c64617e48651455a50c3d7253a64e2f183aa047c3a2a",
          "transactionIndex": "0x38",
          "logIndex": "0x135",
          "removed": false
        },
        {
          "address": "0x0000000000000000000000000000000000001010",
          "topics": [
            "0x4dfe1bbbcf077ddc3e01291eea2d5c70c2b422b415d95645b9adcfd678cb1d63",
            "0x0000000000000000000000000000000000000000000000000000000000001010",
            "0x000000000000000000000000d89421cd5dd6d6269fbb9307535c386afe11a23e",
            "0x00000000000000000000000067b94473d81d0cd00849d563c94d0432ac988b49"
          ],
          "data": "0x0000000000000000000000000000000000000000000000000003ae65cfe6a26700000000000000000000000000000000000000000000000311681e0958b97f090000000000000000000000000000000000000000000007bf6b3c4a99f1ba0aec00000000000000000000000000000000000000000000000311646fa388d2dca20000000000000000000000000000000000000000000007bf6b3ff8ffc1a0ad53",
          "blockHash": "0xa5d388b07e616502837b4cb22924c4d1949a69beb24c1703a71d4e61558264c7",
          "blockNumber": "0x3ef0040",
          "transactionHash": "0xcd261391729e5580dec2c64617e48651455a50c3d7253a64e2f183aa047c3a2a",
          "transactionIndex": "0x38",
          "logIndex": "0x136",
          "removed": false
        }
      ],
      "logsBloom": "0x00000000000000000000000000000000000000000000000040000000000000000000000000000000000000080000000000008000000000000000000000000000000000000100000000000000000000800000000000000000200100000000000000000000000000000000000000000009010000000000000080000000000000000000000000100008000000000000000000000000000000000000000000000000220000000000000000000000000000000000000000000000000000000000004000800000000000000001000000008000000000000000000000100000000000000000020000000000000000000000000000000000000800800000000000100000",
      "type": "0x0",
      "transactionHash": "0xcd261391729e5580dec2c64617e48651455a50c3d7253a64e2f183aa047c3a2a",
      "transactionIndex": "0x38",
      "blockHash": "0xa5d388b07e616502837b4cb22924c4d1949a69beb24c1703a71d4e61558264c7",
      "blockNumber": "0x3ef0040",
      "gasUsed": "0x979d",
      "effectiveGasPrice": "0x1a1a0e8354",
      "from": "0xd89421cd5dd6d6269fbb9307535c386afe11a23e",
      "to": "0x3fac7cb5b45a3b59d76b6926bc704cf3cc522437",
      "contractAddress": null
    },
    {
      "status": "0x1",
      "cumulativeGasUsed": "0x942240",
      "logs": [
        {
          "address": "0x7519550ae8b6f9d32e9c1a939fb5c186f660be5b",
          "topics": [
            "0xacee94c8a79111860852775471f35a102ad3dc32ff2716802bd1000ceb51f5a8",
            "0x0000000000000000000000000000000000000000000000000000000000000000"
          ],
          "data": "0x0000000000000000000000004345472a0c6164f35808cdb7e7eccd3d326cc50b0000000000000000000000004fa6148c9dabc7a737422fb1b3ab9088c878d26c0000000000000000000000000000000000000000000000000000000000008001",
          "blockHash": "0xa5d388b07e616502837b4cb22924c4d1949a69beb24c1703a71d4e61558264c7",
          "blockNumber": "0x3ef0040",
          "transactionHash": "0x78ed11190f5ab2fc6220eeb613612d41b5be4ec2778591c44649c2eb9520358c",
          "transactionIndex": "0x39",
          "logIndex": "0x137",
          "removed": false
        },
        {
          "address": "0x0000000000000000000000000000000000001010",
          "topics": [
            "0x4dfe1bbbcf077ddc3e01291eea2d5c70c2b422b415d95645b9adcfd678cb1d63",
            "0x0000000000000000000000000000000000000000000000000000000000001010",
            "0x000000000000000000000000d89421cd5dd6d6269fbb9307535c386afe11a23e",
            "0x00000000000000000000000067b94473d81d0cd00849d563c94d0432ac988b49"
          ],
          "data": "0x0000000000000000000000000000000000000000000000000003f1e5bbd5a5bb0000000000000000000000000000000000000000000000031158a8a8ce5c68850000000000000000000000000000000000000000000007bf6b3ff8ffc1a0ad530000000000000000000000000000000000000000000000031154b6c31286c2ca0000000000000000000000000000000000000000000007bf6b43eae57d76530e",
          "blockHash": "0xa5d388b07e616502837b4cb22924c4d1949a69beb24c1703a71d4e61558264c7",
          "blockNumber": "0x3ef0040",
          "transactionHash": "0x78ed11190f5ab2fc6220eeb613612d41b5be4ec2778591c44649c2eb9520358c",
          "transactionIndex": "0x39",
          "logIndex": "0x138",
          "removed": false
        }
      ],
      "logsBloom": "0x00000000000000000000000000000000000000000000000000000000000010000000000000000000000000080000000000008000000000000000000000000000000000000100000000000000000000800000000000000000000100000000000000000000020000000000000000000800010000000000000080000000000000000000000000100000000000000000000000000000000000000000000000000000200000000000000000000000000000000000000000000000000000000000004000800000000000000001000000008000004000000000000000100000000020000000020000000000000000000000000000000000000800808000000000100000",
      "type": "0x0",
      "transactionHash": "0x78ed11190f5ab2fc6220eeb613612d41b5be4ec2778591c44649c2eb9520358c",
      "transactionIndex": "0x39",
      "blockHash": "0xa5d388b07e616502837b4cb22924c4d1949a69beb24c1703a71d4e61558264c7",
      "blockNumber": "0x3ef0040",
      "gasUsed": "0xa279",
      "effectiveGasPrice": "0x1a1a0e8354",
      "from": "0xd89421cd5dd6d6269fbb9307535c386afe11a23e",
      "to": "0x7519550ae8b6f9d32e9c1a939fb5c186f660be5b",
      "contractAddress": null
    }
  ],
  "libraries": [],
  "pending": [],
  "returns": {},
  "timestamp": 1735323978,
  "chain": 137,
  "commit": "80c8cc8"
}