{
  "transactions": [
    {
      "hash": null,
      "transactionType": "CALL",
      "contractName": null,
      "contractAddress": "0x99bcb148bec418fc66ebf7aca3668ec1c6289695",
      "function": "registerTokenWithScale(address,(address,address,uint256),int8)",
      "arguments": [
        "0x6EeB539D662bB971a4a01211c67CB7f65B09b802",
        "(0x0000000000000000000000000000000000000000, 0x4fa6148C9DAbC7A737422fb1b3AB9088c878d26C, 32769)",
        "6"
      ],
      "transaction": {
        "from": "0xd89421cd5dd6d6269fbb9307535c386afe11a23e",
        "to": "0x99bcb148bec418fc66ebf7aca3668ec1c6289695",
        "gas": "0x22f0f",
        "value": "0x0",
        "input": "0x126d5f2f0000000000000000000000006eeb539d662bb971a4a01211c67cb7f65b09b80200000000000000000000000000000000000000000000000000000000000000000000000000000000000000004fa6148c9dabc7a737422fb1b3ab9088c878d26c00000000000000000000000000000000000000000000000000000000000080010000000000000000000000000000000000000000000000000000000000000006",
        "nonce": "0x1a",
        "chainId": "0x1"
      },
      "additionalContracts": [],
      "isFixedGasLimit": false
    },
    {
      "hash": null,
      "transactionType": "CALL",
      "contractName": null,
      "contractAddress": "0x99bcb148bec418fc66ebf7aca3668ec1c6289695",
      "function": "registerToken(address,(address,address,uint256))",
      "arguments": [
        "0xA87135285Ae208e22068AcDBFf64B11Ec73EAa5A",
        "(0xE9D47623bb2B3C497668B34fcf61E101a7ea4058, 0x4fa6148C9DAbC7A737422fb1b3AB9088c878d26C, 32769)"
      ],
      "transaction": {
        "from": "0xd89421cd5dd6d6269fbb9307535c386afe11a23e",
        "to": "0x99bcb148bec418fc66ebf7aca3668ec1c6289695",
        "gas": "0x222bc",
        "value": "0x0",
        "input": "0x8bc76f74000000000000000000000000a87135285ae208e22068acdbff64b11ec73eaa5a000000000000000000000000e9d47623bb2b3c497668b34fcf61e101a7ea40580000000000000000000000004fa6148c9dabc7a737422fb1b3ab9088c878d26c0000000000000000000000000000000000000000000000000000000000008001",
        "nonce": "0x1b",
        "chainId": "0x1"
      },
      "additionalContracts": [],
      "isFixedGasLimit": false
    },
    {
      "hash": null,
      "transactionType": "CALL",
      "contractName": null,
      "contractAddress": "0x99bcb148bec418fc66ebf7aca3668ec1c6289695",
      "function": "registerToken(address,(address,address,uint256))",
      "arguments": [
        "0xBd636FFfbF349A4479db315c585E823164cF58F0",
        "(0xa0A5795e7eccc43Ba92d2A0b7804696F8B9e1a05, 0x4fa6148C9DAbC7A737422fb1b3AB9088c878d26C, 32769)"
      ],
      "transaction": {
        "from": "0xd89421cd5dd6d6269fbb9307535c386afe11a23e",
        "to": "0x99bcb148bec418fc66ebf7aca3668ec1c6289695",
        "gas": "0x222bc",
        "value": "0x0",
        "input": "0x8bc76f74000000000000000000000000bd636fffbf349a4479db315c585e823164cf58f0000000000000000000000000a0a5795e7eccc43ba92d2a0b7804696f8b9e1a050000000000000000000000004fa6148c9dabc7a737422fb1b3ab9088c878d26c0000000000000000000000000000000000000000000000000000000000008001",
        "nonce": "0x1c",
        "chainId": "0x1"
      },
      "additionalContracts": [],
      "isFixedGasLimit": false
    },
    {
      "hash": null,
      "transactionType": "CALL",
      "contractName": null,
      "contractAddress": "0x99bcb148bec418fc66ebf7aca3668ec1c6289695",
      "function": "registerToken(address,(address,address,uint256))",
      "arguments": [
        "0x0c7c5b92893A522952EB4c939aA24B65FF910C48",
        "(0x1202078D298Ff0358A95b6fbf48Ec166dB414660, 0x4fa6148C9DAbC7A737422fb1b3AB9088c878d26C, 32769)"
      ],
      "transaction": {
        "from": "0xd89421cd5dd6d6269fbb9307535c386afe11a23e",
        "to": "0x99bcb148bec418fc66ebf7aca3668ec1c6289695",
        "gas": "0x222bc",
        "value": "0x0",
        "input": "0x8bc76f740000000000000000000000000c7c5b92893a522952eb4c939aa24b65ff910c480000000000000000000000001202078d298ff0358a95b6fbf48ec166db4146600000000000000000000000004fa6148c9dabc7a737422fb1b3ab9088c878d26c0000000000000000000000000000000000000000000000000000000000008001",
        "nonce": "0x1d",
        "chainId": "0x1"
      },
      "additionalContracts": [],
      "isFixedGasLimit": false
    },
    {
      "hash": null,
      "transactionType": "CALL",
      "contractName": null,
      "contractAddress": "0x99bcb148bec418fc66ebf7aca3668ec1c6289695",
      "function": "registerToken(address,(address,address,uint256))",
      "arguments": [
        "0xf7030C3f43b85874ae12B57F44cd682196568b47",
        "(0xc99ECB82a27B45592eA02ACe9e3C42050f3c00C0, 0x4fa6148C9DAbC7A737422fb1b3AB9088c878d26C, 32769)"
      ],
      "transaction": {
        "from": "0xd89421cd5dd6d6269fbb9307535c386afe11a23e",
        "to": "0x99bcb148bec418fc66ebf7aca3668ec1c6289695",
        "gas": "0x222ab",
        "value": "0x0",
        "input": "0x8bc76f74000000000000000000000000f7030c3f43b85874ae12b57f44cd682196568b47000000000000000000000000c99ecb82a27b45592ea02ace9e3c42050f3c00c00000000000000000000000004fa6148c9dabc7a737422fb1b3ab9088c878d26c0000000000000000000000000000000000000000000000000000000000008001",
        "nonce": "0x1e",
        "chainId": "0x1"
      },
      "additionalContracts": [],
      "isFixedGasLimit": false
    },
    {
      "hash": null,
      "transactionType": "CALL",
      "contractName": null,
      "contractAddress": "0x2ee8e8d7c113bb7c180f4755f06ed50be53bede5",
      "function": "registerToken(address,(address,address,uint256))",
      "arguments": [
        "0x7659CE147D0e714454073a5dd7003544234b6Aa0",
        "(0xCcF3Ea256d42Aeef0EE0e39Bfc94bAa9Fa14b0Ba, 0x4fa6148C9DAbC7A737422fb1b3AB9088c878d26C, 32769)"
      ],
      "transaction": {
        "from": "0xd89421cd5dd6d6269fbb9307535c386afe11a23e",
        "to": "0x2ee8e8d7c113bb7c180f4755f06ed50be53bede5",
        "gas": "0x242b4",
        "value": "0x0",
        "input": "0x8bc76f740000000000000000000000007659ce147d0e714454073a5dd7003544234b6aa0000000000000000000000000ccf3ea256d42aeef0ee0e39bfc94baa9fa14b0ba0000000000000000000000004fa6148c9dabc7a737422fb1b3ab9088c878d26c0000000000000000000000000000000000000000000000000000000000008001",
        "nonce": "0x1f",
        "chainId": "0x1"
      },
      "additionalContracts": [],
      "isFixedGasLimit": false
    },
    {
      "hash": null,
      "transactionType": "CALL",
      "contractName": null,
      "contractAddress": "0x2ee8e8d7c113bb7c180f4755f06ed50be53bede5",
      "function": "registerToken(address,(address,address,uint256))",
      "arguments": [
        "0x80D55c03180349Fff4a229102F62328220A96444",
        "(0x17D5af5658A24bd964984b36d28e879a8626adC3, 0x4fa6148C9DAbC7A737422fb1b3AB9088c878d26C, 32769)"
      ],
      "transaction": {
        "from": "0xd89421cd5dd6d6269fbb9307535c386afe11a23e",
        "to": "0x2ee8e8d7c113bb7c180f4755f06ed50be53bede5",
        "gas": "0x2229d",
        "value": "0x0",
        "input": "0x8bc76f7400000000000000000000000080d55c03180349fff4a229102f62328220a9644400000000000000000000000017d5af5658a24bd964984b36d28e879a8626adc30000000000000000000000004fa6148c9dabc7a737422fb1b3ab9088c878d26c0000000000000000000000000000000000000000000000000000000000008001",
        "nonce": "0x20",
        "chainId": "0x1"
      },
      "additionalContracts": [],
      "isFixedGasLimit": false
    },
    {
      "hash": null,
      "transactionType": "CALL",
      "contractName": null,
      "contractAddress": "0x2ee8e8d7c113bb7c180f4755f06ed50be53bede5",
      "function": "registerToken(address,(address,address,uint256))",
      "arguments": [
        "0x0000000000000000000000000000000000000000",
        "(0x17D5af5658A24bd964984b36d28e879a8626adC3, 0x4fa6148C9DAbC7A737422fb1b3AB9088c878d26C, 32769)"
      ],
      "transaction": {
        "from": "0xd89421cd5dd6d6269fbb9307535c386afe11a23e",
        "to": "0x2ee8e8d7c113bb7c180f4755f06ed50be53bede5",
        "gas": "0x22151",
        "value": "0x0",
        "input": "0x8bc76f74000000000000000000000000000000000000000000000000000000000000000000000000000000000000000017d5af5658a24bd964984b36d28e879a8626adc30000000000000000000000004fa6148c9dabc7a737422fb1b3ab9088c878d26c0000000000000000000000000000000000000000000000000000000000008001",
        "nonce": "0x21",
        "chainId": "0x1"
      },
      "additionalContracts": [],
      "isFixedGasLimit": false
    },
    {
      "hash": null,
      "transactionType": "CALL",
      "contractName": null,
      "contractAddress": "0x2ee8e8d7c113bb7c180f4755f06ed50be53bede5",
      "function": "registerToken(address,(address,address,uint256))",
      "arguments": [
        "0x4674a4F24C5f63D53F22490Fb3A08eAAAD739ff8",
        "(0xD819257C964A78A493DF93D5643E9490b54C5af2, 0x4fa6148C9DAbC7A737422fb1b3AB9088c878d26C, 32769)"
      ],
      "transaction": {
        "from": "0xd89421cd5dd6d6269fbb9307535c386afe11a23e",
        "to": "0x2ee8e8d7c113bb7c180f4755f06ed50be53bede5",
        "gas": "0x2229d",
        "value": "0x0",
        "input": "0x8bc76f740000000000000000000000004674a4f24c5f63d53f22490fb3a08eaaad739ff8000000000000000000000000d819257c964a78a493df93d5643e9490b54c5af20000000000000000000000004fa6148c9dabc7a737422fb1b3ab9088c878d26c0000000000000000000000000000000000000000000000000000000000008001",
        "nonce": "0x22",
        "chainId": "0x1"
      },
      "additionalContracts": [],
      "isFixedGasLimit": false
    },
    {
      "hash": null,
      "transactionType": "CALL",
      "contractName": null,
      "contractAddress": "0x2ee8e8d7c113bb7c180f4755f06ed50be53bede5",
      "function": "registerToken(address,(address,address,uint256))",
      "arguments": [
        "0x2260FAC5E5542a773Aa44fBCfeDf7C193bc2C599",
        "(0x2938fF251Aecc1dfa768D7d0276eB6d073690317, 0x4fa6148C9DAbC7A737422fb1b3AB9088c878d26C, 32769)"
      ],
      "transaction": {
        "from": "0xd89421cd5dd6d6269fbb9307535c386afe11a23e",
        "to": "0x2ee8e8d7c113bb7c180f4755f06ed50be53bede5",
        "gas": "0x2229d",
        "value": "0x0",
        "input": "0x8bc76f740000000000000000000000002260fac5e5542a773aa44fbcfedf7c193bc2c5990000000000000000000000002938ff251aecc1dfa768d7d0276eb6d0736903170000000000000000000000004fa6148c9dabc7a737422fb1b3ab9088c878d26c0000000000000000000000000000000000000000000000000000000000008001",
        "nonce": "0x23",
        "chainId": "0x1"
      },
      "additionalContracts": [],
      "isFixedGasLimit": false
    },
    {
      "hash": null,
      "transactionType": "CALL",
      "contractName": null,
      "contractAddress": "0x2ee8e8d7c113bb7c180f4755f06ed50be53bede5",
      "function": "registerToken(address,(address,address,uint256))",
      "arguments": [
        "0xdAC17F958D2ee523a2206206994597C13D831ec7",
        "(0x2274005778063684fbB1BfA96a2b725dC37D75f9, 0x4fa6148C9DAbC7A737422fb1b3AB9088c878d26C, 32769)"
      ],
      "transaction": {
        "from": "0xd89421cd5dd6d6269fbb9307535c386afe11a23e",
        "to": "0x2ee8e8d7c113bb7c180f4755f06ed50be53bede5",
        "gas": "0x242b4",
        "value": "0x0",
        "input": "0x8bc76f74000000000000000000000000dac17f958d2ee523a2206206994597c13d831ec70000000000000000000000002274005778063684fbb1bfa96a2b725dc37d75f90000000000000000000000004fa6148c9dabc7a737422fb1b3ab9088c878d26c0000000000000000000000000000000000000000000000000000000000008001",
        "nonce": "0x24",
        "chainId": "0x1"
      },
      "additionalContracts": [],
      "isFixedGasLimit": false
    },
    {
      "hash": null,
      "transactionType": "CALL",
      "contractName": null,
      "contractAddress": "0x2ee8e8d7c113bb7c180f4755f06ed50be53bede5",
      "function": "registerToken(address,(address,address,uint256))",
      "arguments": [
        "0xD43Be54C1aedf7Ee4099104f2DaE4eA88B18A249",
        "(0x9121A67cA79B6778eAb477c5F76dF6de7C79cC4b, 0x4fa6148C9DAbC7A737422fb1b3AB9088c878d26C, 32769)"
      ],
      "transaction": {
        "from": "0xd89421cd5dd6d6269fbb9307535c386afe11a23e",
        "to": "0x2ee8e8d7c113bb7c180f4755f06ed50be53bede5",
        "gas": "0x2229d",
        "value": "0x0",
        "input": "0x8bc76f74000000000000000000000000d43be54c1aedf7ee4099104f2dae4ea88b18a2490000000000000000000000009121a67ca79b6778eab477c5f76df6de7c79cc4b0000000000000000000000004fa6148c9dabc7a737422fb1b3ab9088c878d26c0000000000000000000000000000000000000000000000000000000000008001",
        "nonce": "0x25",
        "chainId": "0x1"
      },
      "additionalContracts": [],
      "isFixedGasLimit": false
    }
  ],
  "receipts": [],
  "libraries": [],
  "pending": [],
  "returns": {},
  "timestamp": 1736611319,
  "chain": 1,
  "commit": "5aa1251"
}