{
  "transactions": [
    {
      "hash": "0xbf1f23d5c99e2e8ca4d3747bfb701fadd919c35145d0aa218d911731d6d65c3a",
      "transactionType": "CALL",
      "contractName": null,
      "contractAddress": "0x6d61efb60c17979816e4ce12cd5d29054e755948",
      "function": "registerToken(address,(address,address,uint256))",
      "arguments": [
        "0x63B991C17010C21250a0eA58C6697F696a48cdf3",
        "(0xfBfd50DB16B3a72db010641EE008A275ef2456ae, 0x5E734196B1fa96710A9e64ed9224dD4830d2A5EE, 8453)"
      ],
      "transaction": {
        "from": "0xd89421cd5dd6d6269fbb9307535c386afe11a23e",
        "to": "0x6d61efb60c17979816e4ce12cd5d29054e755948",
        "gas": "0x23458",
        "value": "0x0",
        "input": "0x8bc76f7400000000000000000000000063b991c17010c21250a0ea58c6697f696a48cdf3000000000000000000000000fbfd50db16b3a72db010641ee008a275ef2456ae0000000000000000000000005e734196b1fa96710a9e64ed9224dd4830d2a5ee0000000000000000000000000000000000000000000000000000000000002105",
        "nonce": "0x90",
        "chainId": "0x8001"
      },
      "additionalContracts": [],
      "isFixedGasLimit": false
    },
    {
      "hash": "0x8205c58d5e8e0809dd96c4b3c289c8bf7ab226bba4decd6e07e8257cfb56a16c",
      "transactionType": "CALL",
      "contractName": null,
      "contractAddress": "0x4fa6148c9dabc7a737422fb1b3ab9088c878d26c",
      "function": "removeToken(address,uint256)",
      "arguments": [
        "0xfBfd50DB16B3a72db010641EE008A275ef2456ae",
        "8453"
      ],
      "transaction": {
        "from": "0xd89421cd5dd6d6269fbb9307535c386afe11a23e",
        "to": "0x4fa6148c9dabc7a737422fb1b3ab9088c878d26c",
        "gas": "0xd4bb",
        "value": "0x0",
        "input": "0x13baf1e6000000000000000000000000fbfd50db16b3a72db010641ee008a275ef2456ae0000000000000000000000000000000000000000000000000000000000002105",
        "nonce": "0x91",
        "chainId": "0x8001"
      },
      "additionalContracts": [],
      "isFixedGasLimit": false
    }
  ],
  "receipts": [
    {
      "status": "0x1",
      "cumulativeGasUsed": "0x17ca0",
      "logs": [
        {
          "address": "0x6d61efb60c17979816e4ce12cd5d29054e755948",
          "topics": [
            "0xacee94c8a79111860852775471f35a102ad3dc32ff2716802bd1000ceb51f5a8",
            "0x00000000000000000000000063b991c17010c21250a0ea58c6697f696a48cdf3"
          ],
          "data": "0x000000000000000000000000fbfd50db16b3a72db010641ee008a275ef2456ae0000000000000000000000005e734196b1fa96710a9e64ed9224dd4830d2a5ee0000000000000000000000000000000000000000000000000000000000002105",
          "blockHash": "0x68d36d36d2e834ca52d474c66518a191edae21f7de23c07b022c8e48d6534eea",
          "blockNumber": "0x433772",
          "transactionHash": "0xbf1f23d5c99e2e8ca4d3747bfb701fadd919c35145d0aa218d911731d6d65c3a",
          "transactionIndex": "0x1",
          "logIndex": "0x0",
          "removed": false
        }
      ],
      "logsBloom": "0x00000000000000000001000000000000000000000000000000000000000000000000000000000000000000000000000000000000000000000000000000000080000000000000000000000000000000000000000000000000000000000000000000000000000000000000000000000000010000000000000000000000000000001000000000100000004000000000000000800000000000000000000000000000000000000000000000000020000000000000000000000000000000000000000000000000000000000000000000000000000000000000000000000000000000000000000000000000000000000000000000000000000800000000000000000000",
      "type": "0x0",
      "transactionHash": "0xbf1f23d5c99e2e8ca4d3747bfb701fadd919c35145d0aa218d911731d6d65c3a",
      "transactionIndex": "0x1",
      "blockHash": "0x68d36d36d2e834ca52d474c66518a191edae21f7de23c07b022c8e48d6534eea",
      "blockNumber": "0x433772",
      "gasUsed": "0x17ca0",
      "effectiveGasPrice": "0x454b7b38e70",
      "from": "0xd89421cd5dd6d6269fbb9307535c386afe11a23e",
      "to": "0x6d61efb60c17979816e4ce12cd5d29054e755948",
      "contractAddress": null,
      "r": "0x348955448D21498708E9374B9354AF607F5E22C489707C6C2BED02BB796ABC3D",
      "root": "0x0000000000000000000000000000000000000000000000000000000000001010",
      "s": "0x3F0AA02E4DFE9188DBB044684813F6B30F46484E4CFB6633463226B3F8305873",
      "v": "0x10025"
    },
    {
      "status": "0x1",
      "cumulativeGasUsed": "0x96f0",
      "logs": [
        {
          "address": "0x4fa6148c9dabc7a737422fb1b3ab9088c878d26c",
          "topics": [
            "0xbe9bb4bdca0a094babd75e3a98b1d2e2390633430d0a2f6e2b9970e2ee03fb2e"
          ],
          "data": "0x000000000000000000000000fbfd50db16b3a72db010641ee008a275ef2456ae0000000000000000000000000000000000000000000000000000000000002105",
          "blockHash": "0x68d36d36d2e834ca52d474c66518a191edae21f7de23c07b022c8e48d6534eea",
          "blockNumber": "0x433772",
          "transactionHash": "0x8205c58d5e8e0809dd96c4b3c289c8bf7ab226bba4decd6e07e8257cfb56a16c",
          "transactionIndex": "0x2",
          "logIndex": "0x2",
          "removed": false
        }
      ],
      "logsBloom": "0x00000000000000000000000000000000000000000000000000000000000000000000010000000000000000000000000000000000000000000000000000000800000000000000000000000000000000000000000000000000000000000000000800000000000000000000000000000000000000000000000000000000000000000000000000000000000000000002000000000000000000000000000000000000000000000000000000000000000000000000000000000000000000000000000000000000000000000000000000000000000000000000000000400000000000000000000000000000000000000000000000000000040000000000000000000000",
      "type": "0x0",
      "transactionHash": "0x8205c58d5e8e0809dd96c4b3c289c8bf7ab226bba4decd6e07e8257cfb56a16c",
      "transactionIndex": "0x2",
      "blockHash": "0x68d36d36d2e834ca52d474c66518a191edae21f7de23c07b022c8e48d6534eea",
      "blockNumber": "0x433772",
      "gasUsed": "0x96f0",
      "effectiveGasPrice": "0x454b7b38e70",
      "from": "0xd89421cd5dd6d6269fbb9307535c386afe11a23e",
      "to": "0x4fa6148c9dabc7a737422fb1b3ab9088c878d26c",
      "contractAddress": null,
      "r": "0xBCB3D102336C5A36D4429DF52590BEE68FE05F361F31B70457063914C0442E42",
      "root": "0x0000000000000000000000000000000000000000000000000000000000001010",
      "s": "0x7DCABA335DDECECC0D334C4A72916127B8CC84C7D15C363578E4C921D9CDCFD4",
      "v": "0x10025"
    }
  ],
  "libraries": [],
  "pending": [],
  "returns": {},
  "timestamp": 1737719932,
  "chain": 32769,
  "commit": "b05cfaa"
}