{
  "transactions": [
    {
      "hash": "0xcb8d1876d4b8c9e6bc5baacb17aedd6bda6715990b6824eb5193d01b3e19fb19",
      "transactionType": "CALL",
      "contractName": null,
      "contractAddress": "0x3fac7cb5b45a3b59d76b6926bc704cf3cc522437",
      "function": "setLockProxyData(address,address)",
      "arguments": [
        "0x43138036d1283413035B8eca403559737E8f7980",
        "0x9121A67cA79B6778eAb477c5F76dF6de7C79cC4b"
      ],
      "transaction": {
        "from": "0xd89421cd5dd6d6269fbb9307535c386afe11a23e",
        "to": "0x3fac7cb5b45a3b59d76b6926bc704cf3cc522437",
        "gas": "0x1978b",
        "value": "0x0",
        "input": "0x766a1b7b00000000000000000000000043138036d1283413035b8eca403559737e8f79800000000000000000000000009121a67ca79b6778eab477c5f76df6de7c79cc4b",
        "nonce": "0x13",
        "chainId": "0x89"
      },
      "additionalContracts": [],
      "isFixedGasLimit": false
    },
    {
      "hash": "0x70d2d9b9deb11f67895a1d8bf4913bb3b47e275129b07e2409a92ea51be11117",
      "transactionType": "CALL",
      "contractName": null,
      "contractAddress": "0x796d796f28b3db5287e560ddf75bc9b00f0cd609",
      "function": "register(address)",
      "arguments": [
        "0x3faC7cb5b45A3B59d76b6926bc704Cf3cc522437"
      ],
      "transaction": {
        "from": "0xd89421cd5dd6d6269fbb9307535c386afe11a23e",
        "to": "0x796d796f28b3db5287e560ddf75bc9b00f0cd609",
        "gas": "0x11897",
        "value": "0x0",
        "input": "0x4420e4860000000000000000000000003fac7cb5b45a3b59d76b6926bc704cf3cc522437",
        "nonce": "0x14",
        "chainId": "0x89"
      },
      "additionalContracts": [],
      "isFixedGasLimit": false
    },
    {
      "hash": "0xaf851dfc3e6a530c7fb4f41bbec19d65ff2729a899cd071a94f94f4edfc0d431",
      "transactionType": "CALL",
      "contractName": null,
      "contractAddress": "0x796d796f28b3db5287e560ddf75bc9b00f0cd609",
      "function": "register(address)",
      "arguments": [
        "0x7519550ae8b6f9d32E9c1A939Fb5C186f660BE5b"
      ],
      "transaction": {
        "from": "0xd89421cd5dd6d6269fbb9307535c386afe11a23e",
        "to": "0x796d796f28b3db5287e560ddf75bc9b00f0cd609",
        "gas": "0x11897",
        "value": "0x0",
        "input": "0x4420e4860000000000000000000000007519550ae8b6f9d32e9c1a939fb5c186f660be5b",
        "nonce": "0x15",
        "chainId": "0x89"
      },
      "additionalContracts": [],
      "isFixedGasLimit": false
    }
  ],
  "receipts": [
    {
      "status": "0x1",
      "cumulativeGasUsed": "0xc97963",
      "logs": [
        {
          "address": "0x3fac7cb5b45a3b59d76b6926bc704cf3cc522437",
          "topics": [
            "0x90ca77ab15009de2392c35890c8e7fb753565ab9e96a342289aa32fcf433f35a"
          ],
          "data": "0x000000000000000000000000000000000000000000000000000000000000000000000000000000000000000043138036d1283413035b8eca403559737e8f798000000000000000000000000000000000000000000000000000000000000000000000000000000000000000009121a67ca79b6778eab477c5f76df6de7c79cc4b",
          "blockHash": "0x6bb84211e21cdd15d9a5f65c7b1d8c774ad7c33022ce7e39d6dd217d64a7a71f",
          "blockNumber": "0x3ead51e",
          "transactionHash": "0xcb8d1876d4b8c9e6bc5baacb17aedd6bda6715990b6824eb5193d01b3e19fb19",
          "transactionIndex": "0x55",
          "logIndex": "0x1ff",
          "removed": false
        },
        {
          "address": "0x0000000000000000000000000000000000001010",
          "topics": [
            "0x4dfe1bbbcf077ddc3e01291eea2d5c70c2b422b415d95645b9adcfd678cb1d63",
            "0x0000000000000000000000000000000000000000000000000000000000001010",
            "0x000000000000000000000000d89421cd5dd6d6269fbb9307535c386afe11a23e",
            "0x000000000000000000000000794e44d1334a56fea7f4df12633b88820d0c5888"
          ],
          "data": "0x000000000000000000000000000000000000000000000000000b5914f00e3c6000000000000000000000000000000000000000000000000661dd80b2c32fc3380000000000000000000000000000000000000000000009b70f8ce74209059e1100000000000000000000000000000000000000000000000661d2279dd32186d80000000000000000000000000000000000000000000009b70f984056f913da71",
          "blockHash": "0x6bb84211e21cdd15d9a5f65c7b1d8c774ad7c33022ce7e39d6dd217d64a7a71f",
          "blockNumber": "0x3ead51e",
          "transactionHash": "0xcb8d1876d4b8c9e6bc5baacb17aedd6bda6715990b6824eb5193d01b3e19fb19",
          "transactionIndex": "0x55",
          "logIndex": "0x200",
          "removed": false
        }
      ],
      "logsBloom": "0x00000000000000000000000000000000000000000000000040000000000000000000000000001000000000080000000000008000000000000000000000000000000000000100000000000000000001800000000000000000200100022000000000000000000000000000000000000008000000000000000080000000000000000000000000000000000000000000000000000000008000000000000000000000200000000000000000000000000000000000000000000000000000000000004000000000000000000001000000000000000000000000000000100000000000000000000000000000000000000000000000000000000000800000000020100000",
      "type": "0x2",
      "transactionHash": "0xcb8d1876d4b8c9e6bc5baacb17aedd6bda6715990b6824eb5193d01b3e19fb19",
      "transactionIndex": "0x55",
      "blockHash": "0x6bb84211e21cdd15d9a5f65c7b1d8c774ad7c33022ce7e39d6dd217d64a7a71f",
      "blockNumber": "0x3ead51e",
      "gasUsed": "0x1270f",
      "effectiveGasPrice": "0x33a9167abb",
      "from": "0xd89421cd5dd6d6269fbb9307535c386afe11a23e",
      "to": "0x3fac7cb5b45a3b59d76b6926bc704cf3cc522437",
      "contractAddress": null
    },
    {
      "status": "0x1",
      "cumulativeGasUsed": "0xca4488",
      "logs": [
        {
          "address": "0x796d796f28b3db5287e560ddf75bc9b00f0cd609",
          "topics": [
            "0xc25d1d022102ce7b344c33d14de2893a248fabd34bb630dc982e2fbc20f29543"
          ],
          "data": "0x0000000000000000000000003fac7cb5b45a3b59d76b6926bc704cf3cc522437",
          "blockHash": "0x6bb84211e21cdd15d9a5f65c7b1d8c774ad7c33022ce7e39d6dd217d64a7a71f",
          "blockNumber": "0x3ead51e",
          "transactionHash": "0x70d2d9b9deb11f67895a1d8bf4913bb3b47e275129b07e2409a92ea51be11117",
          "transactionIndex": "0x56",
          "logIndex": "0x201",
          "removed": false
        },
        {
          "address": "0x0000000000000000000000000000000000001010",
          "topics": [
            "0x4dfe1bbbcf077ddc3e01291eea2d5c70c2b422b415d95645b9adcfd678cb1d63",
            "0x0000000000000000000000000000000000000000000000000000000000001010",
            "0x000000000000000000000000d89421cd5dd6d6269fbb9307535c386afe11a23e",
            "0x000000000000000000000000794e44d1334a56fea7f4df12633b88820d0c5888"
          ],
          "data": "0x0000000000000000000000000000000000000000000000000007d01dc056882000000000000000000000000000000000000000000000000661a1f5d2f37115430000000000000000000000000000000000000000000009b70f984056f913da71000000000000000000000000000000000000000000000006619a25b5331a8d230000000000000000000000000000000000000000000009b70fa01074b96a6291",
          "blockHash": "0x6bb84211e21cdd15d9a5f65c7b1d8c774ad7c33022ce7e39d6dd217d64a7a71f",
          "blockNumber": "0x3ead51e",
          "transactionHash": "0x70d2d9b9deb11f67895a1d8bf4913bb3b47e275129b07e2409a92ea51be11117",
          "transactionIndex": "0x56",
          "logIndex": "0x202",
          "removed": false
        }
      ],
      "logsBloom": "0x00000020000000000000000000000000000000000000000000000000000000000000000000001000000000080000000000008000000000000000000000000000000000000100000000000000000000800000000000000000000100020000000000000000000000000000000000000001000000000000000080000000000000000000000000000000000000000000000000000000000000000000000000000000200000000100000000008000000000000000000000000000400000000000004000002000000000000001000000000000000000000000000000100000000000000000000000000000000000000000000000000000000000800000000020100000",
      "type": "0x2",
      "transactionHash": "0x70d2d9b9deb11f67895a1d8bf4913bb3b47e275129b07e2409a92ea51be11117",
      "transactionIndex": "0x56",
      "blockHash": "0x6bb84211e21cdd15d9a5f65c7b1d8c774ad7c33022ce7e39d6dd217d64a7a71f",
      "blockNumber": "0x3ead51e",
      "gasUsed": "0xcb25",
      "effectiveGasPrice": "0x33a9167abb",
      "from": "0xd89421cd5dd6d6269fbb9307535c386afe11a23e",
      "to": "0x796d796f28b3db5287e560ddf75bc9b00f0cd609",
      "contractAddress": null
    },
    {
      "status": "0x1",
      "cumulativeGasUsed": "0xcb0fad",
      "logs": [
        {
          "address": "0x796d796f28b3db5287e560ddf75bc9b00f0cd609",
          "topics": [
            "0xc25d1d022102ce7b344c33d14de2893a248fabd34bb630dc982e2fbc20f29543"
          ],
          "data": "0x0000000000000000000000007519550ae8b6f9d32e9c1a939fb5c186f660be5b",
          "blockHash": "0x6bb84211e21cdd15d9a5f65c7b1d8c774ad7c33022ce7e39d6dd217d64a7a71f",
          "blockNumber": "0x3ead51e",
          "transactionHash": "0xaf851dfc3e6a530c7fb4f41bbec19d65ff2729a899cd071a94f94f4edfc0d431",
          "transactionIndex": "0x57",
          "logIndex": "0x203",
          "removed": false
        },
        {
          "address": "0x0000000000000000000000000000000000001010",
          "topics": [
            "0x4dfe1bbbcf077ddc3e01291eea2d5c70c2b422b415d95645b9adcfd678cb1d63",
            "0x0000000000000000000000000000000000000000000000000000000000001010",
            "0x000000000000000000000000d89421cd5dd6d6269fbb9307535c386afe11a23e",
            "0x000000000000000000000000794e44d1334a56fea7f4df12633b88820d0c5888"
          ],
          "data": "0x0000000000000000000000000000000000000000000000000007d01dc05688200000000000000000000000000000000000000000000000066178f746afdf0f3c0000000000000000000000000000000000000000000009b70fa01074b96a629100000000000000000000000000000000000000000000000661712728ef88871c0000000000000000000000000000000000000000000009b70fa7e09279c0eab1",
          "blockHash": "0x6bb84211e21cdd15d9a5f65c7b1d8c774ad7c33022ce7e39d6dd217d64a7a71f",
          "blockNumber": "0x3ead51e",
          "transactionHash": "0xaf851dfc3e6a530c7fb4f41bbec19d65ff2729a899cd071a94f94f4edfc0d431",
          "transactionIndex": "0x57",
          "logIndex": "0x204",
          "removed": false
        }
      ],
      "logsBloom": "0x00000020000000000000000000000000000000000000000000000000000000000000000000001000000000080000000000008000000000000000000000000000000000000100000000000000000000800000000000000000000100020000000000000000000000000000000000000001000000000000000080000000000000000000000000000000000000000000000000000000000000000000000000000000200000000100000000008000000000000000000000000000400000000000004000002000000000000001000000000000000000000000000000100000000000000000000000000000000000000000000000000000000000800000000020100000",
      "type": "0x2",
      "transactionHash": "0xaf851dfc3e6a530c7fb4f41bbec19d65ff2729a899cd071a94f94f4edfc0d431",
      "transactionIndex": "0x57",
      "blockHash": "0x6bb84211e21cdd15d9a5f65c7b1d8c774ad7c33022ce7e39d6dd217d64a7a71f",
      "blockNumber": "0x3ead51e",
      "gasUsed": "0xcb25",
      "effectiveGasPrice": "0x33a9167abb",
      "from": "0xd89421cd5dd6d6269fbb9307535c386afe11a23e",
      "to": "0x796d796f28b3db5287e560ddf75bc9b00f0cd609",
      "contractAddress": null
    }
  ],
  "libraries": [],
  "pending": [],
  "returns": {},
  "timestamp": 1734717762,
  "chain": 137,
  "commit": "028da62"
}