{
  "transactions": [
    {
      "hash": "0xf8e0b8f84cec800ad54494fd91493e58f6b2377dd5923815749100051847e946",
      "transactionType": "CALL",
      "contractName": null,
      "contractAddress": "0x99bcb148bec418fc66ebf7aca3668ec1c6289695",
      "function": "registerTokenWithScale(address,(address,address,uint256),int8)",
      "arguments": [
        "0x6EeB539D662bB971a4a01211c67CB7f65B09b802",
        "(0x0000000000000000000000000000000000000000, 0x4fa6148C9DAbC7A737422fb1b3AB9088c878d26C, 32769)",
        "6"
      ],
      "transaction": {
        "from": "0xd89421cd5dd6d6269fbb9307535c386afe11a23e",
        "to": "0x99bcb148bec418fc66ebf7aca3668ec1c6289695",
        "gas": "0x22f0f",
        "value": "0x0",
        "input": "0x126d5f2f0000000000000000000000006eeb539d662bb971a4a01211c67cb7f65b09b80200000000000000000000000000000000000000000000000000000000000000000000000000000000000000004fa6148c9dabc7a737422fb1b3ab9088c878d26c00000000000000000000000000000000000000000000000000000000000080010000000000000000000000000000000000000000000000000000000000000006",
        "nonce": "0x1a",
        "chainId": "0x1"
      },
      "additionalContracts": [],
      "isFixedGasLimit": false
    },
    {
      "hash": "0x08097ad5e1a68dea26db3fadbe6d923d8a99b4fc890be0531fced59c007a94e8",
      "transactionType": "CALL",
      "contractName": null,
      "contractAddress": "0x99bcb148bec418fc66ebf7aca3668ec1c6289695",
      "function": "registerToken(address,(address,address,uint256))",
      "arguments": [
        "0xA87135285Ae208e22068AcDBFf64B11Ec73EAa5A",
        "(0xE9D47623bb2B3C497668B34fcf61E101a7ea4058, 0x4fa6148C9DAbC7A737422fb1b3AB9088c878d26C, 32769)"
      ],
      "transaction": {
        "from": "0xd89421cd5dd6d6269fbb9307535c386afe11a23e",
        "to": "0x99bcb148bec418fc66ebf7aca3668ec1c6289695",
        "gas": "0x222bc",
        "value": "0x0",
        "input": "0x8bc76f74000000000000000000000000a87135285ae208e22068acdbff64b11ec73eaa5a000000000000000000000000e9d47623bb2b3c497668b34fcf61e101a7ea40580000000000000000000000004fa6148c9dabc7a737422fb1b3ab9088c878d26c0000000000000000000000000000000000000000000000000000000000008001",
        "nonce": "0x1b",
        "chainId": "0x1"
      },
      "additionalContracts": [],
      "isFixedGasLimit": false
    },
    {
      "hash": "0xd1a92abc5a8ee89fbb0552718e3a88f8ec3cdbdcfcfa5290ecea45ac6e3f9fe0",
      "transactionType": "CALL",
      "contractName": null,
      "contractAddress": "0x99bcb148bec418fc66ebf7aca3668ec1c6289695",
      "function": "registerToken(address,(address,address,uint256))",
      "arguments": [
        "0xBd636FFfbF349A4479db315c585E823164cF58F0",
        "(0xa0A5795e7eccc43Ba92d2A0b7804696F8B9e1a05, 0x4fa6148C9DAbC7A737422fb1b3AB9088c878d26C, 32769)"
      ],
      "transaction": {
        "from": "0xd89421cd5dd6d6269fbb9307535c386afe11a23e",
        "to": "0x99bcb148bec418fc66ebf7aca3668ec1c6289695",
        "gas": "0x222bc",
        "value": "0x0",
        "input": "0x8bc76f74000000000000000000000000bd636fffbf349a4479db315c585e823164cf58f0000000000000000000000000a0a5795e7eccc43ba92d2a0b7804696f8b9e1a050000000000000000000000004fa6148c9dabc7a737422fb1b3ab9088c878d26c0000000000000000000000000000000000000000000000000000000000008001",
        "nonce": "0x1c",
        "chainId": "0x1"
      },
      "additionalContracts": [],
      "isFixedGasLimit": false
    },
    {
      "hash": "0xf3464ab9f4631b926f74cac731cb42fc0980cd6368a8795d145f0a149ab3e01a",
      "transactionType": "CALL",
      "contractName": null,
      "contractAddress": "0x99bcb148bec418fc66ebf7aca3668ec1c6289695",
      "function": "registerToken(address,(address,address,uint256))",
      "arguments": [
        "0x0c7c5b92893A522952EB4c939aA24B65FF910C48",
        "(0x1202078D298Ff0358A95b6fbf48Ec166dB414660, 0x4fa6148C9DAbC7A737422fb1b3AB9088c878d26C, 32769)"
      ],
      "transaction": {
        "from": "0xd89421cd5dd6d6269fbb9307535c386afe11a23e",
        "to": "0x99bcb148bec418fc66ebf7aca3668ec1c6289695",
        "gas": "0x222bc",
        "value": "0x0",
        "input": "0x8bc76f740000000000000000000000000c7c5b92893a522952eb4c939aa24b65ff910c480000000000000000000000001202078d298ff0358a95b6fbf48ec166db4146600000000000000000000000004fa6148c9dabc7a737422fb1b3ab9088c878d26c0000000000000000000000000000000000000000000000000000000000008001",
        "nonce": "0x1d",
        "chainId": "0x1"
      },
      "additionalContracts": [],
      "isFixedGasLimit": false
    },
    {
      "hash": "0x3603d33b577ebab52b1cd66bd528b2064507d268a4141c36cdd95587369746ec",
      "transactionType": "CALL",
      "contractName": null,
      "contractAddress": "0x99bcb148bec418fc66ebf7aca3668ec1c6289695",
      "function": "registerToken(address,(address,address,uint256))",
      "arguments": [
        "0xf7030C3f43b85874ae12B57F44cd682196568b47",
        "(0xc99ECB82a27B45592eA02ACe9e3C42050f3c00C0, 0x4fa6148C9DAbC7A737422fb1b3AB9088c878d26C, 32769)"
      ],
      "transaction": {
        "from": "0xd89421cd5dd6d6269fbb9307535c386afe11a23e",
        "to": "0x99bcb148bec418fc66ebf7aca3668ec1c6289695",
        "gas": "0x222ab",
        "value": "0x0",
        "input": "0x8bc76f74000000000000000000000000f7030c3f43b85874ae12b57f44cd682196568b47000000000000000000000000c99ecb82a27b45592ea02ace9e3c42050f3c00c00000000000000000000000004fa6148c9dabc7a737422fb1b3ab9088c878d26c0000000000000000000000000000000000000000000000000000000000008001",
        "nonce": "0x1e",
        "chainId": "0x1"
      },
      "additionalContracts": [],
      "isFixedGasLimit": false
    },
    {
      "hash": "0xc7a104ba7fd281446846798d45de7d7af97c63a68da4ec448e4a9cc065587193",
      "transactionType": "CALL",
      "contractName": null,
      "contractAddress": "0x2ee8e8d7c113bb7c180f4755f06ed50be53bede5",
      "function": "registerToken(address,(address,address,uint256))",
      "arguments": [
        "0x7659CE147D0e714454073a5dd7003544234b6Aa0",
        "(0xCcF3Ea256d42Aeef0EE0e39Bfc94bAa9Fa14b0Ba, 0x4fa6148C9DAbC7A737422fb1b3AB9088c878d26C, 32769)"
      ],
      "transaction": {
        "from": "0xd89421cd5dd6d6269fbb9307535c386afe11a23e",
        "to": "0x2ee8e8d7c113bb7c180f4755f06ed50be53bede5",
        "gas": "0x242b4",
        "value": "0x0",
        "input": "0x8bc76f740000000000000000000000007659ce147d0e714454073a5dd7003544234b6aa0000000000000000000000000ccf3ea256d42aeef0ee0e39bfc94baa9fa14b0ba0000000000000000000000004fa6148c9dabc7a737422fb1b3ab9088c878d26c0000000000000000000000000000000000000000000000000000000000008001",
        "nonce": "0x1f",
        "chainId": "0x1"
      },
      "additionalContracts": [],
      "isFixedGasLimit": false
    },
    {
      "hash": "0x76c8eb2f9dbe11b3288ebce602a786ca2428806ce30bf0f45b3b0e105da24658",
      "transactionType": "CALL",
      "contractName": null,
      "contractAddress": "0x2ee8e8d7c113bb7c180f4755f06ed50be53bede5",
      "function": "registerToken(address,(address,address,uint256))",
      "arguments": [
        "0x80D55c03180349Fff4a229102F62328220A96444",
        "(0x17D5af5658A24bd964984b36d28e879a8626adC3, 0x4fa6148C9DAbC7A737422fb1b3AB9088c878d26C, 32769)"
      ],
      "transaction": {
        "from": "0xd89421cd5dd6d6269fbb9307535c386afe11a23e",
        "to": "0x2ee8e8d7c113bb7c180f4755f06ed50be53bede5",
        "gas": "0x2229d",
        "value": "0x0",
        "input": "0x8bc76f7400000000000000000000000080d55c03180349fff4a229102f62328220a9644400000000000000000000000017d5af5658a24bd964984b36d28e879a8626adc30000000000000000000000004fa6148c9dabc7a737422fb1b3ab9088c878d26c0000000000000000000000000000000000000000000000000000000000008001",
        "nonce": "0x20",
        "chainId": "0x1"
      },
      "additionalContracts": [],
      "isFixedGasLimit": false
    },
    {
      "hash": "0xb50ba4b5b220c1f17215a2c51f8f1802fd596042389f30809b8f5236eee5916f",
      "transactionType": "CALL",
      "contractName": null,
      "contractAddress": "0x2ee8e8d7c113bb7c180f4755f06ed50be53bede5",
      "function": "registerToken(address,(address,address,uint256))",
      "arguments": [
        "0x0000000000000000000000000000000000000000",
        "(0x17D5af5658A24bd964984b36d28e879a8626adC3, 0x4fa6148C9DAbC7A737422fb1b3AB9088c878d26C, 32769)"
      ],
      "transaction": {
        "from": "0xd89421cd5dd6d6269fbb9307535c386afe11a23e",
        "to": "0x2ee8e8d7c113bb7c180f4755f06ed50be53bede5",
        "gas": "0x22151",
        "value": "0x0",
        "input": "0x8bc76f74000000000000000000000000000000000000000000000000000000000000000000000000000000000000000017d5af5658a24bd964984b36d28e879a8626adc30000000000000000000000004fa6148c9dabc7a737422fb1b3ab9088c878d26c0000000000000000000000000000000000000000000000000000000000008001",
        "nonce": "0x21",
        "chainId": "0x1"
      },
      "additionalContracts": [],
      "isFixedGasLimit": false
    },
    {
      "hash": "0x66c4ba7f47881c6607703b5f75b2bccc21593328ea2c2455a844b09e4fc003bd",
      "transactionType": "CALL",
      "contractName": null,
      "contractAddress": "0x2ee8e8d7c113bb7c180f4755f06ed50be53bede5",
      "function": "registerToken(address,(address,address,uint256))",
      "arguments": [
        "0x4674a4F24C5f63D53F22490Fb3A08eAAAD739ff8",
        "(0xD819257C964A78A493DF93D5643E9490b54C5af2, 0x4fa6148C9DAbC7A737422fb1b3AB9088c878d26C, 32769)"
      ],
      "transaction": {
        "from": "0xd89421cd5dd6d6269fbb9307535c386afe11a23e",
        "to": "0x2ee8e8d7c113bb7c180f4755f06ed50be53bede5",
        "gas": "0x2229d",
        "value": "0x0",
        "input": "0x8bc76f740000000000000000000000004674a4f24c5f63d53f22490fb3a08eaaad739ff8000000000000000000000000d819257c964a78a493df93d5643e9490b54c5af20000000000000000000000004fa6148c9dabc7a737422fb1b3ab9088c878d26c0000000000000000000000000000000000000000000000000000000000008001",
        "nonce": "0x22",
        "chainId": "0x1"
      },
      "additionalContracts": [],
      "isFixedGasLimit": false
    },
    {
      "hash": "0x23652a6232a042c46b8b95cb0469342b19229e01abcecdb3e5a4780a5e2e6d6a",
      "transactionType": "CALL",
      "contractName": null,
      "contractAddress": "0x2ee8e8d7c113bb7c180f4755f06ed50be53bede5",
      "function": "registerToken(address,(address,address,uint256))",
      "arguments": [
        "0x2260FAC5E5542a773Aa44fBCfeDf7C193bc2C599",
        "(0x2938fF251Aecc1dfa768D7d0276eB6d073690317, 0x4fa6148C9DAbC7A737422fb1b3AB9088c878d26C, 32769)"
      ],
      "transaction": {
        "from": "0xd89421cd5dd6d6269fbb9307535c386afe11a23e",
        "to": "0x2ee8e8d7c113bb7c180f4755f06ed50be53bede5",
        "gas": "0x2229d",
        "value": "0x0",
        "input": "0x8bc76f740000000000000000000000002260fac5e5542a773aa44fbcfedf7c193bc2c5990000000000000000000000002938ff251aecc1dfa768d7d0276eb6d0736903170000000000000000000000004fa6148c9dabc7a737422fb1b3ab9088c878d26c0000000000000000000000000000000000000000000000000000000000008001",
        "nonce": "0x23",
        "chainId": "0x1"
      },
      "additionalContracts": [],
      "isFixedGasLimit": false
    },
    {
      "hash": "0x14ed7ade87078c9d285e5863906f70fa2b98e54c9721bb8b0906e38072b4a6b0",
      "transactionType": "CALL",
      "contractName": null,
      "contractAddress": "0x2ee8e8d7c113bb7c180f4755f06ed50be53bede5",
      "function": "registerToken(address,(address,address,uint256))",
      "arguments": [
        "0xdAC17F958D2ee523a2206206994597C13D831ec7",
        "(0x2274005778063684fbB1BfA96a2b725dC37D75f9, 0x4fa6148C9DAbC7A737422fb1b3AB9088c878d26C, 32769)"
      ],
      "transaction": {
        "from": "0xd89421cd5dd6d6269fbb9307535c386afe11a23e",
        "to": "0x2ee8e8d7c113bb7c180f4755f06ed50be53bede5",
        "gas": "0x242b4",
        "value": "0x0",
        "input": "0x8bc76f74000000000000000000000000dac17f958d2ee523a2206206994597c13d831ec70000000000000000000000002274005778063684fbb1bfa96a2b725dc37d75f90000000000000000000000004fa6148c9dabc7a737422fb1b3ab9088c878d26c0000000000000000000000000000000000000000000000000000000000008001",
        "nonce": "0x24",
        "chainId": "0x1"
      },
      "additionalContracts": [],
      "isFixedGasLimit": false
    },
    {
      "hash": "0x7856eae47c6f38ddead789a2ee022a5f388e964e67a263aa782038d5b37bce63",
      "transactionType": "CALL",
      "contractName": null,
      "contractAddress": "0x2ee8e8d7c113bb7c180f4755f06ed50be53bede5",
      "function": "registerToken(address,(address,address,uint256))",
      "arguments": [
        "0xD43Be54C1aedf7Ee4099104f2DaE4eA88B18A249",
        "(0x9121A67cA79B6778eAb477c5F76dF6de7C79cC4b, 0x4fa6148C9DAbC7A737422fb1b3AB9088c878d26C, 32769)"
      ],
      "transaction": {
        "from": "0xd89421cd5dd6d6269fbb9307535c386afe11a23e",
        "to": "0x2ee8e8d7c113bb7c180f4755f06ed50be53bede5",
        "gas": "0x2229d",
        "value": "0x0",
        "input": "0x8bc76f74000000000000000000000000d43be54c1aedf7ee4099104f2dae4ea88b18a2490000000000000000000000009121a67ca79b6778eab477c5f76df6de7c79cc4b0000000000000000000000004fa6148c9dabc7a737422fb1b3ab9088c878d26c0000000000000000000000000000000000000000000000000000000000008001",
        "nonce": "0x25",
        "chainId": "0x1"
      },
      "additionalContracts": [],
      "isFixedGasLimit": false
    }
  ],
  "receipts": [
    {
      "status": "0x1",
      "cumulativeGasUsed": "0x745660",
      "logs": [
        {
          "address": "0x99bcb148bec418fc66ebf7aca3668ec1c6289695",
          "topics": [
            "0xacee94c8a79111860852775471f35a102ad3dc32ff2716802bd1000ceb51f5a8",
            "0x0000000000000000000000006eeb539d662bb971a4a01211c67cb7f65b09b802"
          ],
          "data": "0x00000000000000000000000000000000000000000000000000000000000000000000000000000000000000004fa6148c9dabc7a737422fb1b3ab9088c878d26c0000000000000000000000000000000000000000000000000000000000008001",
          "blockHash": "0x4092d24982a5745a61a64c6eefaa487c6689847d58cc45acc64c62c7f6cf7224",
          "blockNumber": "0x149a009",
          "transactionHash": "0xf8e0b8f84cec800ad54494fd91493e58f6b2377dd5923815749100051847e946",
          "transactionIndex": "0x37",
          "logIndex": "0xa2",
          "removed": false
        },
        {
          "address": "0x99bcb148bec418fc66ebf7aca3668ec1c6289695",
          "topics": [
            "0xa133e3c36769b3c9a2109eba45aba2da2ad0ccab8c9c6cc6c244892ba14d0f70",
            "0x0000000000000000000000006eeb539d662bb971a4a01211c67cb7f65b09b802"
          ],
          "data": "0x00000000000000000000000000000000000000000000000000000000000000000000000000000000000000004fa6148c9dabc7a737422fb1b3ab9088c878d26c00000000000000000000000000000000000000000000000000000000000080010000000000000000000000000000000000000000000000000000000000000006",
          "blockHash": "0x4092d24982a5745a61a64c6eefaa487c6689847d58cc45acc64c62c7f6cf7224",
          "blockNumber": "0x149a009",
          "transactionHash": "0xf8e0b8f84cec800ad54494fd91493e58f6b2377dd5923815749100051847e946",
          "transactionIndex": "0x37",
          "logIndex": "0xa3",
          "removed": false
        }
      ],
      "logsBloom": "0x00000000000000000000000000000000000000000000000000000040000000000000000000000000020000000000000000000000004000000000000800000000000000000000000000000000000000000000000000000000000000000000000000000000000000000000000000000000010000000000000000000000000000000000000000100000000000000000000000000000040000000010000000000000800000000000000000000000000001000000000000000001000000000000000000000000000000000000000000000000000000000000000000000000000000000000000000000000000000000000000000000000000800000000000000000000",
      "type": "0x2",
      "transactionHash": "0xf8e0b8f84cec800ad54494fd91493e58f6b2377dd5923815749100051847e946",
      "transactionIndex": "0x37",
      "blockHash": "0x4092d24982a5745a61a64c6eefaa487c6689847d58cc45acc64c62c7f6cf7224",
      "blockNumber": "0x149a009",
      "gasUsed": "0x194c0",
      "effectiveGasPrice": "0x119b3977d",
      "from": "0xd89421cd5dd6d6269fbb9307535c386afe11a23e",
      "to": "0x99bcb148bec418fc66ebf7aca3668ec1c6289695",
      "contractAddress": null
    },
    {
      "status": "0x1",
      "cumulativeGasUsed": "0x75e234",
      "logs": [
        {
          "address": "0x99bcb148bec418fc66ebf7aca3668ec1c6289695",
          "topics": [
            "0xacee94c8a79111860852775471f35a102ad3dc32ff2716802bd1000ceb51f5a8",
            "0x000000000000000000000000a87135285ae208e22068acdbff64b11ec73eaa5a"
          ],
          "data": "0x000000000000000000000000e9d47623bb2b3c497668b34fcf61e101a7ea40580000000000000000000000004fa6148c9dabc7a737422fb1b3ab9088c878d26c0000000000000000000000000000000000000000000000000000000000008001",
          "blockHash": "0x4092d24982a5745a61a64c6eefaa487c6689847d58cc45acc64c62c7f6cf7224",
          "blockNumber": "0x149a009",
          "transactionHash": "0x08097ad5e1a68dea26db3fadbe6d923d8a99b4fc890be0531fced59c007a94e8",
          "transactionIndex": "0x38",
          "logIndex": "0xa4",
          "removed": false
        }
      ],
      "logsBloom": "0x00000000000000000000000000000000000000000000000000000000000000000000000000000000020000000000000000000000000000000000000800000000000000000000000000000000000000000000000000000000000000000000000000000000000000000000000000000000010000000000000000000000000000000000000000100000040000000000000000000000000000000000000000000000800000000000000000000000000000000040000000000000000000000000000200000000000000000000000000000000000000000000000000000000000000000000000000000000000000000000000000000000000800000000000000000000",
      "type": "0x2",
      "transactionHash": "0x08097ad5e1a68dea26db3fadbe6d923d8a99b4fc890be0531fced59c007a94e8",
      "transactionIndex": "0x38",
      "blockHash": "0x4092d24982a5745a61a64c6eefaa487c6689847d58cc45acc64c62c7f6cf7224",
      "blockNumber": "0x149a009",
      "gasUsed": "0x18bd4",
      "effectiveGasPrice": "0x119b3977d",
      "from": "0xd89421cd5dd6d6269fbb9307535c386afe11a23e",
      "to": "0x99bcb148bec418fc66ebf7aca3668ec1c6289695",
      "contractAddress": null
    },
    {
      "status": "0x1",
      "cumulativeGasUsed": "0x776e08",
      "logs": [
        {
          "address": "0x99bcb148bec418fc66ebf7aca3668ec1c6289695",
          "topics": [
            "0xacee94c8a79111860852775471f35a102ad3dc32ff2716802bd1000ceb51f5a8",
            "0x000000000000000000000000bd636fffbf349a4479db315c585e823164cf58f0"
          ],
          "data": "0x000000000000000000000000a0a5795e7eccc43ba92d2a0b7804696f8b9e1a050000000000000000000000004fa6148c9dabc7a737422fb1b3ab9088c878d26c0000000000000000000000000000000000000000000000000000000000008001",
          "blockHash": "0x4092d24982a5745a61a64c6eefaa487c6689847d58cc45acc64c62c7f6cf7224",
          "blockNumber": "0x149a009",
          "transactionHash": "0xd1a92abc5a8ee89fbb0552718e3a88f8ec3cdbdcfcfa5290ecea45ac6e3f9fe0",
          "transactionIndex": "0x39",
          "logIndex": "0xa5",
          "removed": false
        }
      ],
      "logsBloom": "0x00000000000000000000800000000000000000000000000000000000000000000000000000000000020000000000000000000000000000000000000800000000000000001000000000000000000000000000000000000000000000000000000000000000000000000000000000000000010000000000000000000000000000000000000000100000000000000000000000000000000000000000000000000000800000000000000000000000000000000000000000000000000000002000000000000000000000000000000000000000000000000000000000000000000000000000000000000000000000000000000000000000000800000000000000000000",
      "type": "0x2",
      "transactionHash": "0xd1a92abc5a8ee89fbb0552718e3a88f8ec3cdbdcfcfa5290ecea45ac6e3f9fe0",
      "transactionIndex": "0x39",
      "blockHash": "0x4092d24982a5745a61a64c6eefaa487c6689847d58cc45acc64c62c7f6cf7224",
      "blockNumber": "0x149a009",
      "gasUsed": "0x18bd4",
      "effectiveGasPrice": "0x119b3977d",
      "from": "0xd89421cd5dd6d6269fbb9307535c386afe11a23e",
      "to": "0x99bcb148bec418fc66ebf7aca3668ec1c6289695",
      "contractAddress": null
    },
    {
      "status": "0x1",
      "cumulativeGasUsed": "0x78f9dc",
      "logs": [
        {
          "address": "0x99bcb148bec418fc66ebf7aca3668ec1c6289695",
          "topics": [
            "0xacee94c8a79111860852775471f35a102ad3dc32ff2716802bd1000ceb51f5a8",
            "0x0000000000000000000000000c7c5b92893a522952eb4c939aa24b65ff910c48"
          ],
          "data": "0x0000000000000000000000001202078d298ff0358a95b6fbf48ec166db4146600000000000000000000000004fa6148c9dabc7a737422fb1b3ab9088c878d26c0000000000000000000000000000000000000000000000000000000000008001",
          "blockHash": "0x4092d24982a5745a61a64c6eefaa487c6689847d58cc45acc64c62c7f6cf7224",
          "blockNumber": "0x149a009",
          "transactionHash": "0xf3464ab9f4631b926f74cac731cb42fc0980cd6368a8795d145f0a149ab3e01a",
          "transactionIndex": "0x3a",
          "logIndex": "0xa6",
          "removed": false
        }
      ],
      "logsBloom": "0x00000000000000000000000000000000000000000000000008000000000000000000000000000000020000000000000000000000000000000000000800000000000000000000000000000000000000000000000000000000000000000000000000000020000000000000000000000000010000000000000000000000000000000000000000100000000000000000000000000000000000000000000000000000800000000000000000000000000000000000000000000000000000000000000000000000000000000000000000000000000000000000000000000000000000000000000000000000000000000000000000000000010800000000000000000000",
      "type": "0x2",
      "transactionHash": "0xf3464ab9f4631b926f74cac731cb42fc0980cd6368a8795d145f0a149ab3e01a",
      "transactionIndex": "0x3a",
      "blockHash": "0x4092d24982a5745a61a64c6eefaa487c6689847d58cc45acc64c62c7f6cf7224",
      "blockNumber": "0x149a009",
      "gasUsed": "0x18bd4",
      "effectiveGasPrice": "0x119b3977d",
      "from": "0xd89421cd5dd6d6269fbb9307535c386afe11a23e",
      "to": "0x99bcb148bec418fc66ebf7aca3668ec1c6289695",
      "contractAddress": null
    },
    {
      "status": "0x1",
      "cumulativeGasUsed": "0x7a85a4",
      "logs": [
        {
          "address": "0x99bcb148bec418fc66ebf7aca3668ec1c6289695",
          "topics": [
            "0xacee94c8a79111860852775471f35a102ad3dc32ff2716802bd1000ceb51f5a8",
            "0x000000000000000000000000f7030c3f43b85874ae12b57f44cd682196568b47"
          ],
          "data": "0x000000000000000000000000c99ecb82a27b45592ea02ace9e3c42050f3c00c00000000000000000000000004fa6148c9dabc7a737422fb1b3ab9088c878d26c0000000000000000000000000000000000000000000000000000000000008001",
          "blockHash": "0x4092d24982a5745a61a64c6eefaa487c6689847d58cc45acc64c62c7f6cf7224",
          "blockNumber": "0x149a009",
          "transactionHash": "0x3603d33b577ebab52b1cd66bd528b2064507d268a4141c36cdd95587369746ec",
          "transactionIndex": "0x3b",
          "logIndex": "0xa7",
          "removed": false
        }
      ],
      "logsBloom": "0x00000000000000000000000000000000000000000000000000000000000000000000000000000000020000000000000000000000000000000000000800000000000000000000000000000000000000000000000000000000000002000000000000000000000000000000000000000000010000000000000000000000000000000000000000100000000000000000000000000000000000000000000000000000800000000000000000000000000000000000000000000000000000000000000000000000000000000000040000000000000000000000000000000000000000000000000000000000010000000000000000000000000800000000000000000000",
      "type": "0x2",
      "transactionHash": "0x3603d33b577ebab52b1cd66bd528b2064507d268a4141c36cdd95587369746ec",
      "transactionIndex": "0x3b",
      "blockHash": "0x4092d24982a5745a61a64c6eefaa487c6689847d58cc45acc64c62c7f6cf7224",
      "blockNumber": "0x149a009",
      "gasUsed": "0x18bc8",
      "effectiveGasPrice": "0x119b3977d",
      "from": "0xd89421cd5dd6d6269fbb9307535c386afe11a23e",
      "to": "0x99bcb148bec418fc66ebf7aca3668ec1c6289695",
      "contractAddress": null
    },
    {
      "status": "0x1",
      "cumulativeGasUsed": "0x7c1156",
      "logs": [
        {
          "address": "0x2ee8e8d7c113bb7c180f4755f06ed50be53bede5",
          "topics": [
            "0xacee94c8a79111860852775471f35a102ad3dc32ff2716802bd1000ceb51f5a8",
            "0x0000000000000000000000007659ce147d0e714454073a5dd7003544234b6aa0"
          ],
          "data": "0x000000000000000000000000ccf3ea256d42aeef0ee0e39bfc94baa9fa14b0ba0000000000000000000000004fa6148c9dabc7a737422fb1b3ab9088c878d26c0000000000000000000000000000000000000000000000000000000000008001",
          "blockHash": "0x4092d24982a5745a61a64c6eefaa487c6689847d58cc45acc64c62c7f6cf7224",
          "blockNumber": "0x149a009",
          "transactionHash": "0xc7a104ba7fd281446846798d45de7d7af97c63a68da4ec448e4a9cc065587193",
          "transactionIndex": "0x3c",
          "logIndex": "0xa8",
          "removed": false
        }
      ],
      "logsBloom": "0x00000000000000000000000000000000000000000000000004000000000000000000000000000000000000000000000000000800000000000000000000000008000000000000000000000000000000000000000000000000000000000000000000000000000000000000000000000000010000000000000000000000000000000000000000100000000000000000000000000000000000000000000000000000000000000000000000000000080000000000000000000000000200000000000000000000000000000000000000000000000000000000000000000000000000000000000000000000000040000000000000000000000800000000000000000000",
      "type": "0x2",
      "transactionHash": "0xc7a104ba7fd281446846798d45de7d7af97c63a68da4ec448e4a9cc065587193",
      "transactionIndex": "0x3c",
      "blockHash": "0x4092d24982a5745a61a64c6eefaa487c6689847d58cc45acc64c62c7f6cf7224",
      "blockNumber": "0x149a009",
      "gasUsed": "0x18bb2",
      "effectiveGasPrice": "0x119b3977d",
      "from": "0xd89421cd5dd6d6269fbb9307535c386afe11a23e",
      "to": "0x2ee8e8d7c113bb7c180f4755f06ed50be53bede5",
      "contractAddress": null
    },
    {
      "status": "0x1",
      "cumulativeGasUsed": "0x7d9d14",
      "logs": [
        {
          "address": "0x2ee8e8d7c113bb7c180f4755f06ed50be53bede5",
          "topics": [
            "0xacee94c8a79111860852775471f35a102ad3dc32ff2716802bd1000ceb51f5a8",
            "0x00000000000000000000000080d55c03180349fff4a229102f62328220a96444"
          ],
          "data": "0x00000000000000000000000017d5af5658a24bd964984b36d28e879a8626adc30000000000000000000000004fa6148c9dabc7a737422fb1b3ab9088c878d26c0000000000000000000000000000000000000000000000000000000000008001",
          "blockHash": "0x4092d24982a5745a61a64c6eefaa487c6689847d58cc45acc64c62c7f6cf7224",
          "blockNumber": "0x149a009",
          "transactionHash": "0x76c8eb2f9dbe11b3288ebce602a786ca2428806ce30bf0f45b3b0e105da24658",
          "transactionIndex": "0x3d",
          "logIndex": "0xa9",
          "removed": false
        }
      ],
      "logsBloom": "0x00000000000000000000000000000000000000000000000000000000001000000000000000000000000000000000000000000000200000000000000000000008000000000000000000000000000000000000000000000000000000000000000000000000000000000000000000000000010000000000000000000000000000000000000000100000000000000000000000000000000000000000000000000000000000000000000000000000080000000000000000000000000000000000000000000000000000000000000000000000000000000000000000000000000000000000000000000000000040000000000000000000000800000800000000000000",
      "type": "0x2",
      "transactionHash": "0x76c8eb2f9dbe11b3288ebce602a786ca2428806ce30bf0f45b3b0e105da24658",
      "transactionIndex": "0x3d",
      "blockHash": "0x4092d24982a5745a61a64c6eefaa487c6689847d58cc45acc64c62c7f6cf7224",
      "blockNumber": "0x149a009",
      "gasUsed": "0x18bbe",
      "effectiveGasPrice": "0x119b3977d",
      "from": "0xd89421cd5dd6d6269fbb9307535c386afe11a23e",
      "to": "0x2ee8e8d7c113bb7c180f4755f06ed50be53bede5",
      "contractAddress": null
    },
    {
      "status": "0x1",
      "cumulativeGasUsed": "0x7f27e2",
      "logs": [
        {
          "address": "0x2ee8e8d7c113bb7c180f4755f06ed50be53bede5",
          "topics": [
            "0xacee94c8a79111860852775471f35a102ad3dc32ff2716802bd1000ceb51f5a8",
            "0x0000000000000000000000000000000000000000000000000000000000000000"
          ],
          "data": "0x00000000000000000000000017d5af5658a24bd964984b36d28e879a8626adc30000000000000000000000004fa6148c9dabc7a737422fb1b3ab9088c878d26c0000000000000000000000000000000000000000000000000000000000008001",
          "blockHash": "0x4092d24982a5745a61a64c6eefaa487c6689847d58cc45acc64c62c7f6cf7224",
          "blockNumber": "0x149a009",
          "transactionHash": "0xb50ba4b5b220c1f17215a2c51f8f1802fd596042389f30809b8f5236eee5916f",
          "transactionIndex": "0x3e",
          "logIndex": "0xaa",
          "removed": false
        }
      ],
      "logsBloom": "0x00000000000000000000000000000000000000000000000000000000000000000000000000000000000000000000000000000000000000000000000000000008000000000000000000000000000000000000000000000000000000000000000000000000020000000000000000000800010000000000000000000000000000000000000000100000000000000000000000000000000000000000000000000000000000000000000000000000080000000000000000000000000000000000000000000000000000000000000000000000000000000000000000000000000020000000000000000000000040000000000000000000000800000000000000000000",
      "type": "0x2",
      "transactionHash": "0xb50ba4b5b220c1f17215a2c51f8f1802fd596042389f30809b8f5236eee5916f",
      "transactionIndex": "0x3e",
      "blockHash": "0x4092d24982a5745a61a64c6eefaa487c6689847d58cc45acc64c62c7f6cf7224",
      "blockNumber": "0x149a009",
      "gasUsed": "0x18ace",
      "effectiveGasPrice": "0x119b3977d",
      "from": "0xd89421cd5dd6d6269fbb9307535c386afe11a23e",
      "to": "0x2ee8e8d7c113bb7c180f4755f06ed50be53bede5",
      "contractAddress": null
    },
    {
      "status": "0x1",
      "cumulativeGasUsed": "0x80b3a0",
      "logs": [
        {
          "address": "0x2ee8e8d7c113bb7c180f4755f06ed50be53bede5",
          "topics": [
            "0xacee94c8a79111860852775471f35a102ad3dc32ff2716802bd1000ceb51f5a8",
            "0x0000000000000000000000004674a4f24c5f63d53f22490fb3a08eaaad739ff8"
          ],
          "data": "0x000000000000000000000000d819257c964a78a493df93d5643e9490b54c5af20000000000000000000000004fa6148c9dabc7a737422fb1b3ab9088c878d26c0000000000000000000000000000000000000000000000000000000000008001",
          "blockHash": "0x4092d24982a5745a61a64c6eefaa487c6689847d58cc45acc64c62c7f6cf7224",
          "blockNumber": "0x149a009",
          "transactionHash": "0x66c4ba7f47881c6607703b5f75b2bccc21593328ea2c2455a844b09e4fc003bd",
          "transactionIndex": "0x3f",
          "logIndex": "0xab",
          "removed": false
        }
      ],
      "logsBloom": "0x00000000000000000000000000000000000000000000000000000000000000000000000200000000000000000000000000000000000000000000000000000008000000000000000000000000000000000000000000000000000000000000000000000000000000000000000000040000010000000000000000000000000000000000000000100000000000000000000000000000000000000000000000000000000000000000000000000000080001000000000000000000000000000000000000000000000000000000000000000000000000000000000000000000000000000000000000000000000040000000000000000000000800000000000000000000",
      "type": "0x2",
      "transactionHash": "0x66c4ba7f47881c6607703b5f75b2bccc21593328ea2c2455a844b09e4fc003bd",
      "transactionIndex": "0x3f",
      "blockHash": "0x4092d24982a5745a61a64c6eefaa487c6689847d58cc45acc64c62c7f6cf7224",
      "blockNumber": "0x149a009",
      "gasUsed": "0x18bbe",
      "effectiveGasPrice": "0x119b3977d",
      "from": "0xd89421cd5dd6d6269fbb9307535c386afe11a23e",
      "to": "0x2ee8e8d7c113bb7c180f4755f06ed50be53bede5",
      "contractAddress": null
    },
    {
      "status": "0x1",
      "cumulativeGasUsed": "0x823f5e",
      "logs": [
        {
          "address": "0x2ee8e8d7c113bb7c180f4755f06ed50be53bede5",
          "topics": [
            "0xacee94c8a79111860852775471f35a102ad3dc32ff2716802bd1000ceb51f5a8",
            "0x0000000000000000000000002260fac5e5542a773aa44fbcfedf7c193bc2c599"
          ],
          "data": "0x0000000000000000000000002938ff251aecc1dfa768d7d0276eb6d0736903170000000000000000000000004fa6148c9dabc7a737422fb1b3ab9088c878d26c0000000000000000000000000000000000000000000000000000000000008001",
          "blockHash": "0x4092d24982a5745a61a64c6eefaa487c6689847d58cc45acc64c62c7f6cf7224",
          "blockNumber": "0x149a009",
          "transactionHash": "0x23652a6232a042c46b8b95cb0469342b19229e01abcecdb3e5a4780a5e2e6d6a",
          "transactionIndex": "0x40",
          "logIndex": "0xac",
          "removed": false
        }
      ],
      "logsBloom": "0x00000000000000000000000020000000000000000000000000000000000000008000000000000000000000000000000000000000000000000000000000000008000000000000000000000000000000000000000000000000000000000000000000000000000000000000000000000000010000000000000000000000000000000000000000100000000000000000000000000000000000000000000000000000000000000000000000000000080000000000000000000000000000000000000000000000000000000000000000000000000000000004000000000000000000000000000000000000000040000000000000000000000800000000000000000000",
      "type": "0x2",
      "transactionHash": "0x23652a6232a042c46b8b95cb0469342b19229e01abcecdb3e5a4780a5e2e6d6a",
      "transactionIndex": "0x40",
      "blockHash": "0x4092d24982a5745a61a64c6eefaa487c6689847d58cc45acc64c62c7f6cf7224",
      "blockNumber": "0x149a009",
      "gasUsed": "0x18bbe",
      "effectiveGasPrice": "0x119b3977d",
      "from": "0xd89421cd5dd6d6269fbb9307535c386afe11a23e",
      "to": "0x2ee8e8d7c113bb7c180f4755f06ed50be53bede5",
      "contractAddress": null
    },
    {
      "status": "0x1",
      "cumulativeGasUsed": "0x83cb10",
      "logs": [
        {
          "address": "0x2ee8e8d7c113bb7c180f4755f06ed50be53bede5",
          "topics": [
            "0xacee94c8a79111860852775471f35a102ad3dc32ff2716802bd1000ceb51f5a8",
            "0x000000000000000000000000dac17f958d2ee523a2206206994597c13d831ec7"
          ],
          "data": "0x0000000000000000000000002274005778063684fbb1bfa96a2b725dc37d75f90000000000000000000000004fa6148c9dabc7a737422fb1b3ab9088c878d26c0000000000000000000000000000000000000000000000000000000000008001",
          "blockHash": "0x4092d24982a5745a61a64c6eefaa487c6689847d58cc45acc64c62c7f6cf7224",
          "blockNumber": "0x149a009",
          "transactionHash": "0x14ed7ade87078c9d285e5863906f70fa2b98e54c9721bb8b0906e38072b4a6b0",
          "transactionIndex": "0x41",
          "logIndex": "0xad",
          "removed": false
        }
      ],
      "logsBloom": "0x00000000000000000000000000000000000000000000000000000000000000000000000000000000000000000000000000000000000000000000000000000008000000000000000000000000000000000000000000000000000000000000000000000000000000000000000000000000010000200000000000000000000000000000000000100000000000000000000000000000000000000000000000000000000000000000000000000000080000000000000000000000000000000000004000000000000000000000000000000000000000020000000000000000000000000000000000000000000040000000000000000000000800000000000000000000",
      "type": "0x2",
      "transactionHash": "0x14ed7ade87078c9d285e5863906f70fa2b98e54c9721bb8b0906e38072b4a6b0",
      "transactionIndex": "0x41",
      "blockHash": "0x4092d24982a5745a61a64c6eefaa487c6689847d58cc45acc64c62c7f6cf7224",
      "blockNumber": "0x149a009",
      "gasUsed": "0x18bb2",
      "effectiveGasPrice": "0x119b3977d",
      "from": "0xd89421cd5dd6d6269fbb9307535c386afe11a23e",
      "to": "0x2ee8e8d7c113bb7c180f4755f06ed50be53bede5",
      "contractAddress": null
    },
    {
      "status": "0x1",
      "cumulativeGasUsed": "0xaa6421",
      "logs": [
        {
          "address": "0x2ee8e8d7c113bb7c180f4755f06ed50be53bede5",
          "topics": [
            "0xacee94c8a79111860852775471f35a102ad3dc32ff2716802bd1000ceb51f5a8",
            "0x000000000000000000000000d43be54c1aedf7ee4099104f2dae4ea88b18a249"
          ],
          "data": "0x0000000000000000000000009121a67ca79b6778eab477c5f76df6de7c79cc4b0000000000000000000000004fa6148c9dabc7a737422fb1b3ab9088c878d26c0000000000000000000000000000000000000000000000000000000000008001",
          "blockHash": "0x7fc8fe64aeb14ae1582f41197d4bf4eb6e575d83640a9892d2456cf9e77b1f99",
          "blockNumber": "0x149a00a",
          "transactionHash": "0x7856eae47c6f38ddead789a2ee022a5f388e964e67a263aa782038d5b37bce63",
          "transactionIndex": "0x84",
          "logIndex": "0x134",
          "removed": false
        }
      ],
      "logsBloom": "0x00000000000000000000000000000000000000000000000000000000000000000000000000000000000000000000000000000000000000000000000000000008000000000000000000000000000000000000000000000000000000000000000000000000000000000000000000000000010000000000000000000000800000000000100000100000000000000000000000000000000000000000000000000000000000000000000000000000080000000000000000000000000000000000000000000000000000000000000000000000000000000000000000000000000000000000000000000000000040000000000000000000000800000000040000000000",
      "type": "0x2",
      "transactionHash": "0x7856eae47c6f38ddead789a2ee022a5f388e964e67a263aa782038d5b37bce63",
      "transactionIndex": "0x84",
      "blockHash": "0x7fc8fe64aeb14ae1582f41197d4bf4eb6e575d83640a9892d2456cf9e77b1f99",
      "blockNumber": "0x149a00a",
      "gasUsed": "0x18bbe",
      "effectiveGasPrice": "0x11842c8ba",
      "from": "0xd89421cd5dd6d6269fbb9307535c386afe11a23e",
      "to": "0x2ee8e8d7c113bb7c180f4755f06ed50be53bede5",
      "contractAddress": null
    }
  ],
  "libraries": [],
  "pending": [],
  "returns": {},
  "timestamp": 1736611454,
  "chain": 1,
  "commit": "5aa1251"
}