{
  "transactions": [
    {
      "hash": "0xb7e35d92989bfa6821ce56bcb87a994647cddb6f66aea0b9cffb5c93d317f1e3",
      "transactionType": "CALL",
      "contractName": null,
      "contractAddress": "0x4fa6148c9dabc7a737422fb1b3ab9088c878d26c",
      "function": "registerToken(address,(address,address,uint256))",
      "arguments": [
        "0x4345472A0c6164F35808CDb7e7eCCd3d326CC50b",
        "(0x0000000000000000000000000000000000000000, 0x7519550ae8b6f9d32E9c1A939Fb5C186f660BE5b, 137)"
      ],
      "transaction": {
        "from": "0xd89421cd5dd6d6269fbb9307535c386afe11a23e",
        "to": "0x4fa6148c9dabc7a737422fb1b3ab9088c878d26c",
        "gas": "0xdf24",
        "value": "0x0",
        "input": "0x8bc76f740000000000000000000000004345472a0c6164f35808cdb7e7eccd3d326cc50b00000000000000000000000000000000000000000000000000000000000000000000000000000000000000007519550ae8b6f9d32e9c1a939fb5c186f660be5b0000000000000000000000000000000000000000000000000000000000000089",
        "nonce": "0x22",
        "chainId": "0x8001"
      },
      "additionalContracts": [],
      "isFixedGasLimit": false
    },
    {
      "hash": "0xa8044082a9e64c555e9de9b35b1ac4e560978d9ed895bccc7c10fe16115cefd3",
      "transactionType": "CALL",
      "contractName": null,
      "contractAddress": "0x4fa6148c9dabc7a737422fb1b3ab9088c878d26c",
      "function": "registerTokenWithScale(address,(address,address,uint256),int8)",
      "arguments": [
        "0x0000000000000000000000000000000000000000",
        "(0xCc88D28f7d4B0D5AFACCC77F6102d88EE630fA17, 0x3faC7cb5b45A3B59d76b6926bc704Cf3cc522437, 137)",
        "-6"
      ],
      "transaction": {
        "from": "0xd89421cd5dd6d6269fbb9307535c386afe11a23e",
        "to": "0x4fa6148c9dabc7a737422fb1b3ab9088c878d26c",
        "gas": "0x15a43",
        "value": "0x0",
        "input": "0x126d5f2f0000000000000000000000000000000000000000000000000000000000000000000000000000000000000000cc88d28f7d4b0d5afaccc77f6102d88ee630fa170000000000000000000000003fac7cb5b45a3b59d76b6926bc704cf3cc5224370000000000000000000000000000000000000000000000000000000000000089fffffffffffffffffffffffffffffffffffffffffffffffffffffffffffffffa",
        "nonce": "0x23",
        "chainId": "0x8001"
      },
      "additionalContracts": [],
      "isFixedGasLimit": false
    }
  ],
  "receipts": [
    {
      "status": "0x1",
      "cumulativeGasUsed": "0x9d80",
      "logs": [
        {
          "address": "0x4fa6148c9dabc7a737422fb1b3ab9088c878d26c",
          "topics": [
            "0xacee94c8a79111860852775471f35a102ad3dc32ff2716802bd1000ceb51f5a8",
            "0x0000000000000000000000004345472a0c6164f35808cdb7e7eccd3d326cc50b"
          ],
          "data": "0x00000000000000000000000000000000000000000000000000000000000000000000000000000000000000007519550ae8b6f9d32e9c1a939fb5c186f660be5b0000000000000000000000000000000000000000000000000000000000000089",
          "blockHash": "0xc03d28ae7a7ba76aef240dabc75440669956267bade59474a1eb5be39fca51f1",
          "blockNumber": "0x42a977",
          "transactionHash": "0xb7e35d92989bfa6821ce56bcb87a994647cddb6f66aea0b9cffb5c93d317f1e3",
          "transactionIndex": "0x1",
          "logIndex": "0x0",
          "removed": false
        }
      ],
      "logsBloom": "0x00000000000000000000000000000000000000000000000000000000000000000000000000000000000000000000000000000000000000000000000000000000000000000000000000000000000000000000000000000000000000000000000800000000000000000000000000000000010000000000000000000000000000000000000000100000000000000000000000000000000000000000000000000000000000000000000000000000000000000000000000000000000000000000000000000000000000000000000000000000000000000000000080400000000000000000000000000000000000200020000000000000040800000000000000000000",
      "type": "0x0",
      "transactionHash": "0xb7e35d92989bfa6821ce56bcb87a994647cddb6f66aea0b9cffb5c93d317f1e3",
      "transactionIndex": "0x1",
      "blockHash": "0xc03d28ae7a7ba76aef240dabc75440669956267bade59474a1eb5be39fca51f1",
      "blockNumber": "0x42a977",
      "gasUsed": "0x9d80",
      "effectiveGasPrice": "0x454b7b38e70",
      "from": "0xd89421cd5dd6d6269fbb9307535c386afe11a23e",
      "to": "0x4fa6148c9dabc7a737422fb1b3ab9088c878d26c",
      "contractAddress": null,
      "r": "0x1703469385154C32B20C114709C1C59DF1687C1C10627CD52DA97D36AD77A0AC",
      "root": "0x0000000000000000000000000000000000000000000000000000000000001010",
      "s": "0x55DBF92E2C0939DE054C2F58BB3E4323D4613249C4AF5ACE1F5430B5D949828D",
      "v": "0x10025"
    },
    {
      "status": "0x1",
      "cumulativeGasUsed": "0xf474",
      "logs": [
        {
          "address": "0x4fa6148c9dabc7a737422fb1b3ab9088c878d26c",
          "topics": [
            "0xacee94c8a79111860852775471f35a102ad3dc32ff2716802bd1000ceb51f5a8",
            "0x0000000000000000000000000000000000000000000000000000000000000000"
          ],
          "data": "0x000000000000000000000000cc88d28f7d4b0d5afaccc77f6102d88ee630fa170000000000000000000000003fac7cb5b45a3b59d76b6926bc704cf3cc5224370000000000000000000000000000000000000000000000000000000000000089",
          "blockHash": "0xc03d28ae7a7ba76aef240dabc75440669956267bade59474a1eb5be39fca51f1",
          "blockNumber": "0x42a977",
          "transactionHash": "0xa8044082a9e64c555e9de9b35b1ac4e560978d9ed895bccc7c10fe16115cefd3",
          "transactionIndex": "0x2",
          "logIndex": "0x2",
          "removed": false
        },
        {
          "address": "0x4fa6148c9dabc7a737422fb1b3ab9088c878d26c",
          "topics": [
            "0xa133e3c36769b3c9a2109eba45aba2da2ad0ccab8c9c6cc6c244892ba14d0f70",
            "0x0000000000000000000000000000000000000000000000000000000000000000"
          ],
          "data": "0x000000000000000000000000cc88d28f7d4b0d5afaccc77f6102d88ee630fa170000000000000000000000003fac7cb5b45a3b59d76b6926bc704cf3cc5224370000000000000000000000000000000000000000000000000000000000000089fffffffffffffffffffffffffffffffffffffffffffffffffffffffffffffffa",
          "blockHash": "0xc03d28ae7a7ba76aef240dabc75440669956267bade59474a1eb5be39fca51f1",
          "blockNumber": "0x42a977",
          "transactionHash": "0xa8044082a9e64c555e9de9b35b1ac4e560978d9ed895bccc7c10fe16115cefd3",
          "transactionIndex": "0x2",
          "logIndex": "0x3",
          "removed": false
        }
      ],
      "logsBloom": "0x00000000000000000000000000000000000000000000000000000040000000000000000000000000000000000000000000000000000000000000000000000000000000000000000000000000000000000000000000000000000000000000000800000000020000000000000000000800010000000000000000000000000000000000000000100000000000000000000000000000040000000000000000000000000000000000000000000000000000000000000000000001000000000000000000000000000000000000000000000000000000000000000000400000000020000000000000000000000000000000000000000000040800000000000000000000",
      "type": "0x0",
      "transactionHash": "0xa8044082a9e64c555e9de9b35b1ac4e560978d9ed895bccc7c10fe16115cefd3",
      "transactionIndex": "0x2",
      "blockHash": "0xc03d28ae7a7ba76aef240dabc75440669956267bade59474a1eb5be39fca51f1",
      "blockNumber": "0x42a977",
      "gasUsed": "0xf474",
      "effectiveGasPrice": "0x454b7b38e70",
      "from": "0xd89421cd5dd6d6269fbb9307535c386afe11a23e",
      "to": "0x4fa6148c9dabc7a737422fb1b3ab9088c878d26c",
      "contractAddress": null,
      "r": "0xD033F55DD443EBC304DA475D29387A1D0BEA15E9BB15391FD58347ADE77C7FDA",
      "root": "0x0000000000000000000000000000000000000000000000000000000000001010",
      "s": "0x656B3B809BAD30DA0124D3A9EAAAB4DE632A631A55D657647869BFEFE9238275",
      "v": "0x10025"
    }
  ],
  "libraries": [],
  "pending": [],
  "returns": {},
  "timestamp": 1736425686,
  "chain": 32769,
  "commit": "3481f78"
}