{
  "transactions": [
    {
      "hash": "0x3b57ec0b7a02eb427dd03881ad7a2793cbc05305f4e2ecac27232b1dcde5d6e4",
      "transactionType": "CALL",
      "contractName": null,
      "contractAddress": "0x9121a67ca79b6778eab477c5f76df6de7c79cc4b",
      "function": "addCaller(address)",
      "arguments": [
        "0x3faC7cb5b45A3B59d76b6926bc704Cf3cc522437"
      ],
      "transaction": {
        "from": "0xd89421cd5dd6d6269fbb9307535c386afe11a23e",
        "to": "0x9121a67ca79b6778eab477c5f76df6de7c79cc4b",
        "gas": "0x1e9a3",
        "value": "0x0",
        "input": "0x747293fb0000000000000000000000003fac7cb5b45a3b59d76b6926bc704cf3cc522437",
        "nonce": "0x16",
        "chainId": "0x89"
      },
      "additionalContracts": [],
      "isFixedGasLimit": false
    }
  ],
  "receipts": [
    {
      "status": "0x1",
      "cumulativeGasUsed": "0x12cf74c",
      "logs": [
        {
          "address": "0x0000000000000000000000000000000000001010",
          "topics": [
            "0x4dfe1bbbcf077ddc3e01291eea2d5c70c2b422b415d95645b9adcfd678cb1d63",
            "0x0000000000000000000000000000000000000000000000000000000000001010",
            "0x000000000000000000000000d89421cd5dd6d6269fbb9307535c386afe11a23e",
            "0x0000000000000000000000007c7379531b2aee82e4ca06d4175d13b9cbeafd49"
          ],
          "data": "0x000000000000000000000000000000000000000000000000000b516cb6b78318000000000000000000000000000000000000000000000006614ff8ba6c4d0935000000000000000000000000000000000000000000035a016e57520a1f426a300000000000000000000000000000000000000000000000066144a74db595861d000000000000000000000000000000000000000000035a016e62a376d5f9ed48",
          "blockHash": "0x341da11efee14fba73d105841219aad5d028d70a4d29d3c0c7b42943086e72cc",
          "blockNumber": "0x3eae033",
          "transactionHash": "0x3b57ec0b7a02eb427dd03881ad7a2793cbc05305f4e2ecac27232b1dcde5d6e4",
          "transactionIndex": "0x4f",
          "logIndex": "0x28c",
          "removed": false
        }
      ],
      "logsBloom": "0x00000000000000000000000000000000000000000000000000000000000000400000000000000000000000080000000000008000000000000000000000000000000000000100000000000000000000800000000000400000000100000000000000000000000000000000000000000000000000000000000080000000000000000000000000000000000000000000000000000000000000000000000000000000200000000000000000000000000000000000000000000000000000000000004000000000000000000001000000000000000000000000000000100000000000000000000000000000000000000000000000000000000000800000000000100000",
      "type": "0x2",
      "transactionHash": "0x3b57ec0b7a02eb427dd03881ad7a2793cbc05305f4e2ecac27232b1dcde5d6e4",
      "transactionIndex": "0x4f",
      "blockHash": "0x341da11efee14fba73d105841219aad5d028d70a4d29d3c0c7b42943086e72cc",
      "blockNumber": "0x3eae033",
      "gasUsed": "0x1627e",
      "effectiveGasPrice": "0x2dfce42da3",
      "from": "0xd89421cd5dd6d6269fbb9307535c386afe11a23e",
      "to": "0x9121a67ca79b6778eab477c5f76df6de7c79cc4b",
      "contractAddress": null
    }
  ],
  "libraries": [],
  "pending": [],
  "returns": {},
  "timestamp": 1734723796,
  "chain": 137,
  "commit": "4b64fac"
}