{
  "transactions": [
    {
      "hash": null,
      "transactionType": "CALL",
      "contractName": null,
      "contractAddress": "0x2f275df0f73649e47f1805edffd86e6135297175",
      "function": "addValidator(address)",
      "arguments": [
        "0x250572Ed005BaD64Ff24FbDc0d41875dAF58944f"
      ],
      "transaction": {
        "from": "0xd89421cd5dd6d6269fbb9307535c386afe11a23e",
        "to": "0x2f275df0f73649e47f1805edffd86e6135297175",
        "gas": "0xa6b18",
        "value": "0x0",
        "input": "0x4d238c8e000000000000000000000000250572ed005bad64ff24fbdc0d41875daf58944f",
        "nonce": "0x17",
        "chainId": "0xa4b1"
      },
      "additionalContracts": [],
      "isFixedGasLimit": false
    },
    {
      "hash": null,
      "transactionType": "CALL",
      "contractName": null,
      "contractAddress": "0x2f275df0f73649e47f1805edffd86e6135297175",
      "function": "removeValidator(address)",
      "arguments": [
        "0xD89421Cd5dD6d6269FbB9307535c386AFe11a23E"
      ],
      "transaction": {
        "from": "0xd89421cd5dd6d6269fbb9307535c386afe11a23e",
        "to": "0x2f275df0f73649e47f1805edffd86e6135297175",
        "gas": "0x9a7e6",
        "value": "0x0",
        "input": "0x40a141ff000000000000000000000000d89421cd5dd6d6269fbb9307535c386afe11a23e",
        "nonce": "0x18",
        "chainId": "0xa4b1"
      },
      "additionalContracts": [],
      "isFixedGasLimit": false
    }
  ],
  "receipts": [],
  "libraries": [],
  "pending": [],
  "returns": {},
  "timestamp": 1736526268,
  "chain": 42161,
  "commit": "28f5fc2"
}