{
  "transactions": [
    {
      "hash": "0x8ec9ebed851da7d7c952bbaeec416516b16cebb4dd0d5ba3961a824371c8e43e",
      "transactionType": "CALL",
      "contractName": null,
      "contractAddress": "0x3fac7cb5b45a3b59d76b6926bc704cf3cc522437",
      "function": "registerTokenWithScale(address,(address,address,uint256),int8)",
      "arguments": [
        "0xCc88D28f7d4B0D5AFACCC77F6102d88EE630fA17",
        "(0x0000000000000000000000000000000000000000, 0x4fa6148C9DAbC7A737422fb1b3AB9088c878d26C, 32769)",
        "6"
      ],
      "transaction": {
        "from": "0xd89421cd5dd6d6269fbb9307535c386afe11a23e",
        "to": "0x3fac7cb5b45a3b59d76b6926bc704cf3cc522437",
        "gas": "0x15851",
        "value": "0x0",
        "input": "0x126d5f2f000000000000000000000000cc88d28f7d4b0d5afaccc77f6102d88ee630fa1700000000000000000000000000000000000000000000000000000000000000000000000000000000000000004fa6148c9dabc7a737422fb1b3ab9088c878d26c00000000000000000000000000000000000000000000000000000000000080010000000000000000000000000000000000000000000000000000000000000006",
        "nonce": "0x26",
        "chainId": "0x89"
      },
      "additionalContracts": [],
      "isFixedGasLimit": false
    },
    {
      "hash": "0x4d428f69d8acc34246f98cc003b1abd285de6edbe1dc0fc522f7526657a68c10",
      "transactionType": "CALL",
      "contractName": null,
      "contractAddress": "0x7519550ae8b6f9d32e9c1a939fb5c186f660be5b",
      "function": "registerToken(address,(address,address,uint256))",
      "arguments": [
        "0x0000000000000000000000000000000000000000",
        "(0x4345472A0c6164F35808CDb7e7eCCd3d326CC50b, 0x4fa6148C9DAbC7A737422fb1b3AB9088c878d26C, 32769)"
      ],
      "transaction": {
        "from": "0xd89421cd5dd6d6269fbb9307535c386afe11a23e",
        "to": "0x7519550ae8b6f9d32e9c1a939fb5c186f660be5b",
        "gas": "0xec57",
        "value": "0x0",
        "input": "0x8bc76f7400000000000000000000000000000000000000000000000000000000000000000000000000000000000000004345472a0c6164f35808cdb7e7eccd3d326cc50b0000000000000000000000004fa6148c9dabc7a737422fb1b3ab9088c878d26c0000000000000000000000000000000000000000000000000000000000008001",
        "nonce": "0x27",
        "chainId": "0x89"
      },
      "additionalContracts": [],
      "isFixedGasLimit": false
    }
  ],
  "receipts": [
    {
      "status": "0x1",
      "cumulativeGasUsed": "0x72f7f6",
      "logs": [
        {
          "address": "0x3fac7cb5b45a3b59d76b6926bc704cf3cc522437",
          "topics": [
            "0xacee94c8a79111860852775471f35a102ad3dc32ff2716802bd1000ceb51f5a8",
            "0x000000000000000000000000cc88d28f7d4b0d5afaccc77f6102d88ee630fa17"
          ],
          "data": "0x00000000000000000000000000000000000000000000000000000000000000000000000000000000000000004fa6148c9dabc7a737422fb1b3ab9088c878d26c0000000000000000000000000000000000000000000000000000000000008001",
          "blockHash": "0xc35022c09e22d5af3ff0e6907c6b7ef8099c8b5cc48c0d5ccb411ece78087913",
          "blockNumber": "0x3f68c54",
          "transactionHash": "0x8ec9ebed851da7d7c952bbaeec416516b16cebb4dd0d5ba3961a824371c8e43e",
          "transactionIndex": "0x3c",
          "logIndex": "0xc9",
          "removed": false
        },
        {
          "address": "0x3fac7cb5b45a3b59d76b6926bc704cf3cc522437",
          "topics": [
            "0xa133e3c36769b3c9a2109eba45aba2da2ad0ccab8c9c6cc6c244892ba14d0f70",
            "0x000000000000000000000000cc88d28f7d4b0d5afaccc77f6102d88ee630fa17"
          ],
          "data": "0x00000000000000000000000000000000000000000000000000000000000000000000000000000000000000004fa6148c9dabc7a737422fb1b3ab9088c878d26c00000000000000000000000000000000000000000000000000000000000080010000000000000000000000000000000000000000000000000000000000000006",
          "blockHash": "0xc35022c09e22d5af3ff0e6907c6b7ef8099c8b5cc48c0d5ccb411ece78087913",
          "blockNumber": "0x3f68c54",
          "transactionHash": "0x8ec9ebed851da7d7c952bbaeec416516b16cebb4dd0d5ba3961a824371c8e43e",
          "transactionIndex": "0x3c",
          "logIndex": "0xca",
          "removed": false
        },
        {
          "address": "0x0000000000000000000000000000000000001010",
          "topics": [
            "0x4dfe1bbbcf077ddc3e01291eea2d5c70c2b422b415d95645b9adcfd678cb1d63",
            "0x0000000000000000000000000000000000000000000000000000000000001010",
            "0x000000000000000000000000d89421cd5dd6d6269fbb9307535c386afe11a23e",
            "0x00000000000000000000000067b94473d81d0cd00849d563c94d0432ac988b49"
          ],
          "data": "0x0000000000000000000000000000000000000000000000000005ea9d8413d20800000000000000000000000000000000000000000000000f640cc5f50eae58a0000000000000000000000000000000000000000000000e40c7f19204fb69bf2200000000000000000000000000000000000000000000000f6406db578a9a8698000000000000000000000000000000000000000000000e40c7f77ca27f7d912a",
          "blockHash": "0xc35022c09e22d5af3ff0e6907c6b7ef8099c8b5cc48c0d5ccb411ece78087913",
          "blockNumber": "0x3f68c54",
          "transactionHash": "0x8ec9ebed851da7d7c952bbaeec416516b16cebb4dd0d5ba3961a824371c8e43e",
          "transactionIndex": "0x3c",
          "logIndex": "0xcb",
          "removed": false
        }
      ],
      "logsBloom": "0x00000000000000000000000000000000000000000000000040000040000000000000000000000000000000080000000000008000000000000000000000000000000000000100000000000000000000800000000000000000200100000000000000000000000000000000000000000009010000000000000080000000000000000000000000100008000000000000000000000000040000000000000000000000220000000000000000000000000000000000000000000001000000000000004000800000000000000001000000008000000000000000000000100000000000000000020000000000000000000000000000000000000800800000000000100000",
      "type": "0x2",
      "transactionHash": "0x8ec9ebed851da7d7c952bbaeec416516b16cebb4dd0d5ba3961a824371c8e43e",
      "transactionIndex": "0x3c",
      "blockHash": "0xc35022c09e22d5af3ff0e6907c6b7ef8099c8b5cc48c0d5ccb411ece78087913",
      "blockNumber": "0x3f68c54",
      "gasUsed": "0xf948",
      "effectiveGasPrice": "0xba4042c5e",
      "from": "0xd89421cd5dd6d6269fbb9307535c386afe11a23e",
      "to": "0x3fac7cb5b45a3b59d76b6926bc704cf3cc522437",
      "contractAddress": null
    },
    {
      "status": "0x1",
      "cumulativeGasUsed": "0x739990",
      "logs": [
        {
          "address": "0x7519550ae8b6f9d32e9c1a939fb5c186f660be5b",
          "topics": [
            "0xacee94c8a79111860852775471f35a102ad3dc32ff2716802bd1000ceb51f5a8",
            "0x0000000000000000000000000000000000000000000000000000000000000000"
          ],
          "data": "0x0000000000000000000000004345472a0c6164f35808cdb7e7eccd3d326cc50b0000000000000000000000004fa6148c9dabc7a737422fb1b3ab9088c878d26c0000000000000000000000000000000000000000000000000000000000008001",
          "blockHash": "0xc35022c09e22d5af3ff0e6907c6b7ef8099c8b5cc48c0d5ccb411ece78087913",
          "blockNumber": "0x3f68c54",
          "transactionHash": "0x4d428f69d8acc34246f98cc003b1abd285de6edbe1dc0fc522f7526657a68c10",
          "transactionIndex": "0x3d",
          "logIndex": "0xcc",
          "removed": false
        },
        {
          "address": "0x0000000000000000000000000000000000001010",
          "topics": [
            "0x4dfe1bbbcf077ddc3e01291eea2d5c70c2b422b415d95645b9adcfd678cb1d63",
            "0x0000000000000000000000000000000000000000000000000000000000001010",
            "0x000000000000000000000000d89421cd5dd6d6269fbb9307535c386afe11a23e",
            "0x00000000000000000000000067b94473d81d0cd00849d563c94d0432ac988b49"
          ],
          "data": "0x0000000000000000000000000000000000000000000000000003d5e133e6a08a00000000000000000000000000000000000000000000000f64017026de5a7030000000000000000000000000000000000000000000000e40c7f77ca27f7d912a00000000000000000000000000000000000000000000000f63fd9a45aa73cfa6000000000000000000000000000000000000000000000e40c7fb5283b36431b4",
          "blockHash": "0xc35022c09e22d5af3ff0e6907c6b7ef8099c8b5cc48c0d5ccb411ece78087913",
          "blockNumber": "0x3f68c54",
          "transactionHash": "0x4d428f69d8acc34246f98cc003b1abd285de6edbe1dc0fc522f7526657a68c10",
          "transactionIndex": "0x3d",
          "logIndex": "0xcd",
          "removed": false
        }
      ],
      "logsBloom": "0x00000000000000000000000000000000000000000000000000000000000010000000000000000000000000080000000000008000000000000000000000000000000000000100000000000000000000800000000000000000000100000000000000000000020000000000000000000800010000000000000080000000000000000000000000100000000000000000000000000000000000000000000000000000200000000000000000000000000000000000000000000000000000000000004000800000000000000001000000008000004000000000000000100000000020000000020000000000000000000000000000000000000800808000000000100000",
      "type": "0x2",
      "transactionHash": "0x4d428f69d8acc34246f98cc003b1abd285de6edbe1dc0fc522f7526657a68c10",
      "transactionIndex": "0x3d",
      "blockHash": "0xc35022c09e22d5af3ff0e6907c6b7ef8099c8b5cc48c0d5ccb411ece78087913",
      "blockNumber": "0x3f68c54",
      "gasUsed": "0xa19a",
      "effectiveGasPrice": "0xba4042c5e",
      "from": "0xd89421cd5dd6d6269fbb9307535c386afe11a23e",
      "to": "0x7519550ae8b6f9d32e9c1a939fb5c186f660be5b",
      "contractAddress": null
    }
  ],
  "libraries": [],
  "pending": [],
  "returns": {},
  "timestamp": 1736425897,
  "chain": 137,
  "commit": "3481f78"
}