{
  "transactions": [
    {
      "hash": "0x30243cd9ad5fa4c93722e66ed929acca10bf6f8df9124429677719a57a78e6ee",
      "transactionType": "CALL",
      "contractName": null,
      "contractAddress": "0x2ee8e8d7c113bb7c180f4755f06ed50be53bede5",
      "function": "registerToken(address,(address,address,uint256))",
      "arguments": [
        "0x80D55c03180349Fff4a229102F62328220A96444",
        "(0x8DEAdC20f7218994c86b59eE1D5c7979fFcAa893, 0x4fa6148C9DAbC7A737422fb1b3AB9088c878d26C, 32769)"
      ],
      "transaction": {
        "from": "0xd89421cd5dd6d6269fbb9307535c386afe11a23e",
        "to": "0x2ee8e8d7c113bb7c180f4755f06ed50be53bede5",
        "gas": "0xfdb5",
        "value": "0x0",
        "input": "0x8bc76f7400000000000000000000000080d55c03180349fff4a229102f62328220a964440000000000000000000000008deadc20f7218994c86b59ee1d5c7979ffcaa8930000000000000000000000004fa6148c9dabc7a737422fb1b3ab9088c878d26c0000000000000000000000000000000000000000000000000000000000008001",
        "nonce": "0x34",
        "chainId": "0x1"
      },
      "additionalContracts": [],
      "isFixedGasLimit": false
    }
  ],
  "receipts": [
    {
      "status": "0x1",
      "cumulativeGasUsed": "0x378de5",
      "logs": [
        {
          "address": "0x2ee8e8d7c113bb7c180f4755f06ed50be53bede5",
          "topics": [
            "0xacee94c8a79111860852775471f35a102ad3dc32ff2716802bd1000ceb51f5a8",
            "0x00000000000000000000000080d55c03180349fff4a229102f62328220a96444"
          ],
          "data": "0x0000000000000000000000008deadc20f7218994c86b59ee1d5c7979ffcaa8930000000000000000000000004fa6148c9dabc7a737422fb1b3ab9088c878d26c0000000000000000000000000000000000000000000000000000000000008001",
          "blockHash": "0xc7c5031c5887c5e65d76cac605b6f02870e7d1c0ecf612ef4f540279f584dfa4",
          "blockNumber": "0x149e0e3",
          "transactionHash": "0x30243cd9ad5fa4c93722e66ed929acca10bf6f8df9124429677719a57a78e6ee",
          "transactionIndex": "0x32",
          "logIndex": "0x4b",
          "removed": false
        }
      ],
      "logsBloom": "0x00000000000000000000000000000000000000000000000000000000001000000000000000000000000000000000000000000000200000000000000000000008000000000000000000000000000000000000000000000000000000000000000000000000000000000000000000000000010000000000000000000000000000000000000000100000000000000000000000000000000000000000000000000000000000000000000000000000080000000000000000000000000000000000000000000000000000000000000000000000000000000000000000000000000000000000000000000000000040000000000000000000000800000800000000000000",
      "type": "0x2",
      "transactionHash": "0x30243cd9ad5fa4c93722e66ed929acca10bf6f8df9124429677719a57a78e6ee",
      "transactionIndex": "0x32",
      "blockHash": "0xc7c5031c5887c5e65d76cac605b6f02870e7d1c0ecf612ef4f540279f584dfa4",
      "blockNumber": "0x149e0e3",
      "gasUsed": "0xad7a",
      "effectiveGasPrice": "0xa74c1323",
      "from": "0xd89421cd5dd6d6269fbb9307535c386afe11a23e",
      "to": "0x2ee8e8d7c113bb7c180f4755f06ed50be53bede5",
      "contractAddress": null
    }
  ],
  "libraries": [],
  "pending": [],
  "returns": {},
  "timestamp": 1736811725,
  "chain": 1,
  "commit": "011c1e0"
}