{
  "transactions": [
    {
      "hash": "0x51a9f5eaf5ad17b0c051f9537e4d48bc744550a928d76dce6023b36f39c170c7",
      "transactionType": "CALL",
      "contractName": null,
      "contractAddress": "0x4fa6148c9dabc7a737422fb1b3ab9088c878d26c",
      "function": "registerToken(address,(address,address,uint256))",
      "arguments": [
        "0xCcF3Ea256d42Aeef0EE0e39Bfc94bAa9Fa14b0Ba",
        "(0x7659CE147D0e714454073a5dd7003544234b6Aa0, 0x2EE8e8D7C113Bb7c180f4755f06ed50bE53BEDe5, 1)"
      ],
      "transaction": {
        "from": "0xd89421cd5dd6d6269fbb9307535c386afe11a23e",
        "to": "0x4fa6148c9dabc7a737422fb1b3ab9088c878d26c",
        "gas": "0xed93",
        "value": "0x0",
        "input": "0x8bc76f74000000000000000000000000ccf3ea256d42aeef0ee0e39bfc94baa9fa14b0ba0000000000000000000000007659ce147d0e714454073a5dd7003544234b6aa00000000000000000000000002ee8e8d7c113bb7c180f4755f06ed50be53bede50000000000000000000000000000000000000000000000000000000000000001",
        "nonce": "0x39",
        "chainId": "0x8001"
      },
      "additionalContracts": [],
      "isFixedGasLimit": false
    },
    {
      "hash": "0x7591349f6483491c4659ff331c533e3197c9f517bcb0128edcf4654b563677e8",
      "transactionType": "CALL",
      "contractName": null,
      "contractAddress": "0x4fa6148c9dabc7a737422fb1b3ab9088c878d26c",
      "function": "registerToken(address,(address,address,uint256))",
      "arguments": [
        "0x17D5af5658A24bd964984b36d28e879a8626adC3",
        "(0x80D55c03180349Fff4a229102F62328220A96444, 0x2EE8e8D7C113Bb7c180f4755f06ed50bE53BEDe5, 1)"
      ],
      "transaction": {
        "from": "0xd89421cd5dd6d6269fbb9307535c386afe11a23e",
        "to": "0x4fa6148c9dabc7a737422fb1b3ab9088c878d26c",
        "gas": "0x15f54",
        "value": "0x0",
        "input": "0x8bc76f7400000000000000000000000017d5af5658a24bd964984b36d28e879a8626adc300000000000000000000000080d55c03180349fff4a229102f62328220a964440000000000000000000000002ee8e8d7c113bb7c180f4755f06ed50be53bede50000000000000000000000000000000000000000000000000000000000000001",
        "nonce": "0x3a",
        "chainId": "0x8001"
      },
      "additionalContracts": [],
      "isFixedGasLimit": false
    },
    {
      "hash": "0x841f7c68cf6ac812d4f9472378c3932c88aaf7a9112402f809da4b7fd2b81e3c",
      "transactionType": "CALL",
      "contractName": null,
      "contractAddress": "0x4fa6148c9dabc7a737422fb1b3ab9088c878d26c",
      "function": "registerToken(address,(address,address,uint256))",
      "arguments": [
        "0x17D5af5658A24bd964984b36d28e879a8626adC3",
        "(0x0000000000000000000000000000000000000000, 0x2EE8e8D7C113Bb7c180f4755f06ed50bE53BEDe5, 1)"
      ],
      "transaction": {
        "from": "0xd89421cd5dd6d6269fbb9307535c386afe11a23e",
        "to": "0x4fa6148c9dabc7a737422fb1b3ab9088c878d26c",
        "gas": "0xd45a",
        "value": "0x0",
        "input": "0x8bc76f7400000000000000000000000017d5af5658a24bd964984b36d28e879a8626adc300000000000000000000000000000000000000000000000000000000000000000000000000000000000000002ee8e8d7c113bb7c180f4755f06ed50be53bede50000000000000000000000000000000000000000000000000000000000000001",
        "nonce": "0x3b",
        "chainId": "0x8001"
      },
      "additionalContracts": [],
      "isFixedGasLimit": false
    },
    {
      "hash": "0x80aa20869fcf64c4dd76d0183940b5b1e425dd4f287e332566eea0ab59fcd170",
      "transactionType": "CALL",
      "contractName": null,
      "contractAddress": "0x4fa6148c9dabc7a737422fb1b3ab9088c878d26c",
      "function": "registerToken(address,(address,address,uint256))",
      "arguments": [
        "0xD819257C964A78A493DF93D5643E9490b54C5af2",
        "(0x4674a4F24C5f63D53F22490Fb3A08eAAAD739ff8, 0x2EE8e8D7C113Bb7c180f4755f06ed50bE53BEDe5, 1)"
      ],
      "transaction": {
        "from": "0xd89421cd5dd6d6269fbb9307535c386afe11a23e",
        "to": "0x4fa6148c9dabc7a737422fb1b3ab9088c878d26c",
        "gas": "0xe070",
        "value": "0x0",
        "input": "0x8bc76f74000000000000000000000000d819257c964a78a493df93d5643e9490b54c5af20000000000000000000000004674a4f24c5f63d53f22490fb3a08eaaad739ff80000000000000000000000002ee8e8d7c113bb7c180f4755f06ed50be53bede50000000000000000000000000000000000000000000000000000000000000001",
        "nonce": "0x3c",
        "chainId": "0x8001"
      },
      "additionalContracts": [],
      "isFixedGasLimit": false
    },
    {
      "hash": "0xea115f3a9d7282857888597a4ba40d7940d88af3478e470772ad0ea7ff05cb4f",
      "transactionType": "CALL",
      "contractName": null,
      "contractAddress": "0x4fa6148c9dabc7a737422fb1b3ab9088c878d26c",
      "function": "registerToken(address,(address,address,uint256))",
      "arguments": [
        "0x2938fF251Aecc1dfa768D7d0276eB6d073690317",
        "(0x2260FAC5E5542a773Aa44fBCfeDf7C193bc2C599, 0x2EE8e8D7C113Bb7c180f4755f06ed50bE53BEDe5, 1)"
      ],
      "transaction": {
        "from": "0xd89421cd5dd6d6269fbb9307535c386afe11a23e",
        "to": "0x4fa6148c9dabc7a737422fb1b3ab9088c878d26c",
        "gas": "0xe070",
        "value": "0x0",
        "input": "0x8bc76f740000000000000000000000002938ff251aecc1dfa768d7d0276eb6d0736903170000000000000000000000002260fac5e5542a773aa44fbcfedf7c193bc2c5990000000000000000000000002ee8e8d7c113bb7c180f4755f06ed50be53bede50000000000000000000000000000000000000000000000000000000000000001",
        "nonce": "0x3d",
        "chainId": "0x8001"
      },
      "additionalContracts": [],
      "isFixedGasLimit": false
    },
    {
      "hash": "0x1a56ec475df381b8e443b3d31a258c69bff2f2ead03b0cf77ce4f9eae20e1069",
      "transactionType": "CALL",
      "contractName": null,
      "contractAddress": "0x4fa6148c9dabc7a737422fb1b3ab9088c878d26c",
      "function": "registerToken(address,(address,address,uint256))",
      "arguments": [
        "0x2274005778063684fbB1BfA96a2b725dC37D75f9",
        "(0xdAC17F958D2ee523a2206206994597C13D831ec7, 0x2EE8e8D7C113Bb7c180f4755f06ed50bE53BEDe5, 1)"
      ],
      "transaction": {
        "from": "0xd89421cd5dd6d6269fbb9307535c386afe11a23e",
        "to": "0x4fa6148c9dabc7a737422fb1b3ab9088c878d26c",
        "gas": "0xed93",
        "value": "0x0",
        "input": "0x8bc76f740000000000000000000000002274005778063684fbb1bfa96a2b725dc37d75f9000000000000000000000000dac17f958d2ee523a2206206994597c13d831ec70000000000000000000000002ee8e8d7c113bb7c180f4755f06ed50be53bede50000000000000000000000000000000000000000000000000000000000000001",
        "nonce": "0x3e",
        "chainId": "0x8001"
      },
      "additionalContracts": [],
      "isFixedGasLimit": false
    },
    {
      "hash": "0x7f0b63ec3f4b43d47970aba5900078b1fcaf7167c9a018674792cbad4ff74e99",
      "transactionType": "CALL",
      "contractName": null,
      "contractAddress": "0x4fa6148c9dabc7a737422fb1b3ab9088c878d26c",
      "function": "registerToken(address,(address,address,uint256))",
      "arguments": [
        "0x9121A67cA79B6778eAb477c5F76dF6de7C79cC4b",
        "(0xD43Be54C1aedf7Ee4099104f2DaE4eA88B18A249, 0x2EE8e8D7C113Bb7c180f4755f06ed50bE53BEDe5, 1)"
      ],
      "transaction": {
        "from": "0xd89421cd5dd6d6269fbb9307535c386afe11a23e",
        "to": "0x4fa6148c9dabc7a737422fb1b3ab9088c878d26c",
        "gas": "0xe070",
        "value": "0x0",
        "input": "0x8bc76f740000000000000000000000009121a67ca79b6778eab477c5f76df6de7c79cc4b000000000000000000000000d43be54c1aedf7ee4099104f2dae4ea88b18a2490000000000000000000000002ee8e8d7c113bb7c180f4755f06ed50be53bede50000000000000000000000000000000000000000000000000000000000000001",
        "nonce": "0x3f",
        "chainId": "0x8001"
      },
      "additionalContracts": [],
      "isFixedGasLimit": false
    },
    {
      "hash": "0x07dc046f7802271f9980ad8ce71783e53ebc03101324d17b1db1cb59db90457d",
      "transactionType": "CALL",
      "contractName": null,
      "contractAddress": "0x4fa6148c9dabc7a737422fb1b3ab9088c878d26c",
      "function": "registerTokenWithScale(address,(address,address,uint256),int8)",
      "arguments": [
        "0x0000000000000000000000000000000000000000",
        "(0x6EeB539D662bB971a4a01211c67CB7f65B09b802, 0x99bCB148BEC418Fc66ebF7ACA3668ec1C6289695, 1)",
        "-6"
      ],
      "transaction": {
        "from": "0xd89421cd5dd6d6269fbb9307535c386afe11a23e",
        "to": "0x4fa6148c9dabc7a737422fb1b3ab9088c878d26c",
        "gas": "0xeee3",
        "value": "0x0",
        "input": "0x126d5f2f00000000000000000000000000000000000000000000000000000000000000000000000000000000000000006eeb539d662bb971a4a01211c67cb7f65b09b80200000000000000000000000099bcb148bec418fc66ebf7aca3668ec1c62896950000000000000000000000000000000000000000000000000000000000000001fffffffffffffffffffffffffffffffffffffffffffffffffffffffffffffffa",
        "nonce": "0x40",
        "chainId": "0x8001"
      },
      "additionalContracts": [],
      "isFixedGasLimit": false
    },
    {
      "hash": "0x9a54627ecb151cacdb3b449242f1149797b22cae718ffd9a9189e8dc2bc882eb",
      "transactionType": "CALL",
      "contractName": null,
      "contractAddress": "0x4fa6148c9dabc7a737422fb1b3ab9088c878d26c",
      "function": "registerToken(address,(address,address,uint256))",
      "arguments": [
        "0xE9D47623bb2B3C497668B34fcf61E101a7ea4058",
        "(0xA87135285Ae208e22068AcDBFf64B11Ec73EAa5A, 0x99bCB148BEC418Fc66ebF7ACA3668ec1C6289695, 1)"
      ],
      "transaction": {
        "from": "0xd89421cd5dd6d6269fbb9307535c386afe11a23e",
        "to": "0x4fa6148c9dabc7a737422fb1b3ab9088c878d26c",
        "gas": "0xe070",
        "value": "0x0",
        "input": "0x8bc76f74000000000000000000000000e9d47623bb2b3c497668b34fcf61e101a7ea4058000000000000000000000000a87135285ae208e22068acdbff64b11ec73eaa5a00000000000000000000000099bcb148bec418fc66ebf7aca3668ec1c62896950000000000000000000000000000000000000000000000000000000000000001",
        "nonce": "0x41",
        "chainId": "0x8001"
      },
      "additionalContracts": [],
      "isFixedGasLimit": false
    },
    {
      "hash": "0x418c6e5b4c581157c066530b005b83ae77cc44e808347d9ff2b84f8e920818da",
      "transactionType": "CALL",
      "contractName": null,
      "contractAddress": "0x4fa6148c9dabc7a737422fb1b3ab9088c878d26c",
      "function": "registerToken(address,(address,address,uint256))",
      "arguments": [
        "0xa0A5795e7eccc43Ba92d2A0b7804696F8B9e1a05",
        "(0xBd636FFfbF349A4479db315c585E823164cF58F0, 0x99bCB148BEC418Fc66ebF7ACA3668ec1C6289695, 1)"
      ],
      "transaction": {
        "from": "0xd89421cd5dd6d6269fbb9307535c386afe11a23e",
        "to": "0x4fa6148c9dabc7a737422fb1b3ab9088c878d26c",
        "gas": "0xe070",
        "value": "0x0",
        "input": "0x8bc76f74000000000000000000000000a0a5795e7eccc43ba92d2a0b7804696f8b9e1a05000000000000000000000000bd636fffbf349a4479db315c585e823164cf58f000000000000000000000000099bcb148bec418fc66ebf7aca3668ec1c62896950000000000000000000000000000000000000000000000000000000000000001",
        "nonce": "0x42",
        "chainId": "0x8001"
      },
      "additionalContracts": [],
      "isFixedGasLimit": false
    },
    {
      "hash": "0x1d30620318bc42588e89513ef4011c1fad490cc139c21ab51ffbb732d243db6b",
      "transactionType": "CALL",
      "contractName": null,
      "contractAddress": "0x4fa6148c9dabc7a737422fb1b3ab9088c878d26c",
      "function": "registerToken(address,(address,address,uint256))",
      "arguments": [
        "0x1202078D298Ff0358A95b6fbf48Ec166dB414660",
        "(0x0c7c5b92893A522952EB4c939aA24B65FF910C48, 0x99bCB148BEC418Fc66ebF7ACA3668ec1C6289695, 1)"
      ],
      "transaction": {
        "from": "0xd89421cd5dd6d6269fbb9307535c386afe11a23e",
        "to": "0x4fa6148c9dabc7a737422fb1b3ab9088c878d26c",
        "gas": "0xe070",
        "value": "0x0",
        "input": "0x8bc76f740000000000000000000000001202078d298ff0358a95b6fbf48ec166db4146600000000000000000000000000c7c5b92893a522952eb4c939aa24b65ff910c4800000000000000000000000099bcb148bec418fc66ebf7aca3668ec1c62896950000000000000000000000000000000000000000000000000000000000000001",
        "nonce": "0x43",
        "chainId": "0x8001"
      },
      "additionalContracts": [],
      "isFixedGasLimit": false
    },
    {
      "hash": "0xc0f0af200e34d8a21158db664037ec7c6c401c9a567b4e66e597c82f3fb069b9",
      "transactionType": "CALL",
      "contractName": null,
      "contractAddress": "0x4fa6148c9dabc7a737422fb1b3ab9088c878d26c",
      "function": "registerToken(address,(address,address,uint256))",
      "arguments": [
        "0xc99ECB82a27B45592eA02ACe9e3C42050f3c00C0",
        "(0xf7030C3f43b85874ae12B57F44cd682196568b47, 0x99bCB148BEC418Fc66ebF7ACA3668ec1C6289695, 1)"
      ],
      "transaction": {
        "from": "0xd89421cd5dd6d6269fbb9307535c386afe11a23e",
        "to": "0x4fa6148c9dabc7a737422fb1b3ab9088c878d26c",
        "gas": "0xed93",
        "value": "0x0",
        "input": "0x8bc76f74000000000000000000000000c99ecb82a27b45592ea02ace9e3c42050f3c00c0000000000000000000000000f7030c3f43b85874ae12b57f44cd682196568b4700000000000000000000000099bcb148bec418fc66ebf7aca3668ec1c62896950000000000000000000000000000000000000000000000000000000000000001",
        "nonce": "0x44",
        "chainId": "0x8001"
      },
      "additionalContracts": [],
      "isFixedGasLimit": false
    }
  ],
  "receipts": [
    {
      "status": "0x1",
      "cumulativeGasUsed": "0x9d80",
      "logs": [
        {
          "address": "0x4fa6148c9dabc7a737422fb1b3ab9088c878d26c",
          "topics": [
            "0xacee94c8a79111860852775471f35a102ad3dc32ff2716802bd1000ceb51f5a8",
            "0x000000000000000000000000ccf3ea256d42aeef0ee0e39bfc94baa9fa14b0ba"
          ],
          "data": "0x0000000000000000000000007659ce147d0e714454073a5dd7003544234b6aa00000000000000000000000002ee8e8d7c113bb7c180f4755f06ed50be53bede50000000000000000000000000000000000000000000000000000000000000001",
          "blockHash": "0xcb06dd3864b0cfc5c02d13f55be55f0873af9d9cde5eebdd1d4e30604940ed90",
          "blockNumber": "0x42be00",
          "transactionHash": "0x51a9f5eaf5ad17b0c051f9537e4d48bc744550a928d76dce6023b36f39c170c7",
          "transactionIndex": "0x0",
          "logIndex": "0x0",
          "removed": false
        }
      ],
      "logsBloom": "0x00000000000000000000000000000000000000000000000000000000000000000000000000000000000000000000000000100000000000000000000000000000000000000000000000000000000000000000000000000000000000000000000800000000000000000000000000000000010000010000000000000000000000000000000000100000000000000000000000000000000000000000000000000000000000000000000000000000000000000000000000000000000000000000000000000000000000000000000000000000000000000002000000400000000000000000000000000000000000000000000000000000040800000000000000000000",
      "type": "0x0",
      "transactionHash": "0x51a9f5eaf5ad17b0c051f9537e4d48bc744550a928d76dce6023b36f39c170c7",
      "transactionIndex": "0x0",
      "blockHash": "0xcb06dd3864b0cfc5c02d13f55be55f0873af9d9cde5eebdd1d4e30604940ed90",
      "blockNumber": "0x42be00",
      "gasUsed": "0x9d80",
      "effectiveGasPrice": "0x454b7b38e70",
      "from": "0xd89421cd5dd6d6269fbb9307535c386afe11a23e",
      "to": "0x4fa6148c9dabc7a737422fb1b3ab9088c878d26c",
      "contractAddress": null,
      "r": "0xE843D7F6125371C77A1A10F77F7E4608896DD5FFC14054EBA15481F8262D6E1B",
      "root": "0x0000000000000000000000000000000000000000000000000000000000001010",
      "s": "0x602915615857EECBEC8537A9D431BCB590C87E1A2CF450010698FBFD414D18FF",
      "v": "0x10026"
    },
    {
      "status": "0x1",
      "cumulativeGasUsed": "0xec40",
      "logs": [
        {
          "address": "0x4fa6148c9dabc7a737422fb1b3ab9088c878d26c",
          "topics": [
            "0xacee94c8a79111860852775471f35a102ad3dc32ff2716802bd1000ceb51f5a8",
            "0x00000000000000000000000017d5af5658a24bd964984b36d28e879a8626adc3"
          ],
          "data": "0x00000000000000000000000080d55c03180349fff4a229102f62328220a964440000000000000000000000002ee8e8d7c113bb7c180f4755f06ed50be53bede50000000000000000000000000000000000000000000000000000000000000001",
          "blockHash": "0xd1a727569a1dc3a7b419c86c15f14ff2064d7b4c6bc4b25d9f8b2d8653bdc4b5",
          "blockNumber": "0x42be02",
          "transactionHash": "0x7591349f6483491c4659ff331c533e3197c9f517bcb0128edcf4654b563677e8",
          "transactionIndex": "0x1",
          "logIndex": "0x0",
          "removed": false
        }
      ],
      "logsBloom": "0x00000000000000000000000000000000000000000000000000000000000000000000000000000000000000000000000000000000000000000000000000000000000000000000000000000000000000000000000000000000000000000000000800000000000000000000000000000000010000000000000000000000000000000000000000100000000000000000000000000000000000000000000000000000000000000000000000000000000000000000002000000000000000000000000000000000000000000000000000000000000000000000000000400000000000000000000008000000000000000000000000000000040800000001000000000000",
      "type": "0x0",
      "transactionHash": "0x7591349f6483491c4659ff331c533e3197c9f517bcb0128edcf4654b563677e8",
      "transactionIndex": "0x1",
      "blockHash": "0xd1a727569a1dc3a7b419c86c15f14ff2064d7b4c6bc4b25d9f8b2d8653bdc4b5",
      "blockNumber": "0x42be02",
      "gasUsed": "0xec40",
      "effectiveGasPrice": "0x454b7b38e70",
      "from": "0xd89421cd5dd6d6269fbb9307535c386afe11a23e",
      "to": "0x4fa6148c9dabc7a737422fb1b3ab9088c878d26c",
      "contractAddress": null,
      "r": "0xCA10B0157B86C7F8EB659D8F11B38EA7E975C21EDBF7825E1EFA9638E7D944F2",
      "root": "0x0000000000000000000000000000000000000000000000000000000000001010",
      "s": "0x25079873828443E76953DEF0F05D27D62C7895F2D85935618BEC97FFCD78027B",
      "v": "0x10025"
    },
    {
      "status": "0x1",
      "cumulativeGasUsed": "0xa8fc",
      "logs": [
        {
          "address": "0x4fa6148c9dabc7a737422fb1b3ab9088c878d26c",
          "topics": [
            "0xacee94c8a79111860852775471f35a102ad3dc32ff2716802bd1000ceb51f5a8",
            "0x00000000000000000000000017d5af5658a24bd964984b36d28e879a8626adc3"
          ],
          "data": "0x00000000000000000000000000000000000000000000000000000000000000000000000000000000000000002ee8e8d7c113bb7c180f4755f06ed50be53bede50000000000000000000000000000000000000000000000000000000000000001",
          "blockHash": "0x5f5c710789ee43828bef4bcb48c85b795b057747cc6c2a00ef5b17db590170bb",
          "blockNumber": "0x42be04",
          "transactionHash": "0x841f7c68cf6ac812d4f9472378c3932c88aaf7a9112402f809da4b7fd2b81e3c",
          "transactionIndex": "0x0",
          "logIndex": "0x0",
          "removed": false
        }
      ],
      "logsBloom": "0x00000000000000000000000000000000000000000000000000000000000000000000000000000000000000000000000000000000000000000000000000000000000000000000000000000000000000000000000000000000000000000000000800000000000000000000000000000000010000000000000000000000000000000000000000100000000000000000000000000000000000000000000000000000000000000000000000000000000000000000002000000000000000000000000000000000000000000000000000000000000000000000000000400000000000000000000008000000000000000000000000000000040800000001000000000000",
      "type": "0x0",
      "transactionHash": "0x841f7c68cf6ac812d4f9472378c3932c88aaf7a9112402f809da4b7fd2b81e3c",
      "transactionIndex": "0x0",
      "blockHash": "0x5f5c710789ee43828bef4bcb48c85b795b057747cc6c2a00ef5b17db590170bb",
      "blockNumber": "0x42be04",
      "gasUsed": "0xa8fc",
      "effectiveGasPrice": "0x454b7b38e70",
      "from": "0xd89421cd5dd6d6269fbb9307535c386afe11a23e",
      "to": "0x4fa6148c9dabc7a737422fb1b3ab9088c878d26c",
      "contractAddress": null,
      "r": "0xF09B474A7F3AC72D1CD771BC55AD3FDCF37050B9BFA57123DE326281A6AF47C7",
      "root": "0x0000000000000000000000000000000000000000000000000000000000001010",
      "s": "0x1404CBFF817AC4E00589A50386F85A5EDA67521AC0F8D821D3A433473DFCA91D",
      "v": "0x10025"
    },
    {
      "status": "0x1",
      "cumulativeGasUsed": "0x9d80",
      "logs": [
        {
          "address": "0x4fa6148c9dabc7a737422fb1b3ab9088c878d26c",
          "topics": [
            "0xacee94c8a79111860852775471f35a102ad3dc32ff2716802bd1000ceb51f5a8",
            "0x000000000000000000000000d819257c964a78a493df93d5643e9490b54c5af2"
          ],
          "data": "0x0000000000000000000000004674a4f24c5f63d53f22490fb3a08eaaad739ff80000000000000000000000002ee8e8d7c113bb7c180f4755f06ed50be53bede50000000000000000000000000000000000000000000000000000000000000001",
          "blockHash": "0xc3428d68667a2ce9b59325d09b12e237f03e7db28033a53c1ee078f79e82e50c",
          "blockNumber": "0x42be06",
          "transactionHash": "0x80aa20869fcf64c4dd76d0183940b5b1e425dd4f287e332566eea0ab59fcd170",
          "transactionIndex": "0x1",
          "logIndex": "0x0",
          "removed": false
        }
      ],
      "logsBloom": "0x00000000000000000000000000000000000000000000000000000000000000000000000000000000000000000000000000000000000000000000000000000000000000000000000000000000000000000000000000000000000000000000000800000000000000000000000000000000010000000000000000000000000000000000000000100000000000000000000000000000008000000000000000000000000000000000000000000000000000000000000000000000000000000000000000000000000000000000000000000000000000008000000000400000000000000000000000000000000000000000000000000000040800000000800000000000",
      "type": "0x0",
      "transactionHash": "0x80aa20869fcf64c4dd76d0183940b5b1e425dd4f287e332566eea0ab59fcd170",
      "transactionIndex": "0x1",
      "blockHash": "0xc3428d68667a2ce9b59325d09b12e237f03e7db28033a53c1ee078f79e82e50c",
      "blockNumber": "0x42be06",
      "gasUsed": "0x9d80",
      "effectiveGasPrice": "0x454b7b38e70",
      "from": "0xd89421cd5dd6d6269fbb9307535c386afe11a23e",
      "to": "0x4fa6148c9dabc7a737422fb1b3ab9088c878d26c",
      "contractAddress": null,
      "r": "0x837929165FA447D0161CF0FDE0D76662C31DC5DAC5210A9E81DD5013614A6F32",
      "root": "0x0000000000000000000000000000000000000000000000000000000000001010",
      "s": "0x1F39690865459F5E1AC71D8826A1890C5416CC05312B37C3224BFC977B773606",
      "v": "0x10026"
    },
    {
      "status": "0x1",
      "cumulativeGasUsed": "0x9d80",
      "logs": [
        {
          "address": "0x4fa6148c9dabc7a737422fb1b3ab9088c878d26c",
          "topics": [
            "0xacee94c8a79111860852775471f35a102ad3dc32ff2716802bd1000ceb51f5a8",
            "0x0000000000000000000000002938ff251aecc1dfa768d7d0276eb6d073690317"
          ],
          "data": "0x0000000000000000000000002260fac5e5542a773aa44fbcfedf7c193bc2c5990000000000000000000000002ee8e8d7c113bb7c180f4755f06ed50be53bede50000000000000000000000000000000000000000000000000000000000000001",
          "blockHash": "0x1358714696e5d3f168bae7d9ebb8f4d10e2e6d1288e51b905134f91e85897239",
          "blockNumber": "0x42be08",
          "transactionHash": "0xea115f3a9d7282857888597a4ba40d7940d88af3478e470772ad0ea7ff05cb4f",
          "transactionIndex": "0x0",
          "logIndex": "0x0",
          "removed": false
        }
      ],
      "logsBloom": "0x00000000000000000000000000000000000000200000000000000000000000000000000000000000000000000000000000000000000000000000000000000000000000000000000000000000000000000000000000000000000000000000000800000000000000000000000000000000010000000000000000000000000000004000000000100000000000000000000000000000000000000000000000000000000000000000000000000000000080000000000000000000000000000000000000000000000000000000000000000000000000000000000000400000000000000000000000000000000000000000000000000000040800000000000000000000",
      "type": "0x0",
      "transactionHash": "0xea115f3a9d7282857888597a4ba40d7940d88af3478e470772ad0ea7ff05cb4f",
      "transactionIndex": "0x0",
      "blockHash": "0x1358714696e5d3f168bae7d9ebb8f4d10e2e6d1288e51b905134f91e85897239",
      "blockNumber": "0x42be08",
      "gasUsed": "0x9d80",
      "effectiveGasPrice": "0x454b7b38e70",
      "from": "0xd89421cd5dd6d6269fbb9307535c386afe11a23e",
      "to": "0x4fa6148c9dabc7a737422fb1b3ab9088c878d26c",
      "contractAddress": null,
      "r": "0x4A6B279187ED4D1AB8E80C4AB72689059519BA103936D7C7BB99113ACFFBFA75",
      "root": "0x0000000000000000000000000000000000000000000000000000000000001010",
      "s": "0x0B2D9B778FC66EF1F432BB0D0D0DA4C0089149B4C49C23CE329577377359EB82",
      "v": "0x10025"
    },
    {
      "status": "0x1",
      "cumulativeGasUsed": "0x9d80",
      "logs": [
        {
          "address": "0x4fa6148c9dabc7a737422fb1b3ab9088c878d26c",
          "topics": [
            "0xacee94c8a79111860852775471f35a102ad3dc32ff2716802bd1000ceb51f5a8",
            "0x0000000000000000000000002274005778063684fbb1bfa96a2b725dc37d75f9"
          ],
          "data": "0x000000000000000000000000dac17f958d2ee523a2206206994597c13d831ec70000000000000000000000002ee8e8d7c113bb7c180f4755f06ed50be53bede50000000000000000000000000000000000000000000000000000000000000001",
          "blockHash": "0x5ec0b55c6bd4223dfb4a8277365b56e322eafb507a73c9144329d41d7973e4e2",
          "blockNumber": "0x42be0a",
          "transactionHash": "0x1a56ec475df381b8e443b3d31a258c69bff2f2ead03b0cf77ce4f9eae20e1069",
          "transactionIndex": "0x2",
          "logIndex": "0x0",
          "removed": false
        }
      ],
      "logsBloom": "0x00000000000000000000000000000000000000020000000000000000000000000000000000000000000000000000000000000000000000000000000000000000000000000000000000000000000000000000000000000000000000000000000800000000000000000000000000000000010000000000000000000000000000000000000000100000000000000000000000000000200000000000000000002000000000000000000000000000000000000000000000000000000000000000000000000000000000000000000000000000000000000000000000400000000000000000000000000000000000000000000000000000040800000000000000000000",
      "type": "0x0",
      "transactionHash": "0x1a56ec475df381b8e443b3d31a258c69bff2f2ead03b0cf77ce4f9eae20e1069",
      "transactionIndex": "0x2",
      "blockHash": "0x5ec0b55c6bd4223dfb4a8277365b56e322eafb507a73c9144329d41d7973e4e2",
      "blockNumber": "0x42be0a",
      "gasUsed": "0x9d80",
      "effectiveGasPrice": "0x454b7b38e70",
      "from": "0xd89421cd5dd6d6269fbb9307535c386afe11a23e",
      "to": "0x4fa6148c9dabc7a737422fb1b3ab9088c878d26c",
      "contractAddress": null,
      "r": "0xE2E542C4CEB1E2D9DDD7F70A6DC24C26F3630D4461CCB39B4EF9D369D9250960",
      "root": "0x0000000000000000000000000000000000000000000000000000000000001010",
      "s": "0x4B0887B64D513732D5676DE6A1D9970E9C0D640F22F4054C0B1E29196F7C16EA",
      "v": "0x10025"
    },
    {
      "status": "0x1",
      "cumulativeGasUsed": "0x9d80",
      "logs": [
        {
          "address": "0x4fa6148c9dabc7a737422fb1b3ab9088c878d26c",
          "topics": [
            "0xacee94c8a79111860852775471f35a102ad3dc32ff2716802bd1000ceb51f5a8",
            "0x0000000000000000000000009121a67ca79b6778eab477c5f76df6de7c79cc4b"
          ],
          "data": "0x000000000000000000000000d43be54c1aedf7ee4099104f2dae4ea88b18a2490000000000000000000000002ee8e8d7c113bb7c180f4755f06ed50be53bede50000000000000000000000000000000000000000000000000000000000000001",
          "blockHash": "0x226462fcaec87cd15021b4337d162e5dea73d61f5b4db0b2c90d654fdaf13d23",
          "blockNumber": "0x42be0c",
          "transactionHash": "0x7f0b63ec3f4b43d47970aba5900078b1fcaf7167c9a018674792cbad4ff74e99",
          "transactionIndex": "0x0",
          "logIndex": "0x0",
          "removed": false
        }
      ],
      "logsBloom": "0x00000000000000000000000000000000000000000000000000000000000000000000000000000000000000000000000000000000000000000000000000000000000000000000000001000000000000000000000000000000000000000000080800000000000000000000000000000000010000000000000000000000000000000000000000100000000000000000000000000000000000000000000000000000000000000000000000000000000000000000000000000000000000000000000000000000000000000000000000000000000000000000000000400000000000000000000000000000000000000000800000000000040800000000000000000000",
      "type": "0x0",
      "transactionHash": "0x7f0b63ec3f4b43d47970aba5900078b1fcaf7167c9a018674792cbad4ff74e99",
      "transactionIndex": "0x0",
      "blockHash": "0x226462fcaec87cd15021b4337d162e5dea73d61f5b4db0b2c90d654fdaf13d23",
      "blockNumber": "0x42be0c",
      "gasUsed": "0x9d80",
      "effectiveGasPrice": "0x454b7b38e70",
      "from": "0xd89421cd5dd6d6269fbb9307535c386afe11a23e",
      "to": "0x4fa6148c9dabc7a737422fb1b3ab9088c878d26c",
      "contractAddress": null,
      "r": "0xB646B6AE3EA71C4AF4553802D09E7C062D4D123272B6DC8D01B32D810BB2BB1C",
      "root": "0x0000000000000000000000000000000000000000000000000000000000001010",
      "s": "0x57A2DD5A81C2CC82E99C837E99C1ED1126AA802D13B05816EEE713DB49FE38CB",
      "v": "0x10026"
    },
    {
      "status": "0x1",
      "cumulativeGasUsed": "0xb130",
      "logs": [
        {
          "address": "0x4fa6148c9dabc7a737422fb1b3ab9088c878d26c",
          "topics": [
            "0xacee94c8a79111860852775471f35a102ad3dc32ff2716802bd1000ceb51f5a8",
            "0x0000000000000000000000000000000000000000000000000000000000000000"
          ],
          "data": "0x0000000000000000000000006eeb539d662bb971a4a01211c67cb7f65b09b80200000000000000000000000099bcb148bec418fc66ebf7aca3668ec1c62896950000000000000000000000000000000000000000000000000000000000000001",
          "blockHash": "0x0ffd429553a8e98210afd1be54a33b941d77c2bd1f2a8c3ac52c0e736199a65f",
          "blockNumber": "0x42be0e",
          "transactionHash": "0x07dc046f7802271f9980ad8ce71783e53ebc03101324d17b1db1cb59db90457d",
          "transactionIndex": "0x0",
          "logIndex": "0x0",
          "removed": false
        },
        {
          "address": "0x4fa6148c9dabc7a737422fb1b3ab9088c878d26c",
          "topics": [
            "0xa133e3c36769b3c9a2109eba45aba2da2ad0ccab8c9c6cc6c244892ba14d0f70",
            "0x0000000000000000000000000000000000000000000000000000000000000000"
          ],
          "data": "0x0000000000000000000000006eeb539d662bb971a4a01211c67cb7f65b09b80200000000000000000000000099bcb148bec418fc66ebf7aca3668ec1c62896950000000000000000000000000000000000000000000000000000000000000001fffffffffffffffffffffffffffffffffffffffffffffffffffffffffffffffa",
          "blockHash": "0x0ffd429553a8e98210afd1be54a33b941d77c2bd1f2a8c3ac52c0e736199a65f",
          "blockNumber": "0x42be0e",
          "transactionHash": "0x07dc046f7802271f9980ad8ce71783e53ebc03101324d17b1db1cb59db90457d",
          "transactionIndex": "0x0",
          "logIndex": "0x1",
          "removed": false
        }
      ],
      "logsBloom": "0x00000000000000000000000000000000000000000000000000000040000000000000000000000000000000000000000000000000000000000000000000000000000000000000000000000000000000000000000000000000000000000000000800000000020000000000000000000800010000000000000000000000000000000000000000100000000000000000000000000000040000000000000000000000000000000000000000000000000000000000000000000001000000000000000000000000000000000000000000000000000000000000000000400000000020000000000000000000000000000000000000000000040800000000000000000000",
      "type": "0x0",
      "transactionHash": "0x07dc046f7802271f9980ad8ce71783e53ebc03101324d17b1db1cb59db90457d",
      "transactionIndex": "0x0",
      "blockHash": "0x0ffd429553a8e98210afd1be54a33b941d77c2bd1f2a8c3ac52c0e736199a65f",
      "blockNumber": "0x42be0e",
      "gasUsed": "0xb130",
      "effectiveGasPrice": "0x454b7b38e70",
      "from": "0xd89421cd5dd6d6269fbb9307535c386afe11a23e",
      "to": "0x4fa6148c9dabc7a737422fb1b3ab9088c878d26c",
      "contractAddress": null,
      "r": "0x4C75CBD4785589E9D0D102482EB8152F0E52590928E91A220DFEFE3D726C466E",
      "root": "0x0000000000000000000000000000000000000000000000000000000000001010",
      "s": "0x300886F9218304EB6E080211C19FF42E710C2BB9157C3E7DB7E171E649015C54",
      "v": "0x10026"
    },
    {
      "status": "0x1",
      "cumulativeGasUsed": "0x9d80",
      "logs": [
        {
          "address": "0x4fa6148c9dabc7a737422fb1b3ab9088c878d26c",
          "topics": [
            "0xacee94c8a79111860852775471f35a102ad3dc32ff2716802bd1000ceb51f5a8",
            "0x000000000000000000000000e9d47623bb2b3c497668b34fcf61e101a7ea4058"
          ],
          "data": "0x000000000000000000000000a87135285ae208e22068acdbff64b11ec73eaa5a00000000000000000000000099bcb148bec418fc66ebf7aca3668ec1c62896950000000000000000000000000000000000000000000000000000000000000001",
          "blockHash": "0xc43fc29bd387580a6b03cb3fa86682e01368c64442653d53d8c98852704af635",
          "blockNumber": "0x42be10",
          "transactionHash": "0x9a54627ecb151cacdb3b449242f1149797b22cae718ffd9a9189e8dc2bc882eb",
          "transactionIndex": "0x0",
          "logIndex": "0x0",
          "removed": false
        }
      ],
      "logsBloom": "0x00000000000000000000000000000000000000000000000000000000100000000000000000000000000000000000000000000000000000000000000000000000000000000000000000000000000000000000000000000000000004000000000800000000000000000000000000000000010000000000000000000000000000000000000000100000000000000000000000000000004000000000000000000000000000000000000000000000000000000000000000000000000000000000000000000000000000000000000000000000000000000000000000400000000000000000000000000000000000000000000000000000040800000000000000000000",
      "type": "0x0",
      "transactionHash": "0x9a54627ecb151cacdb3b449242f1149797b22cae718ffd9a9189e8dc2bc882eb",
      "transactionIndex": "0x0",
      "blockHash": "0xc43fc29bd387580a6b03cb3fa86682e01368c64442653d53d8c98852704af635",
      "blockNumber": "0x42be10",
      "gasUsed": "0x9d80",
      "effectiveGasPrice": "0x454b7b38e70",
      "from": "0xd89421cd5dd6d6269fbb9307535c386afe11a23e",
      "to": "0x4fa6148c9dabc7a737422fb1b3ab9088c878d26c",
      "contractAddress": null,
      "r": "0x3863F57E827C1F976977F22EC77DCA62A332ACBF318D346D3B65B95812091BC7",
      "root": "0x0000000000000000000000000000000000000000000000000000000000001010",
      "s": "0x1B080E4083CD41B777AE2C3184B0E5B3F5C06FF547AB8D979682BB85737A7B11",
      "v": "0x10026"
    },
    {
      "status": "0x1",
      "cumulativeGasUsed": "0x9d80",
      "logs": [
        {
          "address": "0x4fa6148c9dabc7a737422fb1b3ab9088c878d26c",
          "topics": [
            "0xacee94c8a79111860852775471f35a102ad3dc32ff2716802bd1000ceb51f5a8",
            "0x000000000000000000000000a0a5795e7eccc43ba92d2a0b7804696f8b9e1a05"
          ],
          "data": "0x000000000000000000000000bd636fffbf349a4479db315c585e823164cf58f000000000000000000000000099bcb148bec418fc66ebf7aca3668ec1c62896950000000000000000000000000000000000000000000000000000000000000001",
          "blockHash": "0xdc4da11fb5c9e70d6729913fba291a5f2e0b541a3cba50f57887e173ece19544",
          "blockNumber": "0x42be12",
          "transactionHash": "0x418c6e5b4c581157c066530b005b83ae77cc44e808347d9ff2b84f8e920818da",
          "transactionIndex": "0x0",
          "logIndex": "0x0",
          "removed": false
        }
      ],
      "logsBloom": "0x00000000000000000000000000000000000000000000000000000000000000000000000000000000000000000000000400000000000000000000000000000000000000000000000000000000000000000000000000000000000000000000000800000000000000000000000000000004010000000000000000000000000000000000000000100000000000000000000000000000000000000000000000000000000000000000000000000000000000000000000000000000000000000000000000000000000000000000000000000000000000000000000000400000000000000000000000000000000000004000000000000000040800000000000000000000",
      "type": "0x0",
      "transactionHash": "0x418c6e5b4c581157c066530b005b83ae77cc44e808347d9ff2b84f8e920818da",
      "transactionIndex": "0x0",
      "blockHash": "0xdc4da11fb5c9e70d6729913fba291a5f2e0b541a3cba50f57887e173ece19544",
      "blockNumber": "0x42be12",
      "gasUsed": "0x9d80",
      "effectiveGasPrice": "0x454b7b38e70",
      "from": "0xd89421cd5dd6d6269fbb9307535c386afe11a23e",
      "to": "0x4fa6148c9dabc7a737422fb1b3ab9088c878d26c",
      "contractAddress": null,
      "r": "0xAEC216E0CB7BE02B1F9C293573E2493E0F05F90592DC727175AD2AD82F53F015",
      "root": "0x0000000000000000000000000000000000000000000000000000000000001010",
      "s": "0x19D0C1F177D904FFB2CD94F5EA2D3B595064D960000CB470D4CEE09C2850BDAE",
      "v": "0x10025"
    },
    {
      "status": "0x1",
      "cumulativeGasUsed": "0x9d80",
      "logs": [
        {
          "address": "0x4fa6148c9dabc7a737422fb1b3ab9088c878d26c",
          "topics": [
            "0xacee94c8a79111860852775471f35a102ad3dc32ff2716802bd1000ceb51f5a8",
            "0x0000000000000000000000001202078d298ff0358a95b6fbf48ec166db414660"
          ],
          "data": "0x0000000000000000000000000c7c5b92893a522952eb4c939aa24b65ff910c4800000000000000000000000099bcb148bec418fc66ebf7aca3668ec1c62896950000000000000000000000000000000000000000000000000000000000000001",
          "blockHash": "0x8858d5548228a1e4544af0e8232d607ac24c38a23160aafc8d88a8331429eb7d",
          "blockNumber": "0x42be14",
          "transactionHash": "0x1d30620318bc42588e89513ef4011c1fad490cc139c21ab51ffbb732d243db6b",
          "transactionIndex": "0x0",
          "logIndex": "0x0",
          "removed": false
        }
      ],
      "logsBloom": "0x00000000000000000000000000000000000000000000000000000000000000000000000000000000000000000000000000000000000000000000000000000000000000000000000000000000000000000000000000000000000000000000000800000000000000000000000000000000010000000000000000000800000000000000000000100000000000000000000000000000000000000000000000000000000000000000000000000000000000000000000000000000000000000000000000000000000000000000000000000000000000000000000000400000000000000000000000000001000000000000000020000000040800000000000000000000",
      "type": "0x0",
      "transactionHash": "0x1d30620318bc42588e89513ef4011c1fad490cc139c21ab51ffbb732d243db6b",
      "transactionIndex": "0x0",
      "blockHash": "0x8858d5548228a1e4544af0e8232d607ac24c38a23160aafc8d88a8331429eb7d",
      "blockNumber": "0x42be14",
      "gasUsed": "0x9d80",
      "effectiveGasPrice": "0x454b7b38e70",
      "from": "0xd89421cd5dd6d6269fbb9307535c386afe11a23e",
      "to": "0x4fa6148c9dabc7a737422fb1b3ab9088c878d26c",
      "contractAddress": null,
      "r": "0x5A391E8C5400CEBDC7305DE36F5BE6CC54AA5A7119BB616684AAE1D218494BEB",
      "root": "0x0000000000000000000000000000000000000000000000000000000000001010",
      "s": "0x71165CDA5131362957DE5037067F63C173B587B7567B0284F9F63EF08C6AEA63",
      "v": "0x10025"
    },
    {
      "status": "0x1",
      "cumulativeGasUsed": "0x9d80",
      "logs": [
        {
          "address": "0x4fa6148c9dabc7a737422fb1b3ab9088c878d26c",
          "topics": [
            "0xacee94c8a79111860852775471f35a102ad3dc32ff2716802bd1000ceb51f5a8",
            "0x000000000000000000000000c99ecb82a27b45592ea02ace9e3c42050f3c00c0"
          ],
          "data": "0x000000000000000000000000f7030c3f43b85874ae12b57f44cd682196568b4700000000000000000000000099bcb148bec418fc66ebf7aca3668ec1c62896950000000000000000000000000000000000000000000000000000000000000001",
          "blockHash": "0x741ea2ab3465c3a1f6e4163f511cde5e3165e4f5f93201bfd6bd9027efb9784b",
          "blockNumber": "0x42be16",
          "transactionHash": "0xc0f0af200e34d8a21158db664037ec7c6c401c9a567b4e66e597c82f3fb069b9",
          "transactionIndex": "0x0",
          "logIndex": "0x0",
          "removed": false
        }
      ],
      "logsBloom": "0x00000000000000000000000000000000000000000000000000000000000000000000000000000000000000000000000000000000000000000000000000000000000000000000000000000000000000000000000000000080000000000000000800000000000000000000000000000000010000000000000000000000000000000000000000100000000000000000000000000000000000000000000000000000000000000000000000000000400000000000000000000000000000000000000000000000000000000000000000000000000000000000000000400000004000000000000000000000000000000000000000000000040800000000000000000000",
      "type": "0x0",
      "transactionHash": "0xc0f0af200e34d8a21158db664037ec7c6c401c9a567b4e66e597c82f3fb069b9",
      "transactionIndex": "0x0",
      "blockHash": "0x741ea2ab3465c3a1f6e4163f511cde5e3165e4f5f93201bfd6bd9027efb9784b",
      "blockNumber": "0x42be16",
      "gasUsed": "0x9d80",
      "effectiveGasPrice": "0x454b7b38e70",
      "from": "0xd89421cd5dd6d6269fbb9307535c386afe11a23e",
      "to": "0x4fa6148c9dabc7a737422fb1b3ab9088c878d26c",
      "contractAddress": null,
      "r": "0x08D61BE2B1936BD82C49FCFE0439A61EB13A033438B7515FA9A55F6FA9166B75",
      "root": "0x0000000000000000000000000000000000000000000000000000000000001010",
      "s": "0x0FED2DD252FEFE8FB4D4DB46AB41C9E50C854BDD79871BDB4E833A73DAE5C29D",
      "v": "0x10025"
    }
  ],
  "libraries": [],
  "pending": [],
  "returns": {},
  "timestamp": 1736612861,
  "chain": 32769,
  "commit": "5aa1251"
}