{
  "transactions": [
    {
      "hash": "0x387f395427a6ec5ea7866d2ccf472de0ab00ffe92fe63e3141010dffae2cbfbe",
      "transactionType": "CALL",
      "contractName": null,
      "contractAddress": "0x4fa6148c9dabc7a737422fb1b3ab9088c878d26c",
      "function": "registerToken(address,(address,address,uint256))",
      "arguments": [
        "0xCcF3Ea256d42Aeef0EE0e39Bfc94bAa9Fa14b0Ba",
        "(0x7659CE147D0e714454073a5dd7003544234b6Aa0, 0x2EE8e8D7C113Bb7c180f4755f06ed50bE53BEDe5, 1)"
      ],
      "transaction": {
        "from": "0xd89421cd5dd6d6269fbb9307535c386afe11a23e",
        "to": "0x4fa6148c9dabc7a737422fb1b3ab9088c878d26c",
        "gas": "0x2227c",
        "value": "0x0",
        "input": "0x8bc76f74000000000000000000000000ccf3ea256d42aeef0ee0e39bfc94baa9fa14b0ba0000000000000000000000007659ce147d0e714454073a5dd7003544234b6aa00000000000000000000000002ee8e8d7c113bb7c180f4755f06ed50be53bede50000000000000000000000000000000000000000000000000000000000000001",
        "nonce": "0x2d",
        "chainId": "0x8001"
      },
      "additionalContracts": [],
      "isFixedGasLimit": false
    },
    {
      "hash": "0x4c62acba6285a7cb465a3c350bd01354f6884aab2fdfd5b98247edb38825962d",
      "transactionType": "CALL",
      "contractName": null,
      "contractAddress": "0x4fa6148c9dabc7a737422fb1b3ab9088c878d26c",
      "function": "registerToken(address,(address,address,uint256))",
      "arguments": [
        "0x17D5af5658A24bd964984b36d28e879a8626adC3",
        "(0x80D55c03180349Fff4a229102F62328220A96444, 0x2EE8e8D7C113Bb7c180f4755f06ed50bE53BEDe5, 1)"
      ],
      "transaction": {
        "from": "0xd89421cd5dd6d6269fbb9307535c386afe11a23e",
        "to": "0x4fa6148c9dabc7a737422fb1b3ab9088c878d26c",
        "gas": "0x242b4",
        "value": "0x0",
        "input": "0x8bc76f7400000000000000000000000017d5af5658a24bd964984b36d28e879a8626adc300000000000000000000000080d55c03180349fff4a229102f62328220a964440000000000000000000000002ee8e8d7c113bb7c180f4755f06ed50be53bede50000000000000000000000000000000000000000000000000000000000000001",
        "nonce": "0x2e",
        "chainId": "0x8001"
      },
      "additionalContracts": [],
      "isFixedGasLimit": false
    },
    {
      "hash": "0x64eae8f82e8281e1a2414e8cc048f0f0999a5e4ea099f90a71e8d51b00131cfb",
      "transactionType": "CALL",
      "contractName": null,
      "contractAddress": "0x4fa6148c9dabc7a737422fb1b3ab9088c878d26c",
      "function": "registerToken(address,(address,address,uint256))",
      "arguments": [
        "0x17D5af5658A24bd964984b36d28e879a8626adC3",
        "(0x0000000000000000000000000000000000000000, 0x2EE8e8D7C113Bb7c180f4755f06ed50bE53BEDe5, 1)"
      ],
      "transaction": {
        "from": "0xd89421cd5dd6d6269fbb9307535c386afe11a23e",
        "to": "0x4fa6148c9dabc7a737422fb1b3ab9088c878d26c",
        "gas": "0xd45a",
        "value": "0x0",
        "input": "0x8bc76f7400000000000000000000000017d5af5658a24bd964984b36d28e879a8626adc300000000000000000000000000000000000000000000000000000000000000000000000000000000000000002ee8e8d7c113bb7c180f4755f06ed50be53bede50000000000000000000000000000000000000000000000000000000000000001",
        "nonce": "0x2f",
        "chainId": "0x8001"
      },
      "additionalContracts": [],
      "isFixedGasLimit": false
    },
    {
      "hash": "0x7907218d0d3061cc54622269f73a3484770185cb2cfbd542bc15c5a5a6add55c",
      "transactionType": "CALL",
      "contractName": null,
      "contractAddress": "0x4fa6148c9dabc7a737422fb1b3ab9088c878d26c",
      "function": "registerToken(address,(address,address,uint256))",
      "arguments": [
        "0xD819257C964A78A493DF93D5643E9490b54C5af2",
        "(0x4674a4F24C5f63D53F22490Fb3A08eAAAD739ff8, 0x2EE8e8D7C113Bb7c180f4755f06ed50bE53BEDe5, 1)"
      ],
      "transaction": {
        "from": "0xd89421cd5dd6d6269fbb9307535c386afe11a23e",
        "to": "0x4fa6148c9dabc7a737422fb1b3ab9088c878d26c",
        "gas": "0x242b4",
        "value": "0x0",
        "input": "0x8bc76f74000000000000000000000000d819257c964a78a493df93d5643e9490b54c5af20000000000000000000000004674a4f24c5f63d53f22490fb3a08eaaad739ff80000000000000000000000002ee8e8d7c113bb7c180f4755f06ed50be53bede50000000000000000000000000000000000000000000000000000000000000001",
        "nonce": "0x30",
        "chainId": "0x8001"
      },
      "additionalContracts": [],
      "isFixedGasLimit": false
    },
    {
      "hash": "0x99a61963ac15b850e2df17b1fa9db3ec19cc7e9547bb2676fc40a568d9de8e6d",
      "transactionType": "CALL",
      "contractName": null,
      "contractAddress": "0x4fa6148c9dabc7a737422fb1b3ab9088c878d26c",
      "function": "registerToken(address,(address,address,uint256))",
      "arguments": [
        "0x2938fF251Aecc1dfa768D7d0276eB6d073690317",
        "(0x2260FAC5E5542a773Aa44fBCfeDf7C193bc2C599, 0x2EE8e8D7C113Bb7c180f4755f06ed50bE53BEDe5, 1)"
      ],
      "transaction": {
        "from": "0xd89421cd5dd6d6269fbb9307535c386afe11a23e",
        "to": "0x4fa6148c9dabc7a737422fb1b3ab9088c878d26c",
        "gas": "0x242b4",
        "value": "0x0",
        "input": "0x8bc76f740000000000000000000000002938ff251aecc1dfa768d7d0276eb6d0736903170000000000000000000000002260fac5e5542a773aa44fbcfedf7c193bc2c5990000000000000000000000002ee8e8d7c113bb7c180f4755f06ed50be53bede50000000000000000000000000000000000000000000000000000000000000001",
        "nonce": "0x31",
        "chainId": "0x8001"
      },
      "additionalContracts": [],
      "isFixedGasLimit": false
    },
    {
      "hash": null,
      "transactionType": "CALL",
      "contractName": null,
      "contractAddress": "0x4fa6148c9dabc7a737422fb1b3ab9088c878d26c",
      "function": "registerToken(address,(address,address,uint256))",
      "arguments": [
        "0x2274005778063684fbB1BfA96a2b725dC37D75f9",
        "(0xdAC17F958D2ee523a2206206994597C13D831ec7, 0x2EE8e8D7C113Bb7c180f4755f06ed50bE53BEDe5, 1)"
      ],
      "transaction": {
        "from": "0xd89421cd5dd6d6269fbb9307535c386afe11a23e",
        "to": "0x4fa6148c9dabc7a737422fb1b3ab9088c878d26c",
        "gas": "0x2227c",
        "value": "0x0",
        "input": "0x8bc76f740000000000000000000000002274005778063684fbb1bfa96a2b725dc37d75f9000000000000000000000000dac17f958d2ee523a2206206994597c13d831ec70000000000000000000000002ee8e8d7c113bb7c180f4755f06ed50be53bede50000000000000000000000000000000000000000000000000000000000000001",
        "nonce": "0x32",
        "chainId": "0x8001"
      },
      "additionalContracts": [],
      "isFixedGasLimit": false
    },
    {
      "hash": null,
      "transactionType": "CALL",
      "contractName": null,
      "contractAddress": "0x4fa6148c9dabc7a737422fb1b3ab9088c878d26c",
      "function": "registerToken(address,(address,address,uint256))",
      "arguments": [
        "0x9121A67cA79B6778eAb477c5F76dF6de7C79cC4b",
        "(0xD43Be54C1aedf7Ee4099104f2DaE4eA88B18A249, 0x2EE8e8D7C113Bb7c180f4755f06ed50bE53BEDe5, 1)"
      ],
      "transaction": {
        "from": "0xd89421cd5dd6d6269fbb9307535c386afe11a23e",
        "to": "0x4fa6148c9dabc7a737422fb1b3ab9088c878d26c",
        "gas": "0x242b4",
        "value": "0x0",
        "input": "0x8bc76f740000000000000000000000009121a67ca79b6778eab477c5f76df6de7c79cc4b000000000000000000000000d43be54c1aedf7ee4099104f2dae4ea88b18a2490000000000000000000000002ee8e8d7c113bb7c180f4755f06ed50be53bede50000000000000000000000000000000000000000000000000000000000000001",
        "nonce": "0x33",
        "chainId": "0x8001"
      },
      "additionalContracts": [],
      "isFixedGasLimit": false
    },
    {
      "hash": null,
      "transactionType": "CALL",
      "contractName": null,
      "contractAddress": "0x4fa6148c9dabc7a737422fb1b3ab9088c878d26c",
      "function": "registerTokenWithScale(address,(address,address,uint256),int8)",
      "arguments": [
        "0x0000000000000000000000000000000000000000",
        "(0x6EeB539D662bB971a4a01211c67CB7f65B09b802, 0x99bCB148BEC418Fc66ebF7ACA3668ec1C6289695, 1)",
        "-6"
      ],
      "transaction": {
        "from": "0xd89421cd5dd6d6269fbb9307535c386afe11a23e",
        "to": "0x4fa6148c9dabc7a737422fb1b3ab9088c878d26c",
        "gas": "0x29c5f",
        "value": "0x0",
        "input": "0x126d5f2f00000000000000000000000000000000000000000000000000000000000000000000000000000000000000006eeb539d662bb971a4a01211c67cb7f65b09b80200000000000000000000000099bcb148bec418fc66ebf7aca3668ec1c62896950000000000000000000000000000000000000000000000000000000000000001fffffffffffffffffffffffffffffffffffffffffffffffffffffffffffffffa",
        "nonce": "0x34",
        "chainId": "0x8001"
      },
      "additionalContracts": [],
      "isFixedGasLimit": false
    },
    {
      "hash": null,
      "transactionType": "CALL",
      "contractName": null,
      "contractAddress": "0x4fa6148c9dabc7a737422fb1b3ab9088c878d26c",
      "function": "registerToken(address,(address,address,uint256))",
      "arguments": [
        "0xE9D47623bb2B3C497668B34fcf61E101a7ea4058",
        "(0xA87135285Ae208e22068AcDBFf64B11Ec73EAa5A, 0x99bCB148BEC418Fc66ebF7ACA3668ec1C6289695, 1)"
      ],
      "transaction": {
        "from": "0xd89421cd5dd6d6269fbb9307535c386afe11a23e",
        "to": "0x4fa6148c9dabc7a737422fb1b3ab9088c878d26c",
        "gas": "0x242b4",
        "value": "0x0",
        "input": "0x8bc76f74000000000000000000000000e9d47623bb2b3c497668b34fcf61e101a7ea4058000000000000000000000000a87135285ae208e22068acdbff64b11ec73eaa5a00000000000000000000000099bcb148bec418fc66ebf7aca3668ec1c62896950000000000000000000000000000000000000000000000000000000000000001",
        "nonce": "0x35",
        "chainId": "0x8001"
      },
      "additionalContracts": [],
      "isFixedGasLimit": false
    },
    {
      "hash": null,
      "transactionType": "CALL",
      "contractName": null,
      "contractAddress": "0x4fa6148c9dabc7a737422fb1b3ab9088c878d26c",
      "function": "registerToken(address,(address,address,uint256))",
      "arguments": [
        "0xa0A5795e7eccc43Ba92d2A0b7804696F8B9e1a05",
        "(0xBd636FFfbF349A4479db315c585E823164cF58F0, 0x99bCB148BEC418Fc66ebF7ACA3668ec1C6289695, 1)"
      ],
      "transaction": {
        "from": "0xd89421cd5dd6d6269fbb9307535c386afe11a23e",
        "to": "0x4fa6148c9dabc7a737422fb1b3ab9088c878d26c",
        "gas": "0x242b4",
        "value": "0x0",
        "input": "0x8bc76f74000000000000000000000000a0a5795e7eccc43ba92d2a0b7804696f8b9e1a05000000000000000000000000bd636fffbf349a4479db315c585e823164cf58f000000000000000000000000099bcb148bec418fc66ebf7aca3668ec1c62896950000000000000000000000000000000000000000000000000000000000000001",
        "nonce": "0x36",
        "chainId": "0x8001"
      },
      "additionalContracts": [],
      "isFixedGasLimit": false
    },
    {
      "hash": null,
      "transactionType": "CALL",
      "contractName": null,
      "contractAddress": "0x4fa6148c9dabc7a737422fb1b3ab9088c878d26c",
      "function": "registerToken(address,(address,address,uint256))",
      "arguments": [
        "0x1202078D298Ff0358A95b6fbf48Ec166dB414660",
        "(0x0c7c5b92893A522952EB4c939aA24B65FF910C48, 0x99bCB148BEC418Fc66ebF7ACA3668ec1C6289695, 1)"
      ],
      "transaction": {
        "from": "0xd89421cd5dd6d6269fbb9307535c386afe11a23e",
        "to": "0x4fa6148c9dabc7a737422fb1b3ab9088c878d26c",
        "gas": "0x242b4",
        "value": "0x0",
        "input": "0x8bc76f740000000000000000000000001202078d298ff0358a95b6fbf48ec166db4146600000000000000000000000000c7c5b92893a522952eb4c939aa24b65ff910c4800000000000000000000000099bcb148bec418fc66ebf7aca3668ec1c62896950000000000000000000000000000000000000000000000000000000000000001",
        "nonce": "0x37",
        "chainId": "0x8001"
      },
      "additionalContracts": [],
      "isFixedGasLimit": false
    },
    {
      "hash": null,
      "transactionType": "CALL",
      "contractName": null,
      "contractAddress": "0x4fa6148c9dabc7a737422fb1b3ab9088c878d26c",
      "function": "registerToken(address,(address,address,uint256))",
      "arguments": [
        "0xc99ECB82a27B45592eA02ACe9e3C42050f3c00C0",
        "(0xf7030C3f43b85874ae12B57F44cd682196568b47, 0x99bCB148BEC418Fc66ebF7ACA3668ec1C6289695, 1)"
      ],
      "transaction": {
        "from": "0xd89421cd5dd6d6269fbb9307535c386afe11a23e",
        "to": "0x4fa6148c9dabc7a737422fb1b3ab9088c878d26c",
        "gas": "0x2227c",
        "value": "0x0",
        "input": "0x8bc76f74000000000000000000000000c99ecb82a27b45592ea02ace9e3c42050f3c00c0000000000000000000000000f7030c3f43b85874ae12b57f44cd682196568b4700000000000000000000000099bcb148bec418fc66ebf7aca3668ec1c62896950000000000000000000000000000000000000000000000000000000000000001",
        "nonce": "0x38",
        "chainId": "0x8001"
      },
      "additionalContracts": [],
      "isFixedGasLimit": false
    }
  ],
  "receipts": [
    {
      "status": "0x1",
      "cumulativeGasUsed": "0x18678",
      "logs": [
        {
          "address": "0x4fa6148c9dabc7a737422fb1b3ab9088c878d26c",
          "topics": [
            "0xacee94c8a79111860852775471f35a102ad3dc32ff2716802bd1000ceb51f5a8",
            "0x000000000000000000000000ccf3ea256d42aeef0ee0e39bfc94baa9fa14b0ba"
          ],
          "data": "0x0000000000000000000000007659ce147d0e714454073a5dd7003544234b6aa00000000000000000000000002ee8e8d7c113bb7c180f4755f06ed50be53bede50000000000000000000000000000000000000000000000000000000000000001",
          "blockHash": "0x005516e9235fa88b67f4bfae1b8c8167f5014ebafd6f3435385a3e3d2d3a95d3",
          "blockNumber": "0x42bdf7",
          "transactionHash": "0x387f395427a6ec5ea7866d2ccf472de0ab00ffe92fe63e3141010dffae2cbfbe",
          "transactionIndex": "0x0",
          "logIndex": "0x0",
          "removed": false
        }
      ],
      "logsBloom": "0x00000000000000000000000000000000000000000000000000000000000000000000000000000000000000000000000000100000000000000000000000000000000000000000000000000000000000000000000000000000000000000000000800000000000000000000000000000000010000010000000000000000000000000000000000100000000000000000000000000000000000000000000000000000000000000000000000000000000000000000000000000000000000000000000000000000000000000000000000000000000000000002000000400000000000000000000000000000000000000000000000000000040800000000000000000000",
      "type": "0x0",
      "transactionHash": "0x387f395427a6ec5ea7866d2ccf472de0ab00ffe92fe63e3141010dffae2cbfbe",
      "transactionIndex": "0x0",
      "blockHash": "0x005516e9235fa88b67f4bfae1b8c8167f5014ebafd6f3435385a3e3d2d3a95d3",
      "blockNumber": "0x42bdf7",
      "gasUsed": "0x18678",
      "effectiveGasPrice": "0x454b7b38e70",
      "from": "0xd89421cd5dd6d6269fbb9307535c386afe11a23e",
      "to": "0x4fa6148c9dabc7a737422fb1b3ab9088c878d26c",
      "contractAddress": null,
      "r": "0x57EDC06D5B21FDB020E1A5F4A6C4A99ECCD1B8D8A9D6CF03ADAE99B14DD272CE",
      "root": "0x0000000000000000000000000000000000000000000000000000000000001010",
      "s": "0x40F795C3839A03A8B28C5B8EC9E44507F04816D375D1D4B116A948F34DFF5199",
      "v": "0x10026"
    },
    {
      "status": "0x1",
      "cumulativeGasUsed": "0x18678",
      "logs": [
        {
          "address": "0x4fa6148c9dabc7a737422fb1b3ab9088c878d26c",
          "topics": [
            "0xacee94c8a79111860852775471f35a102ad3dc32ff2716802bd1000ceb51f5a8",
            "0x00000000000000000000000017d5af5658a24bd964984b36d28e879a8626adc3"
          ],
          "data": "0x00000000000000000000000080d55c03180349fff4a229102f62328220a964440000000000000000000000002ee8e8d7c113bb7c180f4755f06ed50be53bede50000000000000000000000000000000000000000000000000000000000000001",
          "blockHash": "0x005516e9235fa88b67f4bfae1b8c8167f5014ebafd6f3435385a3e3d2d3a95d3",
          "blockNumber": "0x42bdf7",
          "transactionHash": "0x4c62acba6285a7cb465a3c350bd01354f6884aab2fdfd5b98247edb38825962d",
          "transactionIndex": "0x1",
          "logIndex": "0x2",
          "removed": false
        }
      ],
      "logsBloom": "0x00000000000000000000000000000000000000000000000000000000000000000000000000000000000000000000000000000000000000000000000000000000000000000000000000000000000000000000000000000000000000000000000800000000000000000000000000000000010000000000000000000000000000000000000000100000000000000000000000000000000000000000000000000000000000000000000000000000000000000000002000000000000000000000000000000000000000000000000000000000000000000000000000400000000000000000000008000000000000000000000000000000040800000001000000000000",
      "type": "0x0",
      "transactionHash": "0x4c62acba6285a7cb465a3c350bd01354f6884aab2fdfd5b98247edb38825962d",
      "transactionIndex": "0x1",
      "blockHash": "0x005516e9235fa88b67f4bfae1b8c8167f5014ebafd6f3435385a3e3d2d3a95d3",
      "blockNumber": "0x42bdf7",
      "gasUsed": "0x18678",
      "effectiveGasPrice": "0x454b7b38e70",
      "from": "0xd89421cd5dd6d6269fbb9307535c386afe11a23e",
      "to": "0x4fa6148c9dabc7a737422fb1b3ab9088c878d26c",
      "contractAddress": null,
      "r": "0xC271AFFA211F8FC512815567D1254934AA73684E08ED70ACFB3A43992986B7FB",
      "root": "0x0000000000000000000000000000000000000000000000000000000000001010",
      "s": "0x6DBD59CB5413707048CA9799F80671A575BFDDA04A622E3849514CB7245AA11E",
      "v": "0x10025"
    },
    {
      "status": "0x1",
      "cumulativeGasUsed": "0xa8fc",
      "logs": [
        {
          "address": "0x4fa6148c9dabc7a737422fb1b3ab9088c878d26c",
          "topics": [
            "0xacee94c8a79111860852775471f35a102ad3dc32ff2716802bd1000ceb51f5a8",
            "0x00000000000000000000000017d5af5658a24bd964984b36d28e879a8626adc3"
          ],
          "data": "0x00000000000000000000000000000000000000000000000000000000000000000000000000000000000000002ee8e8d7c113bb7c180f4755f06ed50be53bede50000000000000000000000000000000000000000000000000000000000000001",
          "blockHash": "0x005516e9235fa88b67f4bfae1b8c8167f5014ebafd6f3435385a3e3d2d3a95d3",
          "blockNumber": "0x42bdf7",
          "transactionHash": "0x64eae8f82e8281e1a2414e8cc048f0f0999a5e4ea099f90a71e8d51b00131cfb",
          "transactionIndex": "0x2",
          "logIndex": "0x4",
          "removed": false
        }
      ],
      "logsBloom": "0x00000000000000000000000000000000000000000000000000000000000000000000000000000000000000000000000000000000000000000000000000000000000000000000000000000000000000000000000000000000000000000000000800000000000000000000000000000000010000000000000000000000000000000000000000100000000000000000000000000000000000000000000000000000000000000000000000000000000000000000002000000000000000000000000000000000000000000000000000000000000000000000000000400000000000000000000008000000000000000000000000000000040800000001000000000000",
      "type": "0x0",
      "transactionHash": "0x64eae8f82e8281e1a2414e8cc048f0f0999a5e4ea099f90a71e8d51b00131cfb",
      "transactionIndex": "0x2",
      "blockHash": "0x005516e9235fa88b67f4bfae1b8c8167f5014ebafd6f3435385a3e3d2d3a95d3",
      "blockNumber": "0x42bdf7",
      "gasUsed": "0xa8fc",
      "effectiveGasPrice": "0x454b7b38e70",
      "from": "0xd89421cd5dd6d6269fbb9307535c386afe11a23e",
      "to": "0x4fa6148c9dabc7a737422fb1b3ab9088c878d26c",
      "contractAddress": null,
      "r": "0x8E6D9B9A05000AB160EC645FE7BB83300669273C1A174FA433FB82525BFCF41A",
      "root": "0x0000000000000000000000000000000000000000000000000000000000001010",
      "s": "0x185F87E7B6A6684E4DFF4CFC22323F121574AE91B8C0B70CF78F6D0B0C25C7DA",
      "v": "0x10025"
    },
    {
      "status": "0x1",
      "cumulativeGasUsed": "0x18678",
      "logs": [
        {
          "address": "0x4fa6148c9dabc7a737422fb1b3ab9088c878d26c",
          "topics": [
            "0xacee94c8a79111860852775471f35a102ad3dc32ff2716802bd1000ceb51f5a8",
            "0x000000000000000000000000d819257c964a78a493df93d5643e9490b54c5af2"
          ],
          "data": "0x0000000000000000000000004674a4f24c5f63d53f22490fb3a08eaaad739ff80000000000000000000000002ee8e8d7c113bb7c180f4755f06ed50be53bede50000000000000000000000000000000000000000000000000000000000000001",
          "blockHash": "0xc61e0ef2009b084c61dec5647eb75c040ae40b02b5890af9c7b1e8ad68b1bba4",
          "blockNumber": "0x42bdf8",
          "transactionHash": "0x7907218d0d3061cc54622269f73a3484770185cb2cfbd542bc15c5a5a6add55c",
          "transactionIndex": "0x2",
          "logIndex": "0x0",
          "removed": false
        }
      ],
      "logsBloom": "0x00000000000000000000000000000000000000000000000000000000000000000000000000000000000000000000000000000000000000000000000000000000000000000000000000000000000000000000000000000000000000000000000800000000000000000000000000000000010000000000000000000000000000000000000000100000000000000000000000000000008000000000000000000000000000000000000000000000000000000000000000000000000000000000000000000000000000000000000000000000000000008000000000400000000000000000000000000000000000000000000000000000040800000000800000000000",
      "type": "0x0",
      "transactionHash": "0x7907218d0d3061cc54622269f73a3484770185cb2cfbd542bc15c5a5a6add55c",
      "transactionIndex": "0x2",
      "blockHash": "0xc61e0ef2009b084c61dec5647eb75c040ae40b02b5890af9c7b1e8ad68b1bba4",
      "blockNumber": "0x42bdf8",
      "gasUsed": "0x18678",
      "effectiveGasPrice": "0x454b7b38e70",
      "from": "0xd89421cd5dd6d6269fbb9307535c386afe11a23e",
      "to": "0x4fa6148c9dabc7a737422fb1b3ab9088c878d26c",
      "contractAddress": null,
      "r": "0xF8C640C56308CD9A28769EE8275A2FBF21F51E6EFE035CBBFF37F007B355AF7C",
      "root": "0x0000000000000000000000000000000000000000000000000000000000001010",
      "s": "0x08938D2087FE4E39466DFA0EF40D4506B02F80F9F380122ECE2491415EB4CB66",
      "v": "0x10026"
    },
    {
      "status": "0x1",
      "cumulativeGasUsed": "0x18678",
      "logs": [
        {
          "address": "0x4fa6148c9dabc7a737422fb1b3ab9088c878d26c",
          "topics": [
            "0xacee94c8a79111860852775471f35a102ad3dc32ff2716802bd1000ceb51f5a8",
            "0x0000000000000000000000002938ff251aecc1dfa768d7d0276eb6d073690317"
          ],
          "data": "0x0000000000000000000000002260fac5e5542a773aa44fbcfedf7c193bc2c5990000000000000000000000002ee8e8d7c113bb7c180f4755f06ed50be53bede50000000000000000000000000000000000000000000000000000000000000001",
          "blockHash": "0xc61e0ef2009b084c61dec5647eb75c040ae40b02b5890af9c7b1e8ad68b1bba4",
          "blockNumber": "0x42bdf8",
          "transactionHash": "0x99a61963ac15b850e2df17b1fa9db3ec19cc7e9547bb2676fc40a568d9de8e6d",
          "transactionIndex": "0x3",
          "logIndex": "0x2",
          "removed": false
        }
      ],
      "logsBloom": "0x00000000000000000000000000000000000000200000000000000000000000000000000000000000000000000000000000000000000000000000000000000000000000000000000000000000000000000000000000000000000000000000000800000000000000000000000000000000010000000000000000000000000000004000000000100000000000000000000000000000000000000000000000000000000000000000000000000000000080000000000000000000000000000000000000000000000000000000000000000000000000000000000000400000000000000000000000000000000000000000000000000000040800000000000000000000",
      "type": "0x0",
      "transactionHash": "0x99a61963ac15b850e2df17b1fa9db3ec19cc7e9547bb2676fc40a568d9de8e6d",
      "transactionIndex": "0x3",
      "blockHash": "0xc61e0ef2009b084c61dec5647eb75c040ae40b02b5890af9c7b1e8ad68b1bba4",
      "blockNumber": "0x42bdf8",
      "gasUsed": "0x18678",
      "effectiveGasPrice": "0x454b7b38e70",
      "from": "0xd89421cd5dd6d6269fbb9307535c386afe11a23e",
      "to": "0x4fa6148c9dabc7a737422fb1b3ab9088c878d26c",
      "contractAddress": null,
      "r": "0xBE2476D3959132207C0F45BF0718D2D9335A30D14352DD5473A3567A5BA81068",
      "root": "0x0000000000000000000000000000000000000000000000000000000000001010",
      "s": "0x2AC05B1DA9AF7E78929C0FF0EC05E37E2C2F42544140095BE2B94F8EAA0C00B7",
      "v": "0x10026"
    }
  ],
  "libraries": [],
  "pending": [],
  "returns": {},
  "timestamp": 1736611989,
  "chain": 32769,
  "commit": "5aa1251"
}