{
  "transactions": [
    {
      "hash": "0x83b829889dc4fd67c2be36682dbcf6c423f845ed9f2e40a52da60336ea639a62",
      "transactionType": "CALL",
      "contractName": null,
      "contractAddress": "0x4fa6148c9dabc7a737422fb1b3ab9088c878d26c",
      "function": "registerToken(address,(address,address,uint256))",
      "arguments": [
        "0x17D5af5658A24bd964984b36d28e879a8626adC3",
        "(0x80D55c03180349Fff4a229102F62328220A96444, 0x2EE8e8D7C113Bb7c180f4755f06ed50bE53BEDe5, 1)"
      ],
      "transaction": {
        "from": "0xd89421cd5dd6d6269fbb9307535c386afe11a23e",
        "to": "0x4fa6148c9dabc7a737422fb1b3ab9088c878d26c",
        "gas": "0x15f54",
        "value": "0x0",
        "input": "0x8bc76f7400000000000000000000000017d5af5658a24bd964984b36d28e879a8626adc300000000000000000000000080d55c03180349fff4a229102f62328220a964440000000000000000000000002ee8e8d7c113bb7c180f4755f06ed50be53bede50000000000000000000000000000000000000000000000000000000000000001",
        "nonce": "0x6c",
        "chainId": "0x8001"
      },
      "additionalContracts": [],
      "isFixedGasLimit": false
    }
  ],
  "receipts": [
    {
      "status": "0x1",
      "cumulativeGasUsed": "0xec40",
      "logs": [
        {
          "address": "0x4fa6148c9dabc7a737422fb1b3ab9088c878d26c",
          "topics": [
            "0xacee94c8a79111860852775471f35a102ad3dc32ff2716802bd1000ceb51f5a8",
            "0x00000000000000000000000017d5af5658a24bd964984b36d28e879a8626adc3"
          ],
          "data": "0x00000000000000000000000080d55c03180349fff4a229102f62328220a964440000000000000000000000002ee8e8d7c113bb7c180f4755f06ed50be53bede50000000000000000000000000000000000000000000000000000000000000001",
          "blockHash": "0x405cedb52d5fe3d3912ad71cc1fffc1c750b0b017ff547a0c8b20f169d56fe81",
          "blockNumber": "0x42d3f9",
          "transactionHash": "0x83b829889dc4fd67c2be36682dbcf6c423f845ed9f2e40a52da60336ea639a62",
          "transactionIndex": "0x0",
          "logIndex": "0x0",
          "removed": false
        }
      ],
      "logsBloom": "0x00000000000000000000000000000000000000000000000000000000000000000000000000000000000000000000000000000000000000000000000000000000000000000000000000000000000000000000000000000000000000000000000800000000000000000000000000000000010000000000000000000000000000000000000000100000000000000000000000000000000000000000000000000000000000000000000000000000000000000000002000000000000000000000000000000000000000000000000000000000000000000000000000400000000000000000000008000000000000000000000000000000040800000001000000000000",
      "type": "0x0",
      "transactionHash": "0x83b829889dc4fd67c2be36682dbcf6c423f845ed9f2e40a52da60336ea639a62",
      "transactionIndex": "0x0",
      "blockHash": "0x405cedb52d5fe3d3912ad71cc1fffc1c750b0b017ff547a0c8b20f169d56fe81",
      "blockNumber": "0x42d3f9",
      "gasUsed": "0xec40",
      "effectiveGasPrice": "0x454b7b38e70",
      "from": "0xd89421cd5dd6d6269fbb9307535c386afe11a23e",
      "to": "0x4fa6148c9dabc7a737422fb1b3ab9088c878d26c",
      "contractAddress": null,
      "r": "0xA556D8318DE4FAEC2DA471F26D02B42AFE136BBF03430538AD48DC0C48A9116F",
      "root": "0x0000000000000000000000000000000000000000000000000000000000001010",
      "s": "0x34D8E82BE8E1F9A58C95F2079BE86EB42BACC601FB9124D8DEF51A220060B17D",
      "v": "0x10026"
    }
  ],
  "libraries": [],
  "pending": [],
  "returns": {},
  "timestamp": 1736811027,
  "chain": 32769,
  "commit": "011c1e0"
}