{
  "transactions": [
    {
      "hash": "0x773e7e0de610f3f739b163da59dd5230202729760b03eb0560fe3bba172c4ee1",
      "transactionType": "CALL",
      "contractName": null,
      "contractAddress": "0x2ee8e8d7c113bb7c180f4755f06ed50be53bede5",
      "function": "registerTokenWithScale(address,(address,address,uint256),int8)",
      "arguments": [
        "0xb1E6F8820826491FCc5519f84fF4E2bdBb6e3Cad",
        "(0x0000000000000000000000000000000000000000, 0x4fa6148C9DAbC7A737422fb1b3AB9088c878d26C, 32769)",
        "6"
      ],
      "transaction": {
        "from": "0xd89421cd5dd6d6269fbb9307535c386afe11a23e",
        "to": "0x2ee8e8d7c113bb7c180f4755f06ed50be53bede5",
        "gas": "0x22f0f",
        "value": "0x0",
        "input": "0x126d5f2f000000000000000000000000b1e6f8820826491fcc5519f84ff4e2bdbb6e3cad00000000000000000000000000000000000000000000000000000000000000000000000000000000000000004fa6148c9dabc7a737422fb1b3ab9088c878d26c00000000000000000000000000000000000000000000000000000000000080010000000000000000000000000000000000000000000000000000000000000006",
        "nonce": "0x12",
        "chainId": "0x38"
      },
      "additionalContracts": [],
      "isFixedGasLimit": false
    },
    {
      "hash": "0x466936adec07df47476f07c7e046a49ef4b62222bb8c06513ec877ebed87c631",
      "transactionType": "CALL",
      "contractName": null,
      "contractAddress": "0x1202078d298ff0358a95b6fbf48ec166db414660",
      "function": "registerToken(address,(address,address,uint256))",
      "arguments": [
        "0x0000000000000000000000000000000000000000",
        "(0xea87bC6CcaE73bae35693639e22eF30667760F61, 0x4fa6148C9DAbC7A737422fb1b3AB9088c878d26C, 32769)"
      ],
      "transaction": {
        "from": "0xd89421cd5dd6d6269fbb9307535c386afe11a23e",
        "to": "0x1202078d298ff0358a95b6fbf48ec166db414660",
        "gas": "0x2136a",
        "value": "0x0",
        "input": "0x8bc76f740000000000000000000000000000000000000000000000000000000000000000000000000000000000000000ea87bc6ccae73bae35693639e22ef30667760f610000000000000000000000004fa6148c9dabc7a737422fb1b3ab9088c878d26c0000000000000000000000000000000000000000000000000000000000008001",
        "nonce": "0x13",
        "chainId": "0x38"
      },
      "additionalContracts": [],
      "isFixedGasLimit": false
    }
  ],
  "receipts": [
    {
      "status": "0x1",
      "cumulativeGasUsed": "0x10fcad2",
      "logs": [
        {
          "address": "0x2ee8e8d7c113bb7c180f4755f06ed50be53bede5",
          "topics": [
            "0xacee94c8a79111860852775471f35a102ad3dc32ff2716802bd1000ceb51f5a8",
            "0x000000000000000000000000b1e6f8820826491fcc5519f84ff4e2bdbb6e3cad"
          ],
          "data": "0x00000000000000000000000000000000000000000000000000000000000000000000000000000000000000004fa6148c9dabc7a737422fb1b3ab9088c878d26c0000000000000000000000000000000000000000000000000000000000008001",
          "blockHash": "0x2e6cb6e35ff5603551be553969fab150be9a8954f60e09eb5f6d91f52c97f92e",
          "blockNumber": "0x2b9d380",
          "transactionHash": "0x773e7e0de610f3f739b163da59dd5230202729760b03eb0560fe3bba172c4ee1",
          "transactionIndex": "0xb6",
          "logIndex": "0x19d",
          "removed": false
        },
        {
          "address": "0x2ee8e8d7c113bb7c180f4755f06ed50be53bede5",
          "topics": [
            "0xa133e3c36769b3c9a2109eba45aba2da2ad0ccab8c9c6cc6c244892ba14d0f70",
            "0x000000000000000000000000b1e6f8820826491fcc5519f84ff4e2bdbb6e3cad"
          ],
          "data": "0x00000000000000000000000000000000000000000000000000000000000000000000000000000000000000004fa6148c9dabc7a737422fb1b3ab9088c878d26c00000000000000000000000000000000000000000000000000000000000080010000000000000000000000000000000000000000000000000000000000000006",
          "blockHash": "0x2e6cb6e35ff5603551be553969fab150be9a8954f60e09eb5f6d91f52c97f92e",
          "blockNumber": "0x2b9d380",
          "transactionHash": "0x773e7e0de610f3f739b163da59dd5230202729760b03eb0560fe3bba172c4ee1",
          "transactionIndex": "0xb6",
          "logIndex": "0x19e",
          "removed": false
        }
      ],
      "logsBloom": "0x00000000000000000000000000000000000000000000000000000040000000000000000000000000000000000001000000000000000000000000000000000008000000000000000000000000000000000000000002000000000000000000000000000000000000000000000000000000010000000000000000000000000000000000000000100000000000000000000000000000040000000000000000000000000000000000000000000000080000000000000000000001000000000000000000000000000000000000000000000000400000000000000000000000000000000000000000000000000040000000000000000000000800000000000000000000",
      "type": "0x0",
      "transactionHash": "0x773e7e0de610f3f739b163da59dd5230202729760b03eb0560fe3bba172c4ee1",
      "transactionIndex": "0xb6",
      "blockHash": "0x2e6cb6e35ff5603551be553969fab150be9a8954f60e09eb5f6d91f52c97f92e",
      "blockNumber": "0x2b9d380",
      "gasUsed": "0x194c0",
      "effectiveGasPrice": "0x3b9aca00",
      "from": "0xd89421cd5dd6d6269fbb9307535c386afe11a23e",
      "to": "0x2ee8e8d7c113bb7c180f4755f06ed50be53bede5",
      "contractAddress": null
    },
    {
      "status": "0x1",
      "cumulativeGasUsed": "0x1114b8f",
      "logs": [
        {
          "address": "0x1202078d298ff0358a95b6fbf48ec166db414660",
          "topics": [
            "0xacee94c8a79111860852775471f35a102ad3dc32ff2716802bd1000ceb51f5a8",
            "0x0000000000000000000000000000000000000000000000000000000000000000"
          ],
          "data": "0x000000000000000000000000ea87bc6ccae73bae35693639e22ef30667760f610000000000000000000000004fa6148c9dabc7a737422fb1b3ab9088c878d26c0000000000000000000000000000000000000000000000000000000000008001",
          "blockHash": "0x2e6cb6e35ff5603551be553969fab150be9a8954f60e09eb5f6d91f52c97f92e",
          "blockNumber": "0x2b9d380",
          "transactionHash": "0x466936adec07df47476f07c7e046a49ef4b62222bb8c06513ec877ebed87c631",
          "transactionIndex": "0xb7",
          "logIndex": "0x19f",
          "removed": false
        }
      ],
      "logsBloom": "0x00000000000000000000000000000000040000000000000000000000000000000000000000000000000000000000000000000000000000000000000000000000000000000000000000000000000000000000000000000000000000000000000000000000020000000000000000000800010000000000000000000000000000000000000000100000000010000000000000000000000000000000000000000000000000000000000000000000000000000000000000000000000000000020000000000000000000000000000000000000000000000000000000000000000020000000000000000000000000000000000000000000000800000000000000000000",
      "type": "0x0",
      "transactionHash": "0x466936adec07df47476f07c7e046a49ef4b62222bb8c06513ec877ebed87c631",
      "transactionIndex": "0xb7",
      "blockHash": "0x2e6cb6e35ff5603551be553969fab150be9a8954f60e09eb5f6d91f52c97f92e",
      "blockNumber": "0x2b9d380",
      "gasUsed": "0x180bd",
      "effectiveGasPrice": "0x3b9aca00",
      "from": "0xd89421cd5dd6d6269fbb9307535c386afe11a23e",
      "to": "0x1202078d298ff0358a95b6fbf48ec166db414660",
      "contractAddress": null
    }
  ],
  "libraries": [],
  "pending": [],
  "returns": {},
  "timestamp": 1736779479,
  "chain": 56,
  "commit": "dfd993a"
}