{
  "transactions": [
    {
      "hash": "0x8642e273cb301d084ad847d8a1c93469912fcb2aba0e78a7d6cbd018e7c63530",
      "transactionType": "CALL",
      "contractName": null,
      "contractAddress": "0x4fa6148c9dabc7a737422fb1b3ab9088c878d26c",
      "function": "registerToken(address,(address,address,uint256))",
      "arguments": [
        "0x17D5af5658A24bd964984b36d28e879a8626adC3",
        "(0x0000000000000000000000000000000000000000, 0x4345472A0c6164F35808CDb7e7eCCd3d326CC50b, 42161)"
      ],
      "transaction": {
        "from": "0xd89421cd5dd6d6269fbb9307535c386afe11a23e",
        "to": "0x4fa6148c9dabc7a737422fb1b3ab9088c878d26c",
        "gas": "0x1cfb6",
        "value": "0x0",
        "input": "0x8bc76f7400000000000000000000000017d5af5658a24bd964984b36d28e879a8626adc300000000000000000000000000000000000000000000000000000000000000000000000000000000000000004345472a0c6164f35808cdb7e7eccd3d326cc50b000000000000000000000000000000000000000000000000000000000000a4b1",
        "nonce": "0x27",
        "chainId": "0x8001"
      },
      "additionalContracts": [],
      "isFixedGasLimit": false
    },
    {
      "hash": "0x50a0fbc3592425952e5cbd7ed89f9cbb2f3a7b3e7972f24f222ad176804d8172",
      "transactionType": "CALL",
      "contractName": null,
      "contractAddress": "0x4fa6148c9dabc7a737422fb1b3ab9088c878d26c",
      "function": "registerTokenWithScale(address,(address,address,uint256),int8)",
      "arguments": [
        "0x0000000000000000000000000000000000000000",
        "(0x1816A0f20bc996F643B1aF078e8D84a0aaBD772A, 0x4fa6148C9DAbC7A737422fb1b3AB9088c878d26C, 42161)",
        "-6"
      ],
      "transaction": {
        "from": "0xd89421cd5dd6d6269fbb9307535c386afe11a23e",
        "to": "0x4fa6148c9dabc7a737422fb1b3ab9088c878d26c",
        "gas": "0x29c70",
        "value": "0x0",
        "input": "0x126d5f2f00000000000000000000000000000000000000000000000000000000000000000000000000000000000000001816a0f20bc996f643b1af078e8d84a0aabd772a0000000000000000000000004fa6148c9dabc7a737422fb1b3ab9088c878d26c000000000000000000000000000000000000000000000000000000000000a4b1fffffffffffffffffffffffffffffffffffffffffffffffffffffffffffffffa",
        "nonce": "0x28",
        "chainId": "0x8001"
      },
      "additionalContracts": [],
      "isFixedGasLimit": false
    }
  ],
  "receipts": [
    {
      "status": "0x1",
      "cumulativeGasUsed": "0x1395c",
      "logs": [
        {
          "address": "0x4fa6148c9dabc7a737422fb1b3ab9088c878d26c",
          "topics": [
            "0xacee94c8a79111860852775471f35a102ad3dc32ff2716802bd1000ceb51f5a8",
            "0x00000000000000000000000017d5af5658a24bd964984b36d28e879a8626adc3"
          ],
          "data": "0x00000000000000000000000000000000000000000000000000000000000000000000000000000000000000004345472a0c6164f35808cdb7e7eccd3d326cc50b000000000000000000000000000000000000000000000000000000000000a4b1",
          "blockHash": "0x34be7898a3784ae548f698763c11d7d47a1b5c00b31ae969b2774e5d6cff617d",
          "blockNumber": "0x42b498",
          "transactionHash": "0x8642e273cb301d084ad847d8a1c93469912fcb2aba0e78a7d6cbd018e7c63530",
          "transactionIndex": "0x1",
          "logIndex": "0x0",
          "removed": false
        }
      ],
      "logsBloom": "0x00000000000000000000000000000000000000000000000000000000000000000000000000000000000000000000000000000000000000000000000000000000000000000000000000000000000000000000000000000000000000000000000800000000000000000000000000000000010000000000000000000000000000000000000000100000000000000000000000000000000000000000000000000000000000000000000000000000000000000000002000000000000000000000000000000000000000000000000000000000000000000000000000400000000000000000000008000000000000000000000000000000040800000001000000000000",
      "type": "0x0",
      "transactionHash": "0x8642e273cb301d084ad847d8a1c93469912fcb2aba0e78a7d6cbd018e7c63530",
      "transactionIndex": "0x1",
      "blockHash": "0x34be7898a3784ae548f698763c11d7d47a1b5c00b31ae969b2774e5d6cff617d",
      "blockNumber": "0x42b498",
      "gasUsed": "0x1395c",
      "effectiveGasPrice": "0x454b7b38e70",
      "from": "0xd89421cd5dd6d6269fbb9307535c386afe11a23e",
      "to": "0x4fa6148c9dabc7a737422fb1b3ab9088c878d26c",
      "contractAddress": null,
      "r": "0xB68D4A6E23DFA8BF3041B9DA6F0180550F514066A8D023A2BEB06D6F08408A01",
      "root": "0x0000000000000000000000000000000000000000000000000000000000001010",
      "s": "0x17FD2C0C14947CD214FD553F7E6287090990A336A53E0401D91F6204D2E059FC",
      "v": "0x10025"
    },
    {
      "status": "0x1",
      "cumulativeGasUsed": "0x1dd6c",
      "logs": [
        {
          "address": "0x4fa6148c9dabc7a737422fb1b3ab9088c878d26c",
          "topics": [
            "0xacee94c8a79111860852775471f35a102ad3dc32ff2716802bd1000ceb51f5a8",
            "0x0000000000000000000000000000000000000000000000000000000000000000"
          ],
          "data": "0x0000000000000000000000001816a0f20bc996f643b1af078e8d84a0aabd772a0000000000000000000000004fa6148c9dabc7a737422fb1b3ab9088c878d26c000000000000000000000000000000000000000000000000000000000000a4b1",
          "blockHash": "0x8db71ea429cca7c93a368853889582ddb627e83a27e42db86c93fda87f546e1f",
          "blockNumber": "0x42b499",
          "transactionHash": "0x50a0fbc3592425952e5cbd7ed89f9cbb2f3a7b3e7972f24f222ad176804d8172",
          "transactionIndex": "0x0",
          "logIndex": "0x0",
          "removed": false
        },
        {
          "address": "0x4fa6148c9dabc7a737422fb1b3ab9088c878d26c",
          "topics": [
            "0xa133e3c36769b3c9a2109eba45aba2da2ad0ccab8c9c6cc6c244892ba14d0f70",
            "0x0000000000000000000000000000000000000000000000000000000000000000"
          ],
          "data": "0x0000000000000000000000001816a0f20bc996f643b1af078e8d84a0aabd772a0000000000000000000000004fa6148c9dabc7a737422fb1b3ab9088c878d26c000000000000000000000000000000000000000000000000000000000000a4b1fffffffffffffffffffffffffffffffffffffffffffffffffffffffffffffffa",
          "blockHash": "0x8db71ea429cca7c93a368853889582ddb627e83a27e42db86c93fda87f546e1f",
          "blockNumber": "0x42b499",
          "transactionHash": "0x50a0fbc3592425952e5cbd7ed89f9cbb2f3a7b3e7972f24f222ad176804d8172",
          "transactionIndex": "0x0",
          "logIndex": "0x1",
          "removed": false
        }
      ],
      "logsBloom": "0x00000000000000000000000000000000000000000000000000000040000000000000000000000000000000000000000000000000000000000000000000000000000000000000000000000000000000000000000000000000000000000000000800000000020000000000000000000800010000000000000000000000000000000000000000100000000000000000000000000000040000000000000000000000000000000000000000000000000000000000000000000001000000000000000000000000000000000000000000000000000000000000000000400000000020000000000000000000000000000000000000000000040800000000000000000000",
      "type": "0x0",
      "transactionHash": "0x50a0fbc3592425952e5cbd7ed89f9cbb2f3a7b3e7972f24f222ad176804d8172",
      "transactionIndex": "0x0",
      "blockHash": "0x8db71ea429cca7c93a368853889582ddb627e83a27e42db86c93fda87f546e1f",
      "blockNumber": "0x42b499",
      "gasUsed": "0x1dd6c",
      "effectiveGasPrice": "0x454b7b38e70",
      "from": "0xd89421cd5dd6d6269fbb9307535c386afe11a23e",
      "to": "0x4fa6148c9dabc7a737422fb1b3ab9088c878d26c",
      "contractAddress": null,
      "r": "0x2A920C4C36AAEF57FD793A6DDF416235AC22A5A0AA79A4C77AD24B2FC55811DC",
      "root": "0x0000000000000000000000000000000000000000000000000000000000001010",
      "s": "0x2B6539CD79BA8EC06288FB539EE78499CC8C0DBDC460A10DBFE9E3BB2657D3B3",
      "v": "0x10025"
    }
  ],
  "libraries": [],
  "pending": [],
  "returns": {},
  "timestamp": 1736527110,
  "chain": 32769,
  "commit": "28f5fc2"
}