{
  "transactions": [
    {
      "hash": "0xbcaa3bc7ba76247215ce743aad9931ecdf661e45fac5ea7124e7ac4c0b2676fb",
      "transactionType": "CALL",
      "contractName": null,
      "contractAddress": "0xb4132e757345f0efd91af38cd824be441f34fe25",
      "function": "setLockProxyData(address,address)",
      "arguments": [
        "0xd73C6b871b4D0E130d64581993B745FC938A5be7",
        "0x7519550ae8b6f9d32E9c1A939Fb5C186f660BE5b"
      ],
      "transaction": {
        "from": "0xd89421cd5dd6d6269fbb9307535c386afe11a23e",
        "to": "0xb4132e757345f0efd91af38cd824be441f34fe25",
        "gas": "0x1978b",
        "value": "0x0",
        "input": "0x766a1b7b000000000000000000000000d73c6b871b4d0e130d64581993b745fc938a5be70000000000000000000000007519550ae8b6f9d32e9c1a939fb5c186f660be5b",
        "nonce": "0x15",
        "chainId": "0x8001"
      },
      "additionalContracts": [],
      "isFixedGasLimit": false
    }
  ],
  "receipts": [
    {
      "status": "0x1",
      "cumulativeGasUsed": "0x12408",
      "logs": [
        {
          "address": "0xb4132e757345f0efd91af38cd824be441f34fe25",
          "topics": [
            "0x90ca77ab15009de2392c35890c8e7fb753565ab9e96a342289aa32fcf433f35a"
          ],
          "data": "0x0000000000000000000000000000000000000000000000000000000000000000000000000000000000000000d73c6b871b4d0e130d64581993b745fc938a5be700000000000000000000000000000000000000000000000000000000000000000000000000000000000000007519550ae8b6f9d32e9c1a939fb5c186f660be5b",
          "blockHash": "0xcaad6eda6ff2408352a121869deab09d0ae1388b73d6519475c34c012a1633c7",
          "blockNumber": "0x41ecd1",
          "transactionHash": "0xbcaa3bc7ba76247215ce743aad9931ecdf661e45fac5ea7124e7ac4c0b2676fb",
          "transactionIndex": "0x1",
          "logIndex": "0x0",
          "removed": false
        }
      ],
      "logsBloom": "0x00000000000000000000000040000000000000000000000000000000000000000010000000000000000000000000000000000000000000000000000000000000000000000000000000000000000001000000000000000000000000002000000000000000000000000000000000000000000000000000000000000000000000000000000000000000000000000000000000000000008000000000000000000000000000000000000000000000000000000000000000000000000000000000000000000000000000000000000000000000000000000000000000000000000000000000000000000000000000040000000000000000000000000000000000000000",
      "type": "0x0",
      "transactionHash": "0xbcaa3bc7ba76247215ce743aad9931ecdf661e45fac5ea7124e7ac4c0b2676fb",
      "transactionIndex": "0x1",
      "blockHash": "0xcaad6eda6ff2408352a121869deab09d0ae1388b73d6519475c34c012a1633c7",
      "blockNumber": "0x41ecd1",
      "gasUsed": "0x12408",
      "effectiveGasPrice": "0x454b7b38e70",
      "from": "0xd89421cd5dd6d6269fbb9307535c386afe11a23e",
      "to": "0xb4132e757345f0efd91af38cd824be441f34fe25",
      "contractAddress": null,
      "r": "0xB1425596685849E13DB52785AFA8423086EBFD6DF689B13A2751CAF0AEC2BFBF",
      "root": "0x0000000000000000000000000000000000000000000000000000000000001010",
      "s": "0x45CBA7DEAF43E05C07C9FB73E9DD31DD1A5F87CAE3C71219370C10277925491D",
      "v": "0x10025"
    }
  ],
  "libraries": [],
  "pending": [],
  "returns": {},
  "timestamp": 1734711762,
  "chain": 32769,
  "commit": "2a7a7a0"
}