{
  "transactions": [
    {
      "hash": "0xa56bfa8fcd85ae546bd0e6035395d3276e7cb6eb685b3271368886b7b5f46315",
      "transactionType": "CALL",
      "contractName": null,
      "contractAddress": "0x4fa6148c9dabc7a737422fb1b3ab9088c878d26c",
      "function": "registerToken(address,(address,address,uint256))",
      "arguments": [
        "0x4345472A0c6164F35808CDb7e7eCCd3d326CC50b",
        "(0x0000000000000000000000000000000000000000, 0x7519550ae8b6f9d32E9c1A939Fb5C186f660BE5b, 137)"
      ],
      "transaction": {
        "from": "0xd89421cd5dd6d6269fbb9307535c386afe11a23e",
        "to": "0x4fa6148c9dabc7a737422fb1b3ab9088c878d26c",
        "gas": "0x1a7fb",
        "value": "0x0",
        "input": "0x8bc76f740000000000000000000000004345472a0c6164f35808cdb7e7eccd3d326cc50b00000000000000000000000000000000000000000000000000000000000000000000000000000000000000007519550ae8b6f9d32e9c1a939fb5c186f660be5b0000000000000000000000000000000000000000000000000000000000000089",
        "nonce": "0x1b",
        "chainId": "0x8001"
      },
      "additionalContracts": [],
      "isFixedGasLimit": false
    },
    {
      "hash": "0x68ddfd4e449f5dec861359d9c3b0e90c860795ff02e743018fe1e94ffd65c76f",
      "transactionType": "CALL",
      "contractName": null,
      "contractAddress": "0x4fa6148c9dabc7a737422fb1b3ab9088c878d26c",
      "function": "registerToken(address,(address,address,uint256))",
      "arguments": [
        "0x0000000000000000000000000000000000000000",
        "(0xCc88D28f7d4B0D5AFACCC77F6102d88EE630fA17, 0x3faC7cb5b45A3B59d76b6926bc704Cf3cc522437, 137)"
      ],
      "transaction": {
        "from": "0xd89421cd5dd6d6269fbb9307535c386afe11a23e",
        "to": "0x4fa6148c9dabc7a737422fb1b3ab9088c878d26c",
        "gas": "0xd13d",
        "value": "0x0",
        "input": "0x8bc76f740000000000000000000000000000000000000000000000000000000000000000000000000000000000000000cc88d28f7d4b0d5afaccc77f6102d88ee630fa170000000000000000000000003fac7cb5b45a3b59d76b6926bc704cf3cc5224370000000000000000000000000000000000000000000000000000000000000089",
        "nonce": "0x1c",
        "chainId": "0x8001"
      },
      "additionalContracts": [],
      "isFixedGasLimit": false
    }
  ],
  "receipts": [
    {
      "status": "0x1",
      "cumulativeGasUsed": "0x12f84",
      "logs": [
        {
          "address": "0x4fa6148c9dabc7a737422fb1b3ab9088c878d26c",
          "topics": [
            "0xacee94c8a79111860852775471f35a102ad3dc32ff2716802bd1000ceb51f5a8",
            "0x0000000000000000000000004345472a0c6164f35808cdb7e7eccd3d326cc50b"
          ],
          "data": "0x00000000000000000000000000000000000000000000000000000000000000000000000000000000000000007519550ae8b6f9d32e9c1a939fb5c186f660be5b0000000000000000000000000000000000000000000000000000000000000089",
          "blockHash": "0xb38b42028e8e03ba557403c8c3c7b9bc80c97ee58aeaf60ab8a579cedfd4a777",
          "blockNumber": "0x423039",
          "transactionHash": "0xa56bfa8fcd85ae546bd0e6035395d3276e7cb6eb685b3271368886b7b5f46315",
          "transactionIndex": "0x0",
          "logIndex": "0x0",
          "removed": false
        }
      ],
      "logsBloom": "0x00000000000000000000000000000000000000000000000000000000000000000000000000000000000000000000000000000000000000000000000000000000000000000000000000000000000000000000000000000000000000000000000800000000000000000000000000000000010000000000000000000000000000000000000000100000000000000000000000000000000000000000000000000000000000000000000000000000000000000000000000000000000000000000000000000000000000000000000000000000000000000000000080400000000000000000000000000000000000200020000000000000040800000000000000000000",
      "type": "0x0",
      "transactionHash": "0xa56bfa8fcd85ae546bd0e6035395d3276e7cb6eb685b3271368886b7b5f46315",
      "transactionIndex": "0x0",
      "blockHash": "0xb38b42028e8e03ba557403c8c3c7b9bc80c97ee58aeaf60ab8a579cedfd4a777",
      "blockNumber": "0x423039",
      "gasUsed": "0x12f84",
      "effectiveGasPrice": "0x454b7b38e70",
      "from": "0xd89421cd5dd6d6269fbb9307535c386afe11a23e",
      "to": "0x4fa6148c9dabc7a737422fb1b3ab9088c878d26c",
      "contractAddress": null,
      "r": "0x35F42669928523444D9B116AD603DAF769B2F73D3747EE2E55DA5207B5F5E93A",
      "root": "0x0000000000000000000000000000000000000000000000000000000000001010",
      "s": "0x4C0EB64DCC304EFC0CDEA25FF3BE8B3F2244AF4F105C6243208210BB28A6CA05",
      "v": "0x10025"
    },
    {
      "status": "0x1",
      "cumulativeGasUsed": "0x93a8",
      "logs": [
        {
          "address": "0x4fa6148c9dabc7a737422fb1b3ab9088c878d26c",
          "topics": [
            "0xacee94c8a79111860852775471f35a102ad3dc32ff2716802bd1000ceb51f5a8",
            "0x0000000000000000000000000000000000000000000000000000000000000000"
          ],
          "data": "0x000000000000000000000000cc88d28f7d4b0d5afaccc77f6102d88ee630fa170000000000000000000000003fac7cb5b45a3b59d76b6926bc704cf3cc5224370000000000000000000000000000000000000000000000000000000000000089",
          "blockHash": "0xb38b42028e8e03ba557403c8c3c7b9bc80c97ee58aeaf60ab8a579cedfd4a777",
          "blockNumber": "0x423039",
          "transactionHash": "0x68ddfd4e449f5dec861359d9c3b0e90c860795ff02e743018fe1e94ffd65c76f",
          "transactionIndex": "0x1",
          "logIndex": "0x2",
          "removed": false
        }
      ],
      "logsBloom": "0x00000000000000000000000000000000000000000000000000000000000000000000000000000000000000000000000000000000000000000000000000000000000000000000000000000000000000000000000000000000000000000000000800000000020000000000000000000800010000000000000000000000000000000000000000100000000000000000000000000000000000000000000000000000000000000000000000000000000000000000000000000000000000000000000000000000000000000000000000000000000000000000000000400000000020000000000000000000000000000000000000000000040800000000000000000000",
      "type": "0x0",
      "transactionHash": "0x68ddfd4e449f5dec861359d9c3b0e90c860795ff02e743018fe1e94ffd65c76f",
      "transactionIndex": "0x1",
      "blockHash": "0xb38b42028e8e03ba557403c8c3c7b9bc80c97ee58aeaf60ab8a579cedfd4a777",
      "blockNumber": "0x423039",
      "gasUsed": "0x93a8",
      "effectiveGasPrice": "0x454b7b38e70",
      "from": "0xd89421cd5dd6d6269fbb9307535c386afe11a23e",
      "to": "0x4fa6148c9dabc7a737422fb1b3ab9088c878d26c",
      "contractAddress": null,
      "r": "0xD893DAB3A322B1E06A9B3CA9D094266F28F75585A8B625A95A52319438FB2CE1",
      "root": "0x0000000000000000000000000000000000000000000000000000000000001010",
      "s": "0x163BB483E07EB6ED11579014E25F6743F3E003AE1EF4ADC59FD63A62D40EC567",
      "v": "0x10025"
    }
  ],
  "libraries": [],
  "pending": [],
  "returns": {},
  "timestamp": 1735323932,
  "chain": 32769,
  "commit": "80c8cc8"
}