{
  "transactions": [
    {
      "hash": "0x7645a09ea4615cb330b3f8d42b9517e0952d8f4e1654f7b718a5f1b5edea8dba",
      "transactionType": "CALL",
      "contractName": null,
      "contractAddress": "0x0b70fe0b5fe14089353ae1dd9610e445ce889e2e",
      "function": "transfer(address,uint256)",
      "arguments": [
        "0xB85fF091342e2e7a7461238796d5224fA81ca556",
        "200000"
      ],
      "transaction": {
        "from": "0xb494d016f2cf329224e2db445aa748cf96c18c29",
        "to": "0x0b70fe0b5fe14089353ae1dd9610e445ce889e2e",
        "gas": "0x11467",
        "value": "0x0",
        "input": "0xa9059cbb000000000000000000000000b85ff091342e2e7a7461238796d5224fa81ca5560000000000000000000000000000000000000000000000000000000000030d40",
        "nonce": "0x1ff",
        "chainId": "0x814d"
      },
      "additionalContracts": [],
      "isFixedGasLimit": false
    }
  ],
  "receipts": [
    {
      "status": "0x1",
      "cumulativeGasUsed": "0xc684",
      "logs": [
        {
          "address": "0x0b70fe0b5fe14089353ae1dd9610e445ce889e2e",
          "topics": [
            "0xddf252ad1be2c89b69c2b068fc378daa952ba7f163c4a11628f55a4df523b3ef",
            "0x000000000000000000000000b494d016f2cf329224e2db445aa748cf96c18c29",
            "0x000000000000000000000000b85ff091342e2e7a7461238796d5224fa81ca556"
          ],
          "data": "0x0000000000000000000000000000000000000000000000000000000000030d40",
          "blockHash": "0x40ee0ac94bda62122e7b9a2ad5348f31aa1505f239bc9b75a58e8090bb58aa16",
          "blockNumber": "0x742e0a",
          "transactionHash": "0x7645a09ea4615cb330b3f8d42b9517e0952d8f4e1654f7b718a5f1b5edea8dba",
          "transactionIndex": "0x0",
          "logIndex": "0x0",
          "removed": false
        }
      ],
      "logsBloom": "0x00000000000000000000000000000000000002000000000000000000000000000000000000000000000000000000000000000000000000000000000000000000000000000000000000000008000000000000000000000400000000000000000000000000000000000000000000000000000000000000000000800010000000010000080000000000000000000000000000000004000000000000000000200000000000000000000000000000000000000000000000000000000000000000000000000002000000000000000080000000000000000000000800000000000000000000000000000000000000000000000000000000000000000000000000000000",
      "type": "0x0",
      "transactionHash": "0x7645a09ea4615cb330b3f8d42b9517e0952d8f4e1654f7b718a5f1b5edea8dba",
      "transactionIndex": "0x0",
      "blockHash": "0x40ee0ac94bda62122e7b9a2ad5348f31aa1505f239bc9b75a58e8090bb58aa16",
      "blockNumber": "0x742e0a",
      "gasUsed": "0xc684",
      "effectiveGasPrice": "0x454b7b38e70",
      "from": "0xb494d016f2cf329224e2db445aa748cf96c18c29",
      "to": "0x0b70fe0b5fe14089353ae1dd9610e445ce889e2e",
      "contractAddress": null,
      "r": "0x7AD8E63A1AAA8A31B42B1EAB4E98CD0AFCB59AFAB85F457318DDC09377FF616E",
      "root": "0x0000000000000000000000000000000000000000000000000000000000001010",
      "s": "0x080CF33B3B07644CA3FFD779C36539B46621871BF75267F0A7963E32471601C7",
      "v": "0x102be"
    }
  ],
  "libraries": [],
  "pending": [],
  "returns": {},
  "timestamp": 1736365796,
  "chain": 33101,
  "commit": "599477f"
}