{
  "transactions": [
    {
      "hash": "0x9d91fad3a390a2a6e61f9084d35af5188c5ff4e0453c055dc838910cdd149117",
      "transactionType": "CALL",
      "contractName": null,
      "contractAddress": "0xd6b5231dc7a5c37461a21a8eb42610e09113ad1a",
      "function": "transfer(address,uint256)",
      "arguments": [
        "0xB85fF091342e2e7a7461238796d5224fA81ca556",
        "200000000000000000000"
      ],
      "transaction": {
        "from": "0xb494d016f2cf329224e2db445aa748cf96c18c29",
        "to": "0xd6b5231dc7a5c37461a21a8eb42610e09113ad1a",
        "gas": "0x114a9",
        "value": "0x0",
        "input": "0xa9059cbb000000000000000000000000b85ff091342e2e7a7461238796d5224fa81ca55600000000000000000000000000000000000000000000000ad78ebc5ac6200000",
        "nonce": "0x203",
        "chainId": "0x814d"
      },
      "additionalContracts": [],
      "isFixedGasLimit": false
    }
  ],
  "receipts": [
    {
      "status": "0x1",
      "cumulativeGasUsed": "0xc4e0",
      "logs": [
        {
          "address": "0xd6b5231dc7a5c37461a21a8eb42610e09113ad1a",
          "topics": [
            "0xddf252ad1be2c89b69c2b068fc378daa952ba7f163c4a11628f55a4df523b3ef",
            "0x000000000000000000000000b494d016f2cf329224e2db445aa748cf96c18c29",
            "0x000000000000000000000000b85ff091342e2e7a7461238796d5224fa81ca556"
          ],
          "data": "0x00000000000000000000000000000000000000000000000ad78ebc5ac6200000",
          "blockHash": "0x444ff1d715caffb02af6952d7bf1eb10a070ec6104a82b67610dba6223069baa",
          "blockNumber": "0x742e25",
          "transactionHash": "0x9d91fad3a390a2a6e61f9084d35af5188c5ff4e0453c055dc838910cdd149117",
          "transactionIndex": "0x0",
          "logIndex": "0x0",
          "removed": false
        }
      ],
      "logsBloom": "0x00000000000000000000000000000000000402000000000000000000000000000000000000000000000000000000000000000000000000000000000000000000000000000000000000000008000000000000000000000000000000000000000000000000000000000000000000000000000000000000000000800010000000010000080000000000000000000000000000000000000000000000000000000000000000000000000000000000000000000000000000000000000000000000000000000002000000000000000080000000000000000000000800000000000000000000000000001000000000000000000020000000000000000000000000000000",
      "type": "0x0",
      "transactionHash": "0x9d91fad3a390a2a6e61f9084d35af5188c5ff4e0453c055dc838910cdd149117",
      "transactionIndex": "0x0",
      "blockHash": "0x444ff1d715caffb02af6952d7bf1eb10a070ec6104a82b67610dba6223069baa",
      "blockNumber": "0x742e25",
      "gasUsed": "0xc4e0",
      "effectiveGasPrice": "0x454b7b38e70",
      "from": "0xb494d016f2cf329224e2db445aa748cf96c18c29",
      "to": "0xd6b5231dc7a5c37461a21a8eb42610e09113ad1a",
      "contractAddress": null,
      "r": "0x576E4EE5E381D45C6C62C7AE80174895E0AE4D5C75923BBCFD81C8DB0EF5BBCE",
      "root": "0x0000000000000000000000000000000000000000000000000000000000001010",
      "s": "0x3705FB668D81383362F16C27A6490776450362CF75761CE2C1246931E632B3DD",
      "v": "0x102be"
    }
  ],
  "libraries": [],
  "pending": [],
  "returns": {},
  "timestamp": 1736366540,
  "chain": 33101,
  "commit": "599477f"
}