{
  "transactions": [
    {
      "hash": "0xa2edc328d1f42abe606841257dc1d7a2b4826f1083068fbdf889ae6f664b4156",
      "transactionType": "CALL",
      "contractName": null,
      "contractAddress": "0x4fa6148c9dabc7a737422fb1b3ab9088c878d26c",
      "function": "registerToken(address,(address,address,uint256))",
      "arguments": [
        "0x63B991C17010C21250a0eA58C6697F696a48cdf3",
        "(0xfBfd50DB16B3a72db010641EE008A275ef2456ae, 0x5E734196B1fa96710A9e64ed9224dD4830d2A5EE, 8453)"
      ],
      "transaction": {
        "from": "0xd89421cd5dd6d6269fbb9307535c386afe11a23e",
        "to": "0x4fa6148c9dabc7a737422fb1b3ab9088c878d26c",
        "gas": "0x2229d",
        "value": "0x0",
        "input": "0x8bc76f7400000000000000000000000063b991c17010c21250a0ea58c6697f696a48cdf3000000000000000000000000fbfd50db16b3a72db010641ee008a275ef2456ae0000000000000000000000005e734196b1fa96710a9e64ed9224dd4830d2a5ee0000000000000000000000000000000000000000000000000000000000002105",
        "nonce": "0x8c",
        "chainId": "0x8001"
      },
      "additionalContracts": [],
      "isFixedGasLimit": false
    }
  ],
  "receipts": [
    {
      "status": "0x1",
      "cumulativeGasUsed": "0x18678",
      "logs": [
        {
          "address": "0x4fa6148c9dabc7a737422fb1b3ab9088c878d26c",
          "topics": [
            "0xacee94c8a79111860852775471f35a102ad3dc32ff2716802bd1000ceb51f5a8",
            "0x00000000000000000000000063b991c17010c21250a0ea58c6697f696a48cdf3"
          ],
          "data": "0x000000000000000000000000fbfd50db16b3a72db010641ee008a275ef2456ae0000000000000000000000005e734196b1fa96710a9e64ed9224dd4830d2a5ee0000000000000000000000000000000000000000000000000000000000002105",
          "blockHash": "0xdd798a068dd2ca86f0ea90a1e27e2238b2c1c52ff5356c6907f705ecc4dbc080",
          "blockNumber": "0x432dff",
          "transactionHash": "0xa2edc328d1f42abe606841257dc1d7a2b4826f1083068fbdf889ae6f664b4156",
          "transactionIndex": "0x1",
          "logIndex": "0x0",
          "removed": false
        }
      ],
      "logsBloom": "0x00000000000000000001000000000000000000000000000000000000000000000000000000000000000000000000000000000000000000000000000000000080000000000000000000000000000000000000000000000000000000000000000800000000000000000000000000000000010000000000000000000000000000001000000000100000000000000000000000000000000000000000000000000000000000000000000000000000000000000000000000000000000000000000000000000000000000000000000000000000000000000000000000400000000000000000000000000000000000000000000000000000040800000000000000000000",
      "type": "0x0",
      "transactionHash": "0xa2edc328d1f42abe606841257dc1d7a2b4826f1083068fbdf889ae6f664b4156",
      "transactionIndex": "0x1",
      "blockHash": "0xdd798a068dd2ca86f0ea90a1e27e2238b2c1c52ff5356c6907f705ecc4dbc080",
      "blockNumber": "0x432dff",
      "gasUsed": "0x18678",
      "effectiveGasPrice": "0x454b7b38e70",
      "from": "0xd89421cd5dd6d6269fbb9307535c386afe11a23e",
      "to": "0x4fa6148c9dabc7a737422fb1b3ab9088c878d26c",
      "contractAddress": null,
      "r": "0x95F50D482EA131CCBC886BE72CBD3A007B88E45B39B57F903FE3D44D7814BA2D",
      "root": "0x0000000000000000000000000000000000000000000000000000000000001010",
      "s": "0x4A80404DDFA9ED291AE397D85A332C31EEE643F4BD5650320A84855A8E9AB241",
      "v": "0x10025"
    }
  ],
  "libraries": [],
  "pending": [],
  "returns": {},
  "timestamp": 1737634054,
  "chain": 32769,
  "commit": "b05cfaa"
}