{
  "transactions": [
    {
      "hash": "0x57ba0c7119baeddb5a5e58ab15e95cb5308b63234ca1286b1453433739782338",
      "transactionType": "CALL",
      "contractName": null,
      "contractAddress": "0x4fa6148c9dabc7a737422fb1b3ab9088c878d26c",
      "function": "registerToken(address,(address,address,uint256))",
      "arguments": [
        "0x17D5af5658A24bd964984b36d28e879a8626adC3",
        "(0x0000000000000000000000000000000000000000, 0x2EE8e8D7C113Bb7c180f4755f06ed50bE53BEDe5, 1)"
      ],
      "transaction": {
        "from": "0xd89421cd5dd6d6269fbb9307535c386afe11a23e",
        "to": "0x4fa6148c9dabc7a737422fb1b3ab9088c878d26c",
        "gas": "0xd45a",
        "value": "0x0",
        "input": "0x8bc76f7400000000000000000000000017d5af5658a24bd964984b36d28e879a8626adc300000000000000000000000000000000000000000000000000000000000000000000000000000000000000002ee8e8d7c113bb7c180f4755f06ed50be53bede50000000000000000000000000000000000000000000000000000000000000001",
        "nonce": "0x84",
        "chainId": "0x8001"
      },
      "additionalContracts": [],
      "isFixedGasLimit": false
    },
    {
      "hash": "0xcb9c2233967a499b911b42e12fd5bbfd29a3b11313d8974f99951dc91c4cd58b",
      "transactionType": "CALL",
      "contractName": null,
      "contractAddress": "0x4fa6148c9dabc7a737422fb1b3ab9088c878d26c",
      "function": "registerToken(address,(address,address,uint256))",
      "arguments": [
        "0x8DEAdC20f7218994c86b59eE1D5c7979fFcAa893",
        "(0x80D55c03180349Fff4a229102F62328220A96444, 0x2EE8e8D7C113Bb7c180f4755f06ed50bE53BEDe5, 1)"
      ],
      "transaction": {
        "from": "0xd89421cd5dd6d6269fbb9307535c386afe11a23e",
        "to": "0x4fa6148c9dabc7a737422fb1b3ab9088c878d26c",
        "gas": "0xe070",
        "value": "0x0",
        "input": "0x8bc76f740000000000000000000000008deadc20f7218994c86b59ee1d5c7979ffcaa89300000000000000000000000080d55c03180349fff4a229102f62328220a964440000000000000000000000002ee8e8d7c113bb7c180f4755f06ed50be53bede50000000000000000000000000000000000000000000000000000000000000001",
        "nonce": "0x85",
        "chainId": "0x8001"
      },
      "additionalContracts": [],
      "isFixedGasLimit": false
    }
  ],
  "receipts": [
    {
      "status": "0x1",
      "cumulativeGasUsed": "0xa8fc",
      "logs": [
        {
          "address": "0x4fa6148c9dabc7a737422fb1b3ab9088c878d26c",
          "topics": [
            "0xacee94c8a79111860852775471f35a102ad3dc32ff2716802bd1000ceb51f5a8",
            "0x00000000000000000000000017d5af5658a24bd964984b36d28e879a8626adc3"
          ],
          "data": "0x00000000000000000000000000000000000000000000000000000000000000000000000000000000000000002ee8e8d7c113bb7c180f4755f06ed50be53bede50000000000000000000000000000000000000000000000000000000000000001",
          "blockHash": "0xe08e953094d3824e2b0f88311e148f1716a94a28447e89a97e541edecebf69f5",
          "blockNumber": "0x42eb0c",
          "transactionHash": "0x57ba0c7119baeddb5a5e58ab15e95cb5308b63234ca1286b1453433739782338",
          "transactionIndex": "0x0",
          "logIndex": "0x0",
          "removed": false
        }
      ],
      "logsBloom": "0x00000000000000000000000000000000000000000000000000000000000000000000000000000000000000000000000000000000000000000000000000000000000000000000000000000000000000000000000000000000000000000000000800000000000000000000000000000000010000000000000000000000000000000000000000100000000000000000000000000000000000000000000000000000000000000000000000000000000000000000002000000000000000000000000000000000000000000000000000000000000000000000000000400000000000000000000008000000000000000000000000000000040800000001000000000000",
      "type": "0x0",
      "transactionHash": "0x57ba0c7119baeddb5a5e58ab15e95cb5308b63234ca1286b1453433739782338",
      "transactionIndex": "0x0",
      "blockHash": "0xe08e953094d3824e2b0f88311e148f1716a94a28447e89a97e541edecebf69f5",
      "blockNumber": "0x42eb0c",
      "gasUsed": "0xa8fc",
      "effectiveGasPrice": "0x454b7b38e70",
      "from": "0xd89421cd5dd6d6269fbb9307535c386afe11a23e",
      "to": "0x4fa6148c9dabc7a737422fb1b3ab9088c878d26c",
      "contractAddress": null,
      "r": "0x088B426B7ABBE8580A68EF140FABE194FF9CF6A235F9D324930F17523E2DF298",
      "root": "0x0000000000000000000000000000000000000000000000000000000000001010",
      "s": "0x78362A8534068FD0286AC149854FF8B08DF11A84A179577392E6220DF31CE584",
      "v": "0x10025"
    },
    {
      "status": "0x1",
      "cumulativeGasUsed": "0x9d80",
      "logs": [
        {
          "address": "0x4fa6148c9dabc7a737422fb1b3ab9088c878d26c",
          "topics": [
            "0xacee94c8a79111860852775471f35a102ad3dc32ff2716802bd1000ceb51f5a8",
            "0x0000000000000000000000008deadc20f7218994c86b59ee1d5c7979ffcaa893"
          ],
          "data": "0x00000000000000000000000080d55c03180349fff4a229102f62328220a964440000000000000000000000002ee8e8d7c113bb7c180f4755f06ed50be53bede50000000000000000000000000000000000000000000000000000000000000001",
          "blockHash": "0xe08e953094d3824e2b0f88311e148f1716a94a28447e89a97e541edecebf69f5",
          "blockNumber": "0x42eb0c",
          "transactionHash": "0xcb9c2233967a499b911b42e12fd5bbfd29a3b11313d8974f99951dc91c4cd58b",
          "transactionIndex": "0x1",
          "logIndex": "0x2",
          "removed": false
        }
      ],
      "logsBloom": "0x02000000000000000000000000000000000000000000000000000000000000000000000000000000000000000000000000000000000000000000000000000000000000000000000000000000000000000000000000000000040000000000000800000000000000000000000000000000010000000000000000000000000000000000000000100000000000000000000000000000000000000000000000000000000000000000000000000000000000000000000000000000000000000000000000000000000000000000000000000000000000000000000000400000000000000000000000000000000000000000000000000000040802000000000000000000",
      "type": "0x0",
      "transactionHash": "0xcb9c2233967a499b911b42e12fd5bbfd29a3b11313d8974f99951dc91c4cd58b",
      "transactionIndex": "0x1",
      "blockHash": "0xe08e953094d3824e2b0f88311e148f1716a94a28447e89a97e541edecebf69f5",
      "blockNumber": "0x42eb0c",
      "gasUsed": "0x9d80",
      "effectiveGasPrice": "0x454b7b38e70",
      "from": "0xd89421cd5dd6d6269fbb9307535c386afe11a23e",
      "to": "0x4fa6148c9dabc7a737422fb1b3ab9088c878d26c",
      "contractAddress": null,
      "r": "0x3BC5324B6E639387DBA4B1CF6F89BDA9BAA2480C3C50A7C601B3BEAE28B434D0",
      "root": "0x0000000000000000000000000000000000000000000000000000000000001010",
      "s": "0x3B982C9C23DD53BC89CC3609E76C1E8860CFF4B40580955B971D69ECAC9807CD",
      "v": "0x10026"
    }
  ],
  "libraries": [],
  "pending": [],
  "returns": {},
  "timestamp": 1737027407,
  "chain": 32769,
  "commit": "c435e86"
}