{
  "transactions": [
    {
      "hash": "0x86c9a396b1259c304b140977e71f8bbb8958d64c30c51f7e2685f90deab7044a",
      "transactionType": "CALL",
      "contractName": null,
      "contractAddress": "0x4fa6148c9dabc7a737422fb1b3ab9088c878d26c",
      "function": "registerTokenWithScale(address,(address,address,uint256),int8)",
      "arguments": [
        "0x1816A0f20bc996F643B1aF078e8D84a0aaBD772A",
        "(0x0000000000000000000000000000000000000000, 0x4fa6148C9DAbC7A737422fb1b3AB9088c878d26C, 32769)",
        "6"
      ],
      "transaction": {
        "from": "0xd89421cd5dd6d6269fbb9307535c386afe11a23e",
        "to": "0x4fa6148c9dabc7a737422fb1b3ab9088c878d26c",
        "gas": "0x94c87",
        "value": "0x0",
        "input": "0x126d5f2f0000000000000000000000001816a0f20bc996f643b1af078e8d84a0aabd772a00000000000000000000000000000000000000000000000000000000000000000000000000000000000000004fa6148c9dabc7a737422fb1b3ab9088c878d26c00000000000000000000000000000000000000000000000000000000000080010000000000000000000000000000000000000000000000000000000000000006",
        "nonce": "0x19",
        "chainId": "0xa4b1"
      },
      "additionalContracts": [],
      "isFixedGasLimit": false
    },
    {
      "hash": "0xf3e663b5132b56e9edc328c4e1a1a247c626abd3d6bfca617120b09718b961a1",
      "transactionType": "CALL",
      "contractName": null,
      "contractAddress": "0x4345472a0c6164f35808cdb7e7eccd3d326cc50b",
      "function": "registerToken(address,(address,address,uint256))",
      "arguments": [
        "0x0000000000000000000000000000000000000000",
        "(0x17D5af5658A24bd964984b36d28e879a8626adC3, 0x4fa6148C9DAbC7A737422fb1b3AB9088c878d26C, 32769)"
      ],
      "transaction": {
        "from": "0xd89421cd5dd6d6269fbb9307535c386afe11a23e",
        "to": "0x4345472a0c6164f35808cdb7e7eccd3d326cc50b",
        "gas": "0x93250",
        "value": "0x0",
        "input": "0x8bc76f74000000000000000000000000000000000000000000000000000000000000000000000000000000000000000017d5af5658a24bd964984b36d28e879a8626adc30000000000000000000000004fa6148c9dabc7a737422fb1b3ab9088c878d26c0000000000000000000000000000000000000000000000000000000000008001",
        "nonce": "0x1a",
        "chainId": "0xa4b1"
      },
      "additionalContracts": [],
      "isFixedGasLimit": false
    }
  ],
  "receipts": [
    {
      "status": "0x1",
      "cumulativeGasUsed": "0x607a3",
      "logs": [
        {
          "address": "0x4fa6148c9dabc7a737422fb1b3ab9088c878d26c",
          "topics": [
            "0xacee94c8a79111860852775471f35a102ad3dc32ff2716802bd1000ceb51f5a8",
            "0x0000000000000000000000001816a0f20bc996f643b1af078e8d84a0aabd772a"
          ],
          "data": "0x00000000000000000000000000000000000000000000000000000000000000000000000000000000000000004fa6148c9dabc7a737422fb1b3ab9088c878d26c0000000000000000000000000000000000000000000000000000000000008001",
          "blockHash": "0xaae421ce913c4b0a2b11998952f1f90c1c5e8b185ce6cfe2a05913ff9fe80948",
          "blockNumber": "0x118659f9",
          "transactionHash": "0x86c9a396b1259c304b140977e71f8bbb8958d64c30c51f7e2685f90deab7044a",
          "transactionIndex": "0x1",
          "logIndex": "0x0",
          "removed": false
        },
        {
          "address": "0x4fa6148c9dabc7a737422fb1b3ab9088c878d26c",
          "topics": [
            "0xa133e3c36769b3c9a2109eba45aba2da2ad0ccab8c9c6cc6c244892ba14d0f70",
            "0x0000000000000000000000001816a0f20bc996f643b1af078e8d84a0aabd772a"
          ],
          "data": "0x00000000000000000000000000000000000000000000000000000000000000000000000000000000000000004fa6148c9dabc7a737422fb1b3ab9088c878d26c00000000000000000000000000000000000000000000000000000000000080010000000000000000000000000000000000000000000000000000000000000006",
          "blockHash": "0xaae421ce913c4b0a2b11998952f1f90c1c5e8b185ce6cfe2a05913ff9fe80948",
          "blockNumber": "0x118659f9",
          "transactionHash": "0x86c9a396b1259c304b140977e71f8bbb8958d64c30c51f7e2685f90deab7044a",
          "transactionIndex": "0x1",
          "logIndex": "0x1",
          "removed": false
        }
      ],
      "logsBloom": "0x00000000000000000000000000000000000000000000000000000040000000000000000000000000000000000000000000008000000000000000000000000000000000000000000000000000000000000000000000000000000000000000000800000000000200000000000000000000010000000000000000000000000000000000000000100000000000000000000000000000040000000000000000000000000000000000000000000000000000000000000000000001000000000000000000000000000000000000000000000000000000000000000000404000000000000000000000000000000000000000000000000000040800000000000000000000",
      "type": "0x2",
      "transactionHash": "0x86c9a396b1259c304b140977e71f8bbb8958d64c30c51f7e2685f90deab7044a",
      "transactionIndex": "0x1",
      "blockHash": "0xaae421ce913c4b0a2b11998952f1f90c1c5e8b185ce6cfe2a05913ff9fe80948",
      "blockNumber": "0x118659f9",
      "gasUsed": "0x607a3",
      "effectiveGasPrice": "0x989680",
      "from": "0xd89421cd5dd6d6269fbb9307535c386afe11a23e",
      "to": "0x4fa6148c9dabc7a737422fb1b3ab9088c878d26c",
      "contractAddress": null,
      "gasUsedForL1": "0x472e3",
      "l1BlockNumber": "0x1498493"
    },
    {
      "status": "0x1",
      "cumulativeGasUsed": "0x13b1c8",
      "logs": [
        {
          "address": "0x4345472a0c6164f35808cdb7e7eccd3d326cc50b",
          "topics": [
            "0xacee94c8a79111860852775471f35a102ad3dc32ff2716802bd1000ceb51f5a8",
            "0x0000000000000000000000000000000000000000000000000000000000000000"
          ],
          "data": "0x00000000000000000000000017d5af5658a24bd964984b36d28e879a8626adc30000000000000000000000004fa6148c9dabc7a737422fb1b3ab9088c878d26c0000000000000000000000000000000000000000000000000000000000008001",
          "blockHash": "0x12f0b3f1abc7f6fcec728f031522a673b38432eda41328f2a4d15422801fef4f",
          "blockNumber": "0x11865a02",
          "transactionHash": "0xf3e663b5132b56e9edc328c4e1a1a247c626abd3d6bfca617120b09718b961a1",
          "transactionIndex": "0x2",
          "logIndex": "0x3",
          "removed": false
        }
      ],
      "logsBloom": "0x00000000000000000000000000000000000000000000000000000000000000000000000000000000000000000000000000000000000000000000000000000000000000000000000000000000020000000000000000001000000000000000000000000000020000000000000000000800010800000000000000000000000000000000000000100000000000000000000000000000000000000000000000000000000000000000000000000000000000000000000000000000000000000000000000000000000000000000000000000000000000000000000000000000000020000000000000000000000000000000000000000000000800000000000000000000",
      "type": "0x2",
      "transactionHash": "0xf3e663b5132b56e9edc328c4e1a1a247c626abd3d6bfca617120b09718b961a1",
      "transactionIndex": "0x2",
      "blockHash": "0x12f0b3f1abc7f6fcec728f031522a673b38432eda41328f2a4d15422801fef4f",
      "blockNumber": "0x11865a02",
      "gasUsed": "0x5eb65",
      "effectiveGasPrice": "0x989680",
      "from": "0xd89421cd5dd6d6269fbb9307535c386afe11a23e",
      "to": "0x4345472a0c6164f35808cdb7e7eccd3d326cc50b",
      "contractAddress": null,
      "gasUsedForL1": "0x46097",
      "l1BlockNumber": "0x1498493"
    }
  ],
  "libraries": [],
  "pending": [],
  "returns": {},
  "timestamp": 1736526671,
  "chain": 42161,
  "commit": "28f5fc2"
}