{
  "transactions": [
    {
      "hash": "0x0d8909eb8fccda0e02fd09cef19237367d2b54fcf15f69a5b2efbd41f8f61bca",
      "transactionType": "CALL",
      "contractName": null,
      "contractAddress": "0x4fa6148c9dabc7a737422fb1b3ab9088c878d26c",
      "function": "registerToken(address,(address,address,uint256))",
      "arguments": [
        "0x8DEAdC20f7218994c86b59eE1D5c7979fFcAa893",
        "(0x80D55c03180349Fff4a229102F62328220A96444, 0x2EE8e8D7C113Bb7c180f4755f06ed50bE53BEDe5, 1)"
      ],
      "transaction": {
        "from": "0xd89421cd5dd6d6269fbb9307535c386afe11a23e",
        "to": "0x4fa6148c9dabc7a737422fb1b3ab9088c878d26c",
        "gas": "0x242b4",
        "value": "0x0",
        "input": "0x8bc76f740000000000000000000000008deadc20f7218994c86b59ee1d5c7979ffcaa89300000000000000000000000080d55c03180349fff4a229102f62328220a964440000000000000000000000002ee8e8d7c113bb7c180f4755f06ed50be53bede50000000000000000000000000000000000000000000000000000000000000001",
        "nonce": "0x5b",
        "chainId": "0x8001"
      },
      "additionalContracts": [],
      "isFixedGasLimit": false
    }
  ],
  "receipts": [
    {
      "status": "0x1",
      "cumulativeGasUsed": "0x18678",
      "logs": [
        {
          "address": "0x4fa6148c9dabc7a737422fb1b3ab9088c878d26c",
          "topics": [
            "0xacee94c8a79111860852775471f35a102ad3dc32ff2716802bd1000ceb51f5a8",
            "0x0000000000000000000000008deadc20f7218994c86b59ee1d5c7979ffcaa893"
          ],
          "data": "0x00000000000000000000000080d55c03180349fff4a229102f62328220a964440000000000000000000000002ee8e8d7c113bb7c180f4755f06ed50be53bede50000000000000000000000000000000000000000000000000000000000000001",
          "blockHash": "0x433c3513376be7f13a62037b92adfdebe7e6237b0badf1d01a7673aba9d2eebd",
          "blockNumber": "0x42d35b",
          "transactionHash": "0x0d8909eb8fccda0e02fd09cef19237367d2b54fcf15f69a5b2efbd41f8f61bca",
          "transactionIndex": "0x0",
          "logIndex": "0x0",
          "removed": false
        }
      ],
      "logsBloom": "0x02000000000000000000000000000000000000000000000000000000000000000000000000000000000000000000000000000000000000000000000000000000000000000000000000000000000000000000000000000000040000000000000800000000000000000000000000000000010000000000000000000000000000000000000000100000000000000000000000000000000000000000000000000000000000000000000000000000000000000000000000000000000000000000000000000000000000000000000000000000000000000000000000400000000000000000000000000000000000000000000000000000040802000000000000000000",
      "type": "0x0",
      "transactionHash": "0x0d8909eb8fccda0e02fd09cef19237367d2b54fcf15f69a5b2efbd41f8f61bca",
      "transactionIndex": "0x0",
      "blockHash": "0x433c3513376be7f13a62037b92adfdebe7e6237b0badf1d01a7673aba9d2eebd",
      "blockNumber": "0x42d35b",
      "gasUsed": "0x18678",
      "effectiveGasPrice": "0x454b7b38e70",
      "from": "0xd89421cd5dd6d6269fbb9307535c386afe11a23e",
      "to": "0x4fa6148c9dabc7a737422fb1b3ab9088c878d26c",
      "contractAddress": null,
      "r": "0x2559B2C6530EA9373B355E199C36488C5BB520C35AE0A16BC5B89EAA297C93C9",
      "root": "0x0000000000000000000000000000000000000000000000000000000000001010",
      "s": "0x758AFCC87053631004544CAE801D45C691085E7BD86D430F0D996D673A545AA0",
      "v": "0x10025"
    }
  ],
  "libraries": [],
  "pending": [],
  "returns": {},
  "timestamp": 1736805319,
  "chain": 32769,
  "commit": "011c1e0"
}