{
  "transactions": [
    {
      "hash": "0x1416d5b3386f4e8868b83ffd37b1b0cdcae60f4229fceabd3aa2c44d69f193ae",
      "transactionType": "CALL",
      "contractName": null,
      "contractAddress": "0x4fa6148c9dabc7a737422fb1b3ab9088c878d26c",
      "function": "registerToken(address,(address,address,uint256))",
      "arguments": [
        "0x8DEAdC20f7218994c86b59eE1D5c7979fFcAa893",
        "(0x80D55c03180349Fff4a229102F62328220A96444, 0x2EE8e8D7C113Bb7c180f4755f06ed50bE53BEDe5, 1)"
      ],
      "transaction": {
        "from": "0xd89421cd5dd6d6269fbb9307535c386afe11a23e",
        "to": "0x4fa6148c9dabc7a737422fb1b3ab9088c878d26c",
        "gas": "0xe070",
        "value": "0x0",
        "input": "0x8bc76f740000000000000000000000008deadc20f7218994c86b59ee1d5c7979ffcaa89300000000000000000000000080d55c03180349fff4a229102f62328220a964440000000000000000000000002ee8e8d7c113bb7c180f4755f06ed50be53bede50000000000000000000000000000000000000000000000000000000000000001",
        "nonce": "0x6f",
        "chainId": "0x8001"
      },
      "additionalContracts": [],
      "isFixedGasLimit": false
    }
  ],
  "receipts": [
    {
      "status": "0x1",
      "cumulativeGasUsed": "0x9d80",
      "logs": [
        {
          "address": "0x4fa6148c9dabc7a737422fb1b3ab9088c878d26c",
          "topics": [
            "0xacee94c8a79111860852775471f35a102ad3dc32ff2716802bd1000ceb51f5a8",
            "0x0000000000000000000000008deadc20f7218994c86b59ee1d5c7979ffcaa893"
          ],
          "data": "0x00000000000000000000000080d55c03180349fff4a229102f62328220a964440000000000000000000000002ee8e8d7c113bb7c180f4755f06ed50be53bede50000000000000000000000000000000000000000000000000000000000000001",
          "blockHash": "0x44e0166b42a865e10083846510cefbe88034553f99cdd9346dab52aa2024d31d",
          "blockNumber": "0x42d40a",
          "transactionHash": "0x1416d5b3386f4e8868b83ffd37b1b0cdcae60f4229fceabd3aa2c44d69f193ae",
          "transactionIndex": "0x0",
          "logIndex": "0x0",
          "removed": false
        }
      ],
      "logsBloom": "0x02000000000000000000000000000000000000000000000000000000000000000000000000000000000000000000000000000000000000000000000000000000000000000000000000000000000000000000000000000000040000000000000800000000000000000000000000000000010000000000000000000000000000000000000000100000000000000000000000000000000000000000000000000000000000000000000000000000000000000000000000000000000000000000000000000000000000000000000000000000000000000000000000400000000000000000000000000000000000000000000000000000040802000000000000000000",
      "type": "0x0",
      "transactionHash": "0x1416d5b3386f4e8868b83ffd37b1b0cdcae60f4229fceabd3aa2c44d69f193ae",
      "transactionIndex": "0x0",
      "blockHash": "0x44e0166b42a865e10083846510cefbe88034553f99cdd9346dab52aa2024d31d",
      "blockNumber": "0x42d40a",
      "gasUsed": "0x9d80",
      "effectiveGasPrice": "0x454b7b38e70",
      "from": "0xd89421cd5dd6d6269fbb9307535c386afe11a23e",
      "to": "0x4fa6148c9dabc7a737422fb1b3ab9088c878d26c",
      "contractAddress": null,
      "r": "0x709D736BB97CFFBAC6D198A825B13A1DC12ECE8D70CDF518A6654C4750103B32",
      "root": "0x0000000000000000000000000000000000000000000000000000000000001010",
      "s": "0x1FA71A152EDD4E8129C69DCBBC737714891B5BE3370A94D93327C78FF20A9297",
      "v": "0x10026"
    }
  ],
  "libraries": [],
  "pending": [],
  "returns": {},
  "timestamp": 1736811594,
  "chain": 32769,
  "commit": "011c1e0"
}