{
  "transactions": [
    {
      "hash": "0x54854b340b7397f096454a7c25cc651a6413e776f190775d6adb6d942539bb96",
      "transactionType": "CALL",
      "contractName": null,
      "contractAddress": "0x4fa6148c9dabc7a737422fb1b3ab9088c878d26c",
      "function": "registerToken(address,(address,address,uint256))",
      "arguments": [
        "0xea87bC6CcaE73bae35693639e22eF30667760F61",
        "(0x0000000000000000000000000000000000000000, 0x1202078D298Ff0358A95b6fbf48Ec166dB414660, 56)"
      ],
      "transaction": {
        "from": "0xd89421cd5dd6d6269fbb9307535c386afe11a23e",
        "to": "0x4fa6148c9dabc7a737422fb1b3ab9088c878d26c",
        "gas": "0x1b5e3",
        "value": "0x0",
        "input": "0x8bc76f74000000000000000000000000ea87bc6ccae73bae35693639e22ef30667760f6100000000000000000000000000000000000000000000000000000000000000000000000000000000000000001202078d298ff0358a95b6fbf48ec166db4146600000000000000000000000000000000000000000000000000000000000000038",
        "nonce": "0x4c",
        "chainId": "0x8001"
      },
      "additionalContracts": [],
      "isFixedGasLimit": false
    },
    {
      "hash": "0x145457a1d11c871e5371ff44be8317c0d46991846cf8cba4491760f9ea3522c2",
      "transactionType": "CALL",
      "contractName": null,
      "contractAddress": "0x4fa6148c9dabc7a737422fb1b3ab9088c878d26c",
      "function": "registerTokenWithScale(address,(address,address,uint256),int8)",
      "arguments": [
        "0x0000000000000000000000000000000000000000",
        "(0xb1E6F8820826491FCc5519f84fF4E2bdBb6e3Cad, 0x2EE8e8D7C113Bb7c180f4755f06ed50bE53BEDe5, 56)",
        "-6"
      ],
      "transaction": {
        "from": "0xd89421cd5dd6d6269fbb9307535c386afe11a23e",
        "to": "0x4fa6148c9dabc7a737422fb1b3ab9088c878d26c",
        "gas": "0x29c5f",
        "value": "0x0",
        "input": "0x126d5f2f0000000000000000000000000000000000000000000000000000000000000000000000000000000000000000b1e6f8820826491fcc5519f84ff4e2bdbb6e3cad0000000000000000000000002ee8e8d7c113bb7c180f4755f06ed50be53bede50000000000000000000000000000000000000000000000000000000000000038fffffffffffffffffffffffffffffffffffffffffffffffffffffffffffffffa",
        "nonce": "0x4d",
        "chainId": "0x8001"
      },
      "additionalContracts": [],
      "isFixedGasLimit": false
    }
  ],
  "receipts": [
    {
      "status": "0x1",
      "cumulativeGasUsed": "0x137b8",
      "logs": [
        {
          "address": "0x4fa6148c9dabc7a737422fb1b3ab9088c878d26c",
          "topics": [
            "0xacee94c8a79111860852775471f35a102ad3dc32ff2716802bd1000ceb51f5a8",
            "0x000000000000000000000000ea87bc6ccae73bae35693639e22ef30667760f61"
          ],
          "data": "0x00000000000000000000000000000000000000000000000000000000000000000000000000000000000000001202078d298ff0358a95b6fbf48ec166db4146600000000000000000000000000000000000000000000000000000000000000038",
          "blockHash": "0xd0a414db614f9f543ac35dcf34af4bd3a135b5e1347ca50c46253d7a2135d930",
          "blockNumber": "0x42d083",
          "transactionHash": "0x54854b340b7397f096454a7c25cc651a6413e776f190775d6adb6d942539bb96",
          "transactionIndex": "0x1",
          "logIndex": "0x25",
          "removed": false
        }
      ],
      "logsBloom": "0x00000000000000000000000000000000000000000000000000000000000800000000000000000000000000000000000000000000000000000000000000000000000000000000000000000000000000000000000000000000000000000000000800000000000000000000000000000000010000000000000000000000000000000000000000100000000000000000000000000000000000800000000000000000000000040000000000000000000000000000000000000000000000000000000000000000000000000000000000000000000000000000000000400000000000000000000000000000000000000000000000000000040800000000000000000000",
      "type": "0x0",
      "transactionHash": "0x54854b340b7397f096454a7c25cc651a6413e776f190775d6adb6d942539bb96",
      "transactionIndex": "0x1",
      "blockHash": "0xd0a414db614f9f543ac35dcf34af4bd3a135b5e1347ca50c46253d7a2135d930",
      "blockNumber": "0x42d083",
      "gasUsed": "0x137b8",
      "effectiveGasPrice": "0x454b7b38e70",
      "from": "0xd89421cd5dd6d6269fbb9307535c386afe11a23e",
      "to": "0x4fa6148c9dabc7a737422fb1b3ab9088c878d26c",
      "contractAddress": null,
      "r": "0xDE78F92F8B7344CBDC2939B70F7047EA275F32158F24E8C3FD38C45B212F44A5",
      "root": "0x0000000000000000000000000000000000000000000000000000000000001010",
      "s": "0x7CFD0018ABCA08F383781DD1B7FE352E08E1F33DBBF32243BBAAB9D265A87B19",
      "v": "0x10026"
    },
    {
      "status": "0x1",
      "cumulativeGasUsed": "0x1dd6c",
      "logs": [
        {
          "address": "0x4fa6148c9dabc7a737422fb1b3ab9088c878d26c",
          "topics": [
            "0xacee94c8a79111860852775471f35a102ad3dc32ff2716802bd1000ceb51f5a8",
            "0x0000000000000000000000000000000000000000000000000000000000000000"
          ],
          "data": "0x000000000000000000000000b1e6f8820826491fcc5519f84ff4e2bdbb6e3cad0000000000000000000000002ee8e8d7c113bb7c180f4755f06ed50be53bede50000000000000000000000000000000000000000000000000000000000000038",
          "blockHash": "0xca1148c2c3b095f0eb6687e4ee141c692c481348c5a05825d9a5e4ae1aacee69",
          "blockNumber": "0x42d084",
          "transactionHash": "0x145457a1d11c871e5371ff44be8317c0d46991846cf8cba4491760f9ea3522c2",
          "transactionIndex": "0x0",
          "logIndex": "0x0",
          "removed": false
        },
        {
          "address": "0x4fa6148c9dabc7a737422fb1b3ab9088c878d26c",
          "topics": [
            "0xa133e3c36769b3c9a2109eba45aba2da2ad0ccab8c9c6cc6c244892ba14d0f70",
            "0x0000000000000000000000000000000000000000000000000000000000000000"
          ],
          "data": "0x000000000000000000000000b1e6f8820826491fcc5519f84ff4e2bdbb6e3cad0000000000000000000000002ee8e8d7c113bb7c180f4755f06ed50be53bede50000000000000000000000000000000000000000000000000000000000000038fffffffffffffffffffffffffffffffffffffffffffffffffffffffffffffffa",
          "blockHash": "0xca1148c2c3b095f0eb6687e4ee141c692c481348c5a05825d9a5e4ae1aacee69",
          "blockNumber": "0x42d084",
          "transactionHash": "0x145457a1d11c871e5371ff44be8317c0d46991846cf8cba4491760f9ea3522c2",
          "transactionIndex": "0x0",
          "logIndex": "0x1",
          "removed": false
        }
      ],
      "logsBloom": "0x00000000000000000000000000000000000000000000000000000040000000000000000000000000000000000000000000000000000000000000000000000000000000000000000000000000000000000000000000000000000000000000000800000000020000000000000000000800010000000000000000000000000000000000000000100000000000000000000000000000040000000000000000000000000000000000000000000000000000000000000000000001000000000000000000000000000000000000000000000000000000000000000000400000000020000000000000000000000000000000000000000000040800000000000000000000",
      "type": "0x0",
      "transactionHash": "0x145457a1d11c871e5371ff44be8317c0d46991846cf8cba4491760f9ea3522c2",
      "transactionIndex": "0x0",
      "blockHash": "0xca1148c2c3b095f0eb6687e4ee141c692c481348c5a05825d9a5e4ae1aacee69",
      "blockNumber": "0x42d084",
      "gasUsed": "0x1dd6c",
      "effectiveGasPrice": "0x454b7b38e70",
      "from": "0xd89421cd5dd6d6269fbb9307535c386afe11a23e",
      "to": "0x4fa6148c9dabc7a737422fb1b3ab9088c878d26c",
      "contractAddress": null,
      "r": "0x2A8D022B36EE929110417937863F1CFB1CCF40E2D81BEBC8F1964D563A16D566",
      "root": "0x0000000000000000000000000000000000000000000000000000000000001010",
      "s": "0x008885BF975CB0391973D2660EC34990B21B7AD726511B0EBB65B731889B7E8C",
      "v": "0x10025"
    }
  ],
  "libraries": [],
  "pending": [],
  "returns": {},
  "timestamp": 1736779674,
  "chain": 32769,
  "commit": "dfd993a"
}