{
  "transactions": [
    {
      "hash": "0x80b30327bc3e9f8c0d1ebff98382bd4b9c1826a7663c6adeb2eb2713ae234465",
      "transactionType": "CALL",
      "contractName": null,
      "contractAddress": "0x36b8a9cd6bf9bfa5984093005cf81cafb1bf06f7",
      "function": "registerTokenWithScale(address,(address,address,uint256),int8)",
      "arguments": [
        "0xBA97f1F72b217BdC5684Ec175bE5615C0E50aBda",
        "(0xd6B5231DC7A5c37461A21A8eB42610e09113aD1a, 0x41823941D00f47Ea1a98D75586915BF828F4a038, 33101)",
        "10"
      ],
      "transaction": {
        "from": "0xb494d016f2cf329224e2db445aa748cf96c18c29",
        "to": "0x36b8a9cd6bf9bfa5984093005cf81cafb1bf06f7",
        "gas": "0xfd59",
        "value": "0x0",
        "input": "0x126d5f2f000000000000000000000000ba97f1f72b217bdc5684ec175be5615c0e50abda000000000000000000000000d6b5231dc7a5c37461a21a8eb42610e09113ad1a00000000000000000000000041823941d00f47ea1a98d75586915bf828f4a038000000000000000000000000000000000000000000000000000000000000814d000000000000000000000000000000000000000000000000000000000000000a",
        "nonce": "0x202",
        "chainId": "0x61"
      },
      "additionalContracts": [],
      "isFixedGasLimit": false
    }
  ],
  "receipts": [
    {
      "status": "0x1",
      "cumulativeGasUsed": "0xd59b5",
      "logs": [
        {
          "address": "0x36b8a9cd6bf9bfa5984093005cf81cafb1bf06f7",
          "topics": [
            "0xacee94c8a79111860852775471f35a102ad3dc32ff2716802bd1000ceb51f5a8",
            "0x000000000000000000000000ba97f1f72b217bdc5684ec175be5615c0e50abda"
          ],
          "data": "0x000000000000000000000000d6b5231dc7a5c37461a21a8eb42610e09113ad1a00000000000000000000000041823941d00f47ea1a98d75586915bf828f4a038000000000000000000000000000000000000000000000000000000000000814d",
          "blockHash": "0xe4394ff9e6c8e277f18c7070e9010fa70aa8acde776f53177e5edb9d7d796082",
          "blockNumber": "0x2d07194",
          "transactionHash": "0x80b30327bc3e9f8c0d1ebff98382bd4b9c1826a7663c6adeb2eb2713ae234465",
          "transactionIndex": "0x9",
          "logIndex": "0xa",
          "removed": false
        },
        {
          "address": "0x36b8a9cd6bf9bfa5984093005cf81cafb1bf06f7",
          "topics": [
            "0xa133e3c36769b3c9a2109eba45aba2da2ad0ccab8c9c6cc6c244892ba14d0f70",
            "0x000000000000000000000000ba97f1f72b217bdc5684ec175be5615c0e50abda"
          ],
          "data": "0x000000000000000000000000d6b5231dc7a5c37461a21a8eb42610e09113ad1a00000000000000000000000041823941d00f47ea1a98d75586915bf828f4a038000000000000000000000000000000000000000000000000000000000000814d000000000000000000000000000000000000000000000000000000000000000a",
          "blockHash": "0xe4394ff9e6c8e277f18c7070e9010fa70aa8acde776f53177e5edb9d7d796082",
          "blockNumber": "0x2d07194",
          "transactionHash": "0x80b30327bc3e9f8c0d1ebff98382bd4b9c1826a7663c6adeb2eb2713ae234465",
          "transactionIndex": "0x9",
          "logIndex": "0xb",
          "removed": false
        }
      ],
      "logsBloom": "0x00000000000000000000000000000000040800000000000800000040000000000000000000000000000000000000000000000000000000000000000000000000000000000000000000000000000000000000000000000000000004000000000000000000000000000000000000000000010000000000000000000000000000000000000000100000000000000000000000010000040000000000000000000000000000000000000000000000000000000000080000000001000000000000000000000000000000000000000000000000000000000000000000000000000000000000000000000000000000000000000000000000000800000000000000000000",
      "type": "0x0",
      "transactionHash": "0x80b30327bc3e9f8c0d1ebff98382bd4b9c1826a7663c6adeb2eb2713ae234465",
      "transactionIndex": "0x9",
      "blockHash": "0xe4394ff9e6c8e277f18c7070e9010fa70aa8acde776f53177e5edb9d7d796082",
      "blockNumber": "0x2d07194",
      "gasUsed": "0xb76c",
      "effectiveGasPrice": "0x3b9aca00",
      "from": "0xb494d016f2cf329224e2db445aa748cf96c18c29",
      "to": "0x36b8a9cd6bf9bfa5984093005cf81cafb1bf06f7",
      "contractAddress": null
    }
  ],
  "libraries": [],
  "pending": [],
  "returns": {},
  "timestamp": 1736366571,
  "chain": 97,
  "commit": "599477f"
}