{
  "transactions": [
    {
      "hash": "0xb224971640c3d7f486178f9811127535eb7f47e2883909a8a9ea954ddc219f09",
      "transactionType": "CALL",
      "contractName": null,
      "contractAddress": "0x36b8a9cd6bf9bfa5984093005cf81cafb1bf06f7",
      "function": "registerTokenWithScale(address,(address,address,uint256),int8)",
      "arguments": [
        "0xBA97f1F72b217BdC5684Ec175bE5615C0E50aBda",
        "(0x0b70FE0B5fE14089353aE1dD9610E445CE889E2e, 0x41823941D00f47Ea1a98D75586915BF828F4a038, 33101)",
        "10"
      ],
      "transaction": {
        "from": "0xb494d016f2cf329224e2db445aa748cf96c18c29",
        "to": "0x36b8a9cd6bf9bfa5984093005cf81cafb1bf06f7",
        "gas": "0x29bb9",
        "value": "0x0",
        "input": "0x126d5f2f000000000000000000000000ba97f1f72b217bdc5684ec175be5615c0e50abda0000000000000000000000000b70fe0b5fe14089353ae1dd9610e445ce889e2e00000000000000000000000041823941d00f47ea1a98d75586915bf828f4a038000000000000000000000000000000000000000000000000000000000000814d000000000000000000000000000000000000000000000000000000000000000a",
        "nonce": "0x201",
        "chainId": "0x61"
      },
      "additionalContracts": [],
      "isFixedGasLimit": false
    }
  ],
  "receipts": [
    {
      "status": "0x1",
      "cumulativeGasUsed": "0x58e26",
      "logs": [
        {
          "address": "0x36b8a9cd6bf9bfa5984093005cf81cafb1bf06f7",
          "topics": [
            "0xacee94c8a79111860852775471f35a102ad3dc32ff2716802bd1000ceb51f5a8",
            "0x000000000000000000000000ba97f1f72b217bdc5684ec175be5615c0e50abda"
          ],
          "data": "0x0000000000000000000000000b70fe0b5fe14089353ae1dd9610e445ce889e2e00000000000000000000000041823941d00f47ea1a98d75586915bf828f4a038000000000000000000000000000000000000000000000000000000000000814d",
          "blockHash": "0xe91f89ebfa298d16adae9b69090b2fbb02c66612193ccef86a30a5ed44586e68",
          "blockNumber": "0x2d06c09",
          "transactionHash": "0xb224971640c3d7f486178f9811127535eb7f47e2883909a8a9ea954ddc219f09",
          "transactionIndex": "0x6",
          "logIndex": "0x4",
          "removed": false
        },
        {
          "address": "0x36b8a9cd6bf9bfa5984093005cf81cafb1bf06f7",
          "topics": [
            "0xa133e3c36769b3c9a2109eba45aba2da2ad0ccab8c9c6cc6c244892ba14d0f70",
            "0x000000000000000000000000ba97f1f72b217bdc5684ec175be5615c0e50abda"
          ],
          "data": "0x0000000000000000000000000b70fe0b5fe14089353ae1dd9610e445ce889e2e00000000000000000000000041823941d00f47ea1a98d75586915bf828f4a038000000000000000000000000000000000000000000000000000000000000814d000000000000000000000000000000000000000000000000000000000000000a",
          "blockHash": "0xe91f89ebfa298d16adae9b69090b2fbb02c66612193ccef86a30a5ed44586e68",
          "blockNumber": "0x2d06c09",
          "transactionHash": "0xb224971640c3d7f486178f9811127535eb7f47e2883909a8a9ea954ddc219f09",
          "transactionIndex": "0x6",
          "logIndex": "0x5",
          "removed": false
        }
      ],
      "logsBloom": "0x00000000000000000000000000000000040800000000000800000040000000000000000000000000000000000000000000000000000000000000000000000000000000000000000000000000000000000000000000000000000004000000000000000000000000000000000000000000010000000000000000000000000000000000000000100000000000000000000000010000040000000000000000000000000000000000000000000000000000000000080000000001000000000000000000000000000000000000000000000000000000000000000000000000000000000000000000000000000000000000000000000000000800000000000000000000",
      "type": "0x0",
      "transactionHash": "0xb224971640c3d7f486178f9811127535eb7f47e2883909a8a9ea954ddc219f09",
      "transactionIndex": "0x6",
      "blockHash": "0xe91f89ebfa298d16adae9b69090b2fbb02c66612193ccef86a30a5ed44586e68",
      "blockNumber": "0x2d06c09",
      "gasUsed": "0x1e36c",
      "effectiveGasPrice": "0x3b9aca00",
      "from": "0xb494d016f2cf329224e2db445aa748cf96c18c29",
      "to": "0x36b8a9cd6bf9bfa5984093005cf81cafb1bf06f7",
      "contractAddress": null
    }
  ],
  "libraries": [],
  "pending": [],
  "returns": {},
  "timestamp": 1736362313,
  "chain": 97,
  "commit": "599477f"
}