{
  "transactions": [
    {
      "hash": "0xa0e200ac923e3456ea5e830ca8a69ca704f96aca11fe6f85bbbd9a8608551eea",
      "transactionType": "CALL",
      "contractName": null,
      "contractAddress": "0x41823941d00f47ea1a98d75586915bf828f4a038",
      "function": "registerToken(address,(address,address,uint256))",
      "arguments": [
        "0xd3750B930ED52C26584C18B4f5eeAb986D7f3b36",
        "(0x9DFe189ed442cCfB6c929d1b1a25e4c13354C27e, 0x236D120c50b9498422842E6D7DF0A9D6040507aa, 1789)"
      ],
      "transaction": {
        "from": "0xb494d016f2cf329224e2db445aa748cf96c18c29",
        "to": "0x41823941d00f47ea1a98d75586915bf828f4a038",
        "gas": "0x2229d",
        "value": "0x0",
        "input": "0x8bc76f74000000000000000000000000d3750b930ed52c26584c18b4f5eeab986d7f3b360000000000000000000000009dfe189ed442ccfb6c929d1b1a25e4c13354c27e000000000000000000000000236d120c50b9498422842e6d7df0a9d6040507aa00000000000000000000000000000000000000000000000000000000000006fd",
        "nonce": "0x205",
        "chainId": "0x814d"
      },
      "additionalContracts": [],
      "isFixedGasLimit": false
    }
  ],
  "receipts": [
    {
      "status": "0x1",
      "cumulativeGasUsed": "0x18678",
      "logs": [
        {
          "address": "0x41823941d00f47ea1a98d75586915bf828f4a038",
          "topics": [
            "0xacee94c8a79111860852775471f35a102ad3dc32ff2716802bd1000ceb51f5a8",
            "0x000000000000000000000000d3750b930ed52c26584c18b4f5eeab986d7f3b36"
          ],
          "data": "0x0000000000000000000000009dfe189ed442ccfb6c929d1b1a25e4c13354c27e000000000000000000000000236d120c50b9498422842e6d7df0a9d6040507aa00000000000000000000000000000000000000000000000000000000000006fd",
          "blockHash": "0xeadf236c1d8fd49440c0d0025af7425aa7628d3a5a05a64ebd7c9be755476b4d",
          "blockNumber": "0x74c1da",
          "transactionHash": "0xa0e200ac923e3456ea5e830ca8a69ca704f96aca11fe6f85bbbd9a8608551eea",
          "transactionIndex": "0x0",
          "logIndex": "0x0",
          "removed": false
        }
      ],
      "logsBloom": "0x00000000000000000000000800000000000000000000000000000000000000000000000000000000000000000000002000000000000000000000000000000000000000000000000000000010000000000000000000000000000000000800000000000000000000000000000000000000010000000000000000000000000000000000000000100000000000000000000000000000000000000000000000000000000000000000000000000000000000000000000000000000000000000000000000000000000000000000000000000008000800000000000000000000000000000000000000000000000000000000000000000000000800000000000000000000",
      "type": "0x0",
      "transactionHash": "0xa0e200ac923e3456ea5e830ca8a69ca704f96aca11fe6f85bbbd9a8608551eea",
      "transactionIndex": "0x0",
      "blockHash": "0xeadf236c1d8fd49440c0d0025af7425aa7628d3a5a05a64ebd7c9be755476b4d",
      "blockNumber": "0x74c1da",
      "gasUsed": "0x18678",
      "effectiveGasPrice": "0x454b7b38e70",
      "from": "0xb494d016f2cf329224e2db445aa748cf96c18c29",
      "to": "0x41823941d00f47ea1a98d75586915bf828f4a038",
      "contractAddress": null,
      "r": "0xE9E60CC12816842753FDCB61337E9BD14540410DFC35228768EE19320ABA3AFD",
      "root": "0x0000000000000000000000000000000000000000000000000000000000001010",
      "s": "0x028716AC167605D2A9B82B23397968E7DD2FF21226CA689A938ADC8F54777CB4",
      "v": "0x102be"
    }
  ],
  "libraries": [],
  "pending": [],
  "returns": {},
  "timestamp": 1737488705,
  "chain": 33101,
  "commit": "b05cfaa"
}