{
  "transactions": [
    {
      "hash": "0x4c65aa3466f44c50c5a219ae18498d246892ccbe1a80bc33eb8ead3549ed2acb",
      "transactionType": "CALL",
      "contractName": null,
      "contractAddress": "0x41823941d00f47ea1a98d75586915bf828f4a038",
      "function": "registerToken(address,(address,address,uint256))",
      "arguments": [
        "0xd3750B930ED52C26584C18B4f5eeAb986D7f3b36",
        "(0x9DFe189ed442cCfB6c929d1b1a25e4c13354C27e, 0x236D120c50b9498422842E6D7DF0A9D6040507aa, 84532)"
      ],
      "transaction": {
        "from": "0xb494d016f2cf329224e2db445aa748cf96c18c29",
        "to": "0x41823941d00f47ea1a98d75586915bf828f4a038",
        "gas": "0x242d7",
        "value": "0x0",
        "input": "0x8bc76f74000000000000000000000000d3750b930ed52c26584c18b4f5eeab986d7f3b360000000000000000000000009dfe189ed442ccfb6c929d1b1a25e4c13354c27e000000000000000000000000236d120c50b9498422842e6d7df0a9d6040507aa0000000000000000000000000000000000000000000000000000000000014a34",
        "nonce": "0x209",
        "chainId": "0x814d"
      },
      "additionalContracts": [],
      "isFixedGasLimit": false
    }
  ],
  "receipts": [
    {
      "status": "0x1",
      "cumulativeGasUsed": "0x18678",
      "logs": [
        {
          "address": "0x41823941d00f47ea1a98d75586915bf828f4a038",
          "topics": [
            "0xacee94c8a79111860852775471f35a102ad3dc32ff2716802bd1000ceb51f5a8",
            "0x000000000000000000000000d3750b930ed52c26584c18b4f5eeab986d7f3b36"
          ],
          "data": "0x0000000000000000000000009dfe189ed442ccfb6c929d1b1a25e4c13354c27e000000000000000000000000236d120c50b9498422842e6d7df0a9d6040507aa0000000000000000000000000000000000000000000000000000000000014a34",
          "blockHash": "0x1c22458ff6a7e1cc5ffb4c613bae3ca662f2df3491742a5f7b29daca8bfc6d25",
          "blockNumber": "0x74d4cf",
          "transactionHash": "0x4c65aa3466f44c50c5a219ae18498d246892ccbe1a80bc33eb8ead3549ed2acb",
          "transactionIndex": "0x0",
          "logIndex": "0x0",
          "removed": false
        }
      ],
      "logsBloom": "0x00000000000000000000000800000000000000000000000000000000000000000000000000000000000000000000002000000000000000000000000000000000000000000000000000000010000000000000000000000000000000000800000000000000000000000000000000000000010000000000000000000000000000000000000000100000000000000000000000000000000000000000000000000000000000000000000000000000000000000000000000000000000000000000000000000000000000000000000000000008000800000000000000000000000000000000000000000000000000000000000000000000000800000000000000000000",
      "type": "0x0",
      "transactionHash": "0x4c65aa3466f44c50c5a219ae18498d246892ccbe1a80bc33eb8ead3549ed2acb",
      "transactionIndex": "0x0",
      "blockHash": "0x1c22458ff6a7e1cc5ffb4c613bae3ca662f2df3491742a5f7b29daca8bfc6d25",
      "blockNumber": "0x74d4cf",
      "gasUsed": "0x18678",
      "effectiveGasPrice": "0x454b7b38e70",
      "from": "0xb494d016f2cf329224e2db445aa748cf96c18c29",
      "to": "0x41823941d00f47ea1a98d75586915bf828f4a038",
      "contractAddress": null,
      "r": "0xC6DECE2E42946989F7424DB52C1D56C3D91FBD256FA1CD49911DFF6659FF55CC",
      "root": "0x0000000000000000000000000000000000000000000000000000000000001010",
      "s": "0x79BD21232FCD80FB6685C371B3E94D61EC6DEC5FA2AD2CD8C7C5D3A3C6A78240",
      "v": "0x102bd"
    }
  ],
  "libraries": [],
  "pending": [],
  "returns": {},
  "timestamp": 1737631528,
  "chain": 33101,
  "commit": "b05cfaa"
}