{
  "transactions": [
    {
      "hash": "0xcc0647b6d7fb92c491e6279ba227a164fe99c6d1de68b3f84d87c42ef25fa245",
      "transactionType": "CREATE",
      "contractName": "LockProxyProxy",
      "contractAddress": "0xcbe7630872d225a5ba6a32b59cab8da3713806b0",
      "function": null,
      "arguments": [
        "[0xa1a47FA4D26137329BB08aC2E5F9a6C32D180fE3, 0x201eDd0521cF4B577399F789e22E05405D500163, 0xfA3cF3BBa7f0fA1E8FECeE532512434A7d275d41]",
        "0xb494D016F2CF329224e2dB445aA748Cf96C18C29",
        "0x5B51e17837fc8F01b3C3ef29E882981e9414C159"
      ],
      "transaction": {
        "from": "0xb494d016f2cf329224e2db445aa748cf96c18c29",
        "gas": "0xb74fb",
        "value": "0x0",
        "input": "0x604060808152346101a15761092a8038038061001a816101bc565b92833981016060828203126101a15781516001600160401b0391908281116101a157830181601f820112156101a15780519283116101a65760059183831b60209283806100688185016101bc565b8098815201928201019283116101a15783809101915b83831061018957506100a092508791506100999087016101e1565b95016101e1565b6001600160a01b0394909390851692831561017157908596959160018060a01b0319600198899782895416895560009782895482868216178b55167f8be0079c531659141344cd1fd0a4f28419497f9722a3daafe3b4186f6b6457e08a80a31690600254161760025584975b61011f575b865161073490816101f68239f35b815188101561016c5787811b82018401518316855260038452868520805460ff191687179055600019881461015857968501968561010c565b634e487b7160e01b85526011600452602485fd5b610111565b8651631e4fbdf760e01b815260006004820152602490fd5b8190610194846101e1565b815201910190839061007e565b600080fd5b634e487b7160e01b600052604160045260246000fd5b6040519190601f01601f191682016001600160401b038111838210176101a657604052565b51906001600160a01b03821682036101a15756fe60806040908082526004918236101561001757600080fd5b600092833560e01c928363086404761461038f57508263715018a61461032a578263747293fb146102f757826379ba5097146102715782638da5cb5b146102495782639d4dc02114610220578263e30c3978146101f3578263ec8f83bd1461013b5750508063eef21cd2146101045763f2fde38b1461009557600080fd5b34610101576020366003190112610101576100ae6104c6565b6100b6610519565b600180546001600160a01b0319166001600160a01b0392831690811790915582549091167f38d16b8cac22d99fc7c124b9cd0de2d3fa1faef420bfe791d8c362d765e227008380a380f35b80fd5b5034610101576020366003190112610101576101376101216104c6565b610129610519565b6001600160a01b0316610614565b5080f35b83346101015780600319360112610101579190815192838254808652602080960190819484527f8a35acfbc15ff81a39ae7d344fd709f28e8600b4aa8c65c6b64bfe7fe36bd19b90845b8181106101df575050508161019b9103826104e1565b83519485948186019282875251809352850193925b8281106101bf57505050500390f35b83516001600160a01b0316855286955093810193928101926001016101b0565b825484529288019260019283019201610185565b83823461021c578160031936011261021c5760015490516001600160a01b039091168152602090f35b5080fd5b83823461021c578160031936011261021c5760025490516001600160a01b039091168152602090f35b83823461021c578160031936011261021c57905490516001600160a01b039091168152602090f35b9150346102f357826003193601126102f357600154916001600160a01b039133838516036102dc5750506001600160a01b031991821660015582543392811683178455167f8be0079c531659141344cd1fd0a4f28419497f9722a3daafe3b4186f6b6457e08380a380f35b60249250519063118cdaa760e01b82523390820152fd5b8280fd5b8334610101576020366003190112610101576101376103146104c6565b61031c610519565b6001600160a01b0316610592565b8334610101578060031936011261010157610343610519565b600180546001600160a01b03199081169091558154908116825581906001600160a01b03167f8be0079c531659141344cd1fd0a4f28419497f9722a3daafe3b4186f6b6457e08280a380f35b918434610101576060366003190112610101576103aa6104c6565b6001600160a01b0390602435828116908190036104c2573384526020966005885285852054156104ae57508084526003875260ff85852054161561047a57829184606492899560025416908851998a968795630432023b60e11b87521690850152602484015260443560448401525af192831561046e578193610432575b5050519015158152f35b909192508381813d8311610467575b61044b81836104e1565b8101031261021c57519081151582036101015750908380610428565b503d610441565b509051903d90823e3d90fd5b845162461bcd60e51b8152808701889052600e60248201526d084c2c840c2e6e6cae840d0c2e6d60931b6044820152606490fd5b63d86ad9cf60e01b81523387820152602490fd5b8380fd5b600435906001600160a01b03821682036104dc57565b600080fd5b90601f8019910116810190811067ffffffffffffffff82111761050357604052565b634e487b7160e01b600052604160045260246000fd5b6000546001600160a01b0316330361052d57565b60405163118cdaa760e01b8152336004820152602490fd5b60045481101561057c5760046000527f8a35acfbc15ff81a39ae7d344fd709f28e8600b4aa8c65c6b64bfe7fe36bd19b0190600090565b634e487b7160e01b600052603260045260246000fd5b60008181526005602052604081205461060f57600454680100000000000000008110156105fb5790826105e76105d084600160409601600455610545565b819391549060031b91821b91600019901b19161790565b905560045492815260056020522055600190565b634e487b7160e01b82526041600452602482fd5b905090565b60008181526005602052604081205490919080156106f957600019908082018181116106e557600454908382019182116106d15781810361069d575b50505060045480156106895781019061066882610545565b909182549160031b1b19169055600455815260056020526040812055600190565b634e487b7160e01b84526031600452602484fd5b6106bb6106ac6105d093610545565b90549060031b1c928392610545565b9055845260056020526040842055388080610650565b634e487b7160e01b86526011600452602486fd5b634e487b7160e01b85526011600452602485fd5b50509056fea26469706673582212207fc9baa77324df6d94a9a698a45cb67a5d98e065a683c396c2501f4e124b636764736f6c634300081400330000000000000000000000000000000000000000000000000000000000000060000000000000000000000000b494d016f2cf329224e2db445aa748cf96c18c290000000000000000000000005b51e17837fc8f01b3c3ef29e882981e9414c1590000000000000000000000000000000000000000000000000000000000000003000000000000000000000000a1a47fa4d26137329bb08ac2e5f9a6c32d180fe3000000000000000000000000201edd0521cf4b577399f789e22e05405d500163000000000000000000000000fa3cf3bba7f0fa1e8fecee532512434a7d275d41",
        "nonce": "0x1f9",
        "chainId": "0x61"
      },
      "additionalContracts": [],
      "isFixedGasLimit": false
    },
    {
      "hash": "0x76f3e70386d3d2093508291974ac5697a149c10aa1102ca471b4d61fa15258fe",
      "transactionType": "CALL",
      "contractName": "LockProxyProxy",
      "contractAddress": "0xcbe7630872d225a5ba6a32b59cab8da3713806b0",
      "function": "addCaller(address)",
      "arguments": [
        "0x36b8A9cd6Bf9bfA5984093005cf81CAfB1Bf06F7"
      ],
      "transaction": {
        "from": "0xb494d016f2cf329224e2db445aa748cf96c18c29",
        "to": "0xcbe7630872d225a5ba6a32b59cab8da3713806b0",
        "gas": "0x1e99b",
        "value": "0x0",
        "input": "0x747293fb00000000000000000000000036b8a9cd6bf9bfa5984093005cf81cafb1bf06f7",
        "nonce": "0x1fa",
        "chainId": "0x61"
      },
      "additionalContracts": [],
      "isFixedGasLimit": false
    },
    {
      "hash": "0xc5e29bc8294181e6236d474d9d331d972ce532e5a3e505e0b8118305750fa345",
      "transactionType": "CALL",
      "contractName": null,
      "contractAddress": "0x36b8a9cd6bf9bfa5984093005cf81cafb1bf06f7",
      "function": "setLockProxyData(address,address)",
      "arguments": [
        "0x5B51e17837fc8F01b3C3ef29E882981e9414C159",
        "0xCbE7630872D225a5BA6A32B59CaB8da3713806b0"
      ],
      "transaction": {
        "from": "0xb494d016f2cf329224e2db445aa748cf96c18c29",
        "to": "0x36b8a9cd6bf9bfa5984093005cf81cafb1bf06f7",
        "gas": "0xd029",
        "value": "0x0",
        "input": "0x766a1b7b0000000000000000000000005b51e17837fc8f01b3c3ef29e882981e9414c159000000000000000000000000cbe7630872d225a5ba6a32b59cab8da3713806b0",
        "nonce": "0x1fb",
        "chainId": "0x61"
      },
      "additionalContracts": [],
      "isFixedGasLimit": false
    },
    {
      "hash": "0xa976d2bdb77ec6915a8405a12b05059797c2422dc5a94cafbb9801275fa2ba8b",
      "transactionType": "CALL",
      "contractName": null,
      "contractAddress": "0x32ffa2c4c670a0fd0e94cf6457ac2fa7ef007d55",
      "function": "forciblyAddExtension(address,address,uint64)",
      "arguments": [
        "0x5B51e17837fc8F01b3C3ef29E882981e9414C159",
        "0xCbE7630872D225a5BA6A32B59CaB8da3713806b0",
        "18"
      ],
      "transaction": {
        "from": "0x29543acb166b6044b67979b858e743701c9bd1df",
        "to": "0x32ffa2c4c670a0fd0e94cf6457ac2fa7ef007d55",
        "gas": "0x1570d",
        "value": "0x0",
        "input": "0x6691be150000000000000000000000005b51e17837fc8f01b3c3ef29e882981e9414c159000000000000000000000000cbe7630872d225a5ba6a32b59cab8da3713806b00000000000000000000000000000000000000000000000000000000000000012",
        "nonce": "0x3c",
        "chainId": "0x61"
      },
      "additionalContracts": [],
      "isFixedGasLimit": false
    }
  ],
  "receipts": [
    {
      "status": "0x1",
      "cumulativeGasUsed": "0x1b130d",
      "logs": [
        {
          "address": "0xcbe7630872d225a5ba6a32b59cab8da3713806b0",
          "topics": [
            "0x8be0079c531659141344cd1fd0a4f28419497f9722a3daafe3b4186f6b6457e0",
            "0x0000000000000000000000000000000000000000000000000000000000000000",
            "0x000000000000000000000000b494d016f2cf329224e2db445aa748cf96c18c29"
          ],
          "data": "0x",
          "blockHash": "0x487b065ea68f65eff4eb4d124f688d344e90d6f649e76396782dcce4b0e28f9b",
          "blockNumber": "0x2d0625a",
          "transactionHash": "0xcc0647b6d7fb92c491e6279ba227a164fe99c6d1de68b3f84d87c42ef25fa245",
          "transactionIndex": "0xd",
          "logIndex": "0xc",
          "removed": false
        }
      ],
      "logsBloom": "0x00000000000000000000000000000000000002000000000100800000000000000010000000000000000000000000000000000000000000000000000000000000000000000000000000000000000000000001000000000000000000000000000000000000020000000000000000000800000000000000000000000000000000400000080000000000000000000000000000000000800000000000000000000000000000000000000000000000000000000000000000000000000000000000000000000000000000000000000000000000000000000000000800000000000020000000000000000000000000000000000000000000000000000000000000000000",
      "type": "0x0",
      "transactionHash": "0xcc0647b6d7fb92c491e6279ba227a164fe99c6d1de68b3f84d87c42ef25fa245",
      "transactionIndex": "0xd",
      "blockHash": "0x487b065ea68f65eff4eb4d124f688d344e90d6f649e76396782dcce4b0e28f9b",
      "blockNumber": "0x2d0625a",
      "gasUsed": "0x8d0c6",
      "effectiveGasPrice": "0x3b9aca00",
      "from": "0xb494d016f2cf329224e2db445aa748cf96c18c29",
      "to": null,
      "contractAddress": "0xcbe7630872d225a5ba6a32b59cab8da3713806b0"
    },
    {
      "status": "0x1",
      "cumulativeGasUsed": "0x6000e",
      "logs": [],
      "logsBloom": "0x00000000000000000000000000000000000000000000000000000000000000000000000000000000000000000000000000000000000000000000000000000000000000000000000000000000000000000000000000000000000000000000000000000000000000000000000000000000000000000000000000000000000000000000000000000000000000000000000000000000000000000000000000000000000000000000000000000000000000000000000000000000000000000000000000000000000000000000000000000000000000000000000000000000000000000000000000000000000000000000000000000000000000000000000000000000",
      "type": "0x0",
      "transactionHash": "0x76f3e70386d3d2093508291974ac5697a149c10aa1102ca471b4d61fa15258fe",
      "transactionIndex": "0x7",
      "blockHash": "0xf89ab79dff6ac15f0c91defb72be70d8b68e43dd55d533129217a8b68fa22219",
      "blockNumber": "0x2d0625b",
      "gasUsed": "0x16278",
      "effectiveGasPrice": "0x3b9aca00",
      "from": "0xb494d016f2cf329224e2db445aa748cf96c18c29",
      "to": "0xcbe7630872d225a5ba6a32b59cab8da3713806b0",
      "contractAddress": null
    },
    {
      "status": "0x1",
      "cumulativeGasUsed": "0xf5de4",
      "logs": [
        {
          "address": "0x36b8a9cd6bf9bfa5984093005cf81cafb1bf06f7",
          "topics": [
            "0x90ca77ab15009de2392c35890c8e7fb753565ab9e96a342289aa32fcf433f35a"
          ],
          "data": "0x0000000000000000000000005b51e17837fc8f01b3c3ef29e882981e9414c1590000000000000000000000005b51e17837fc8f01b3c3ef29e882981e9414c15900000000000000000000000084ce0968753b152433afbe4ddaf8fe89ec110d2e000000000000000000000000cbe7630872d225a5ba6a32b59cab8da3713806b0",
          "blockHash": "0x858fa50d86467f1041363230a42ac3b618cb4b6074f158c966f659ddf67f6cd7",
          "blockNumber": "0x2d06260",
          "transactionHash": "0xc5e29bc8294181e6236d474d9d331d972ce532e5a3e505e0b8118305750fa345",
          "transactionIndex": "0xf",
          "logIndex": "0xe",
          "removed": false
        }
      ],
      "logsBloom": "0x00000000000000000000000000000000040800000000000000000000000000000000000000000000000000000000000000000000000000000000000000000000000000000000000000000000000001000000000000000000000000002000000000000000000000000000000000000000000000000000000000000000000000000000000000000000000000000000000000000000008000000000000000000000000000000000000000000000000000000000080000000000000000000000000000000000000000000000000000000000000000000000000000000000000000000000000000000000000000000000000000000000000000000000000000000000",
      "type": "0x0",
      "transactionHash": "0xc5e29bc8294181e6236d474d9d331d972ce532e5a3e505e0b8118305750fa345",
      "transactionIndex": "0xf",
      "blockHash": "0x858fa50d86467f1041363230a42ac3b618cb4b6074f158c966f659ddf67f6cd7",
      "blockNumber": "0x2d06260",
      "gasUsed": "0x96b5",
      "effectiveGasPrice": "0x3b9aca00",
      "from": "0xb494d016f2cf329224e2db445aa748cf96c18c29",
      "to": "0x36b8a9cd6bf9bfa5984093005cf81cafb1bf06f7",
      "contractAddress": null
    },
    {
      "status": "0x1",
      "cumulativeGasUsed": "0x4ac75",
      "logs": [],
      "logsBloom": "0x00000000000000000000000000000000000000000000000000000000000000000000000000000000000000000000000000000000000000000000000000000000000000000000000000000000000000000000000000000000000000000000000000000000000000000000000000000000000000000000000000000000000000000000000000000000000000000000000000000000000000000000000000000000000000000000000000000000000000000000000000000000000000000000000000000000000000000000000000000000000000000000000000000000000000000000000000000000000000000000000000000000000000000000000000000000",
      "type": "0x0",
      "transactionHash": "0xa976d2bdb77ec6915a8405a12b05059797c2422dc5a94cafbb9801275fa2ba8b",
      "transactionIndex": "0x4",
      "blockHash": "0x37f0e22901be0773ae254c6be0225112f7ab3878501e2b8097a50b6a93cadb0b",
      "blockNumber": "0x2d06261",
      "gasUsed": "0xf85e",
      "effectiveGasPrice": "0x3b9aca00",
      "from": "0x29543acb166b6044b67979b858e743701c9bd1df",
      "to": "0x32ffa2c4c670a0fd0e94cf6457ac2fa7ef007d55",
      "contractAddress": null
    }
  ],
  "libraries": [],
  "pending": [],
  "returns": {},
  "timestamp": 1736354899,
  "chain": 97,
  "commit": "599477f"
}